:20000000004B0020F94A0100FDC90110FDC90110FDC90110FDC90110FDC90110FDC9011027
:1C002000FDC90110FDC90110FDC90110FDC90110FDC90110FDC901103BCA0110A4
:20003C00000105090004081000040810020402010101010902000120181A18182C34041E41
:20005C00000C0E020B040B0A070800110F00A6AAACA4A9A9A399B19ABCB6A8313117191AD6
:20007C0021241B1D1F31313331313118191A22311C1E20313134310000000500BD00B70068
:20009C00B100BC001C00300038000800380102000000000002000000020000000A00000002
:2000BC0002000000020001000000000000000000000000000000000000000000000000001F
:2000DC00000000000E000000C003000080070000000F0000001E0000003C000000780000CB
:2000FC0000F0000000E0010000C003000080070000000F0000001E0000003C0000007800E8
:20011C000000F0000000F00038C40D00C80000008100000032000F0100C50D0090010000EC
:20013C004000000096000501952B0D00C80000002200000032000F020000000000000000CD
:20015C0000000000000000000000000000000000000000000000000000000200000002007F
:20017C00020002000000030004000100000002000000000000000000050001000000070048
:20019C00060001000000030007000800000000000F0001000100FF00100008000000000002
:2001BC0018000800000000002200020000000000010171010101010111010101310101011F
:2001DC00010180010001100161013B001400630173017201620143010001130106013D0171
:2001FC00350004011201000100010001000104010401330133013C01440132013600000134
:20021C00000165010001350081010001050182018301000166010001000108010901030213
:20023C007102300160021102700201020202020280020002100261023A00410063027302BE
:20025C007202620243020002130238000002000204021202000200020002000204020402E4
:20027C00370037003C024402000239000002000265020002350281020002050282028302FC
:20029C00000266020002000208020902030471040204600411047004020402040104020439
:2002BC00000410046104000414046304730472046204430400041304060400040004040453
:2002DC00120400040004000400045104640000040004000444040004000400040004650456
:2002FC00000435048104640005040004830400046604000400040804090400003600010062
:20031C000600000000000000000F000000000000000000000000000000000300FFFF0000AB
:20033C000403FFFF0000FFFF0F00E8030005401F0310000101000000FF3F0F0008000E00C8
:20035C0000000000000000000300010F000009010000000000000000000000000000000064
:20037C0000000000000000000000000000000000000000000000000000000000AD000001B3
:20039C00000000000001363601010001020100010301000104010606080400000C0100346A
:2003BC000D01000F10040101140100FF1608000020020000220100FF23010001240100FE30
:2003DC00250100082602000028010001290100012A0200002C01000F2E020000300100018C
:2003FC0031010008320200FF34010007350102FF360100003701000138010001390100FF1E
:20041C003A01000F3C0200FF3E01010F3F0100014001041F41010001420100FF43010080FC
:20043C00440800004E0100084F01000F50010001510100FF5201000A53010089540100016B
:20045C00580400005C0400006004000064040000680400006C040000700400007404000030
:20047C00780400007C040000800100FF81010001820100018301010284010001354525151C
:20049C0002030504FFFFFFFFFFFFFFFF9A1000000000000000000000000000000000000090
:2004BC00000000000000000000000000000000000000FAFA14000000000000000000000117
:2004DC000000010100000000000000000000000000000000000000000000000000000000FE
:2004FC000000000000000000000000000000000000000000000000000000000000000000E0
:20051C0000000000000000780008020030000A00000800000000000000000804FA000000F5
:20053C00FFFFFF000C1100000000000000001D1100000000000000002E010F000000FA001F
:20055C0000002F0100000000FA000000300100000000FF000000310100000000FF000000F4
:20057C00320100000000030000003301000000000300000034010000000001000000350285
:20059C0000000000FFFF0000370200000000FF000000390200000000FF0000003B02000092
:2005BC000000FFFF00003D0100000000FF0000003E0100000000010000003F010000000064
:2005DC00010000004001000000000700000041200000000000000000610200000000FFFFF4
:2005FC000000630800000000000000006B0800000000000000007308000000000000000086
:20061C007B0800000000000000008302050000005802000085010000000010000000860239
:20063C000000000032000000880200000000320000008A02000000000A00000000C936011A
:20065C000000F9030100024B7B000000A7830100014B7B000000A7830100039DE900000013
:20067C00A7830100041583010000A78301000127830100012183010001A783010001A783C2
:20069C00010001A783010000E152010001A783010001A783010001A783010001A78301002D
:2006BC000227830100022183010002A783010000E152010002A783010002A78301000251BC
:2006DC0039010002A783010004A74F000000A783010003278301000321830100034B7B0053
:2006FC0000034B7B000003A7830100039DE9000003A783010000E152010003A783010003CB
:20071C00A783010004278301000421830100044B7B0000044B7B0000044B7B000004A74FE2
:20073C00000004A783010004A7830100040F83010000E152010001046929000003000000DA
:20075C0000040000E5F7010083F90100D7F90100F1F3010055F40100CDF8010059FA010005
:20077C00BFF90100A9FA0100F1F2010011F5010065F90100F9F8010065F50100B5FA0100B9
:20079C00CDFA010095FA010081FA01003BFA01002DFA0100CDF6010067FA0100A5F9010046
:2007BC000DFA010095F60100D7FA0100A92101001961010001F00100B9F5010029F10100B5
:2007DC00F5F901001D5301007D78010065780100B5F40100C9800100BB80010051F6010051
:2007FC000000000000000000518201006D7F01000DF7010000000000000000000000000017
:20081C000000000000010400003333333333333333333333333333333303010F0000000074
:20083C00000000000000000000000000FFFFFFFFFFFFFFFFFFFFFFFFFFFFFFFFFF464854CB
:20085C00657374000000000000000000000000000000000000000000000000000000000030
:20087C002D08000001000000440B0000080000005207000001123456789ABCDEF00000003D
:20089C0000000000000000000000000003007100300160001100700031022003500480008C
:2008BC00070010006100000014006300730072006200430000001300060000000000040086
:2008DC001200000000000000000004000400370037003C024400000000000000000065008D
:2008FC000000350081000000050000008300000066000000000008000900010371030103AB
:20091C00010301030103010322030203010300031003000300030003000300030003000352
:20093C00420300032403060300030003040312032503230325032303040304030003000351
:20095C000003440300030003230300036503210035038103000305030003000300030003A6
:20097C0025032303080309031404C0A0FE0000001404C0A00A0480A0090480A008400080E5
:20099C00FE00000006088080070880800D2007C00E2007C01400C080024000800300C080DE
:2009BC000108C0801E08808009400080084000800A400080FE0000008F0000008F00010034
:2009DC008F0002008F000300900000018F00010190000002900000038F0001048F00000569
:2009FC008F0008048F0000048A000006510000007F0001003F0004003F0002003F00010088
:200A1C007F0002007B756E6B6E6F776E2D696E7374616E63652D6E616D657D007B656D7024
:200A3C0074792D696E7374616E63652D6E616D657D00C0467B7374617469632D696E7374EC
:200A5C00616E63652D6E616D657D00C000000102030410000810182004040810181C100406
:200A7C000810181C0000000008000000000000002000000040000000600000000000000046
:200A9C000600000002000000860000008200000035100100893401003D790100B5A8000012
:200ABC0021BC000051830100B92A0100B1C6000057830100011401000010004006000000C6
:200ADC0015000000FF000000000000000302FFFFC82D0020200000000103000000000000AA
:200AFC0000000000FFFFFFFFFFFFFFFF00000000000000000101010100C201000300000018
:200B1C00000000007BC80110C5BC0110D9B2011033C20110BDAD0110C1B101106DBA0110FB
:200B3C0065BB01101DC001100000000000000000000000000000000000000000000000007A
:200B5C000000000000000000FFFFFFFF0000000000000000000000003A0100000000000042
:200B7C000000000000000000B1D5000009330100000000000000000101010000C33B3D3A1E
:200B9C005D3A713AA10A8F3A0F3BB309495E850A2F3B853B001610160E18151C021203244F
:200BBC001858030210025800010000000000000000000000000001000000FF7F0040024038
:200BDC000B00000027000000FF000000AC0A0000402A0020D40A000041B5011095A6011057
:200BFC0015B80110010B0101020801020101004000BE040A00BE0208FFFFFFFFFFFFFFFF12
:200C1C00F82C0020D80B0000FF00000000000000F5780100C13D010006000500000000001A
:200C3C000F000000298700000000000000000000D1C0011061AD01100A000000741C00205E
:100C5C00F166010017840100A5C80000EF820100B5
:201000003C000000000000000000000034100000000000000000000001000000000000004F
:1C10200000000000000000000000000001000000000000000800000000000000AB
:20103C003400000000000000000000006810000000000000000000000100000000000000E7
:14105C00010000000000000000000000080000000000000077
:2010700030000000000000000000000098100000040000000000000001000000FFFFFFFF87
:10109000FF00000001000000080000000000000048
:2010A0002C0000000000000000000000C4100000040000000000000001000000FFFFFFFF2F
:0C10C000FFFFFFFF080000000000000020
:2010CC0038140000E410000095A1011091A70110A1C2011009B2011041B80110A5BC011078
:0810EC0085BC01102E0000007C
:2010F400280000000000000000000000141100000000000000000000FFFFFFFF0000000093
:081114000800000000000000CB
:20111C00341400003011000065C2011069C101101BC2011091BA011005BC0110E5BB0110EA
:04113C00300000007F
:20114000341400005411000071C20110A5B6011099BF011045B60110B5BA011025BC01104B
:04116000310000005A
:201164002400000000000000000000008011000000000000000000000000000008000000AE
:041184000000000067
:20118800240000000000000000000000A41100000000000000000000000000000800000066
:0411A8000000000043
:2011AC00240000000000000000000000C8110000000000000100000000000000080000001D
:0411CC00000000001F
:2011D000000000008C1D002004000000000000000000000020000000701000003000000062
:2011F0001C110000941D00200400000000000000000000000C000000301300001800000076
:20121000401100009C1D0020040000000000000000000000240000004813000018000000F9
:2012300000000000A41D002004000000000000000000000010000000A01000002C000000CD
:20125000CC100000AC1D0020040000000000000000000000200000006411000024000000FC
:20127000FFFFFFFFB41D002004000000000000000000000028000000881100002400000088
:20129000FFFFFFFFBC1D0020040000000000000000000000580000003C100000340000006D
:2012B000FFFFFFFFC41D002004000000000000000000000010000000601300001800000082
:2012D000FFFFFFFFCC1D00200400000000000000000000001C000000AC11000024000000F8
:2012F000FFFFFFFFD41D002004000000000000000000000038000000F41000002800000069
:20131000FFFFFFFFDC1D002004000000000000000000000054000000001000003C00000004
:1813300018000000000000000000000040130000080000000000000032
:1813480018000000000000000000000058130000080000000000000002
:18136000180000000000000000000000701300000800000000000000D2
:08137800020000002C0C000033
:041384000100000064
:0413880000000E0053
:04138C0000000F004E
:041390003200000027
:041394000100000054
:04139800E81C00202D
:04139C00000200004B
:0413A0002D83010098
:0413A400FDC901106E
:0413A8000000000041
:0413AC00000000003D
:0413B0000800000031
:0413B4000000220013
:0413B800D41A002023
:0413BC00010000002C
:0413C000001D0020EC
:0413C400080000001D
:0413C8000000000021
:0413CC00000000001D
:0413D0000000000019
:0413D400080000000D
:0413D8000000000011
:0413DC00000000000D
:0413E0000100000008
:0413E400D01B0020FA
:0413E80006000000FB
:0413EC0001000000FC
:0413F000B019002010
:0413F40000000000F5
:0413F80000000000F1
:0413FC0000020000EB
:0414000000000000E8
:021406002900BB
:021408000100E1
:02140A002500BB
:02140C003000AE
:02140E003100AB
:021410002E00AC
:021412000100D7
:0114140001D6
:0814180003000000F40B0000CA
:081420000000000000000000C4
:0414280000000100BF
:04142C0000000300B9
:0414300083C4011060
:041434003C14000064
:041438003C14000060
:04143C0000000000AC
:041440009000000018
:041444009000000014
:0414480000000000A0
:04144C00001D00205F
:04145000D97E010040
:041454002000000074
:04145800C40B0000C1
:04145C00200B000061
:0414600009C30110AB
:04146400E34D010053
:04146800AF5B010075
:04146C0095C801100E
:0414700097C8011008
:041474000000000074
:04147800C30B0000A2
:04147C00380A00002A
:04148000500A00000E
:04148400200A00003A
:0214880008005A
:02148A00090057
:02148C0001005D
:02148E0000005C
:01149000015A
:041494000000000054
:041498000000000050
:04149C00000000004C
:0414A0000000000048
:0414A4000F840100B0
:0414A800095B0100DB
:0414AC00996E010034
:0414B000595F01007F
:0414B400576001007C
:0414B80025520100B8
:0414BC00190F010003
:0414C0000F81010097
:0414C400F5380100F6
:0414C8000DC801103A
:0414CC001DC8011026
:0414D0000800000010
:0414D40024000000F0
:0414D80018000000F8
:0414DC0028000000E4
:0414E00020000000E8
:0414E4003C000000C8
:0414E8000C000000F4
:0414EC0034000000C8
:2014F00083482DE9F04F0C4601210170DFF80892DFF80882DFF808A2DFF808B27D499C464B
:2015100020270023ADF1540D002517EA0C070B70C949119291F83C33C849CDF848C005EA24
:201530000200139108BF00287AD111984FF0E04761462A460F4002EA000008BF002843D157
:20155000129E119B4FF48600B9F8AA10DFF824C3CDF82C9012EA060700EA030008BF0028C7
:2015700019D1C34812EA060700EA030008BF00286ED037464046119E048100F1380341811E
:20159000002F83E8C00004BF331CB3F1806F5FD102295DD111E037464046119E048100F19A
:2015B00038034181002F83E8C00004BF331CB3F5803F4DD1B1F5505F4AD1006A67464369FA
:2015D00038682146984741E046465146B6F9087091F90000BC42A0F10100087017D1728935
:2015F00006F1380003C8002904BFB0F5803FB2F5505F08D0002904BFB0F1806F022A02D0E9
:2016100011F09AFF03E012F0E7FF16F01FFA139890F90020521E02706FF00101318113E0FA
:2016300046466FF0010006F10801088063B1BE480078832802D0812059460870316919B1FB
:20165000284688472146E9E7CDF82C90B9F8AA10119A129E02202F461040374008BF002872
:2016700000F0D183B24A43F201408842149200F0A383C01C884200F09F83504690F9000047
:2016900052464746401E1070B7F90800844209D0139843F604078F420A9040F09E8315F030
:2016B000EBFF9AE3644890F83CC307F1380090E800034FF482062F4617EA090706EA08008C
:2016D00008BF002820D113980C4F0A9007F1380003C84FF400322F460F4002EA000208BF91
:2016F000002A02D111F028FF77E312F075FF74E3491D0020401D00201416002050190020B8
:20171000471D00204B2E00202846BCF1010F59460E9002D00F78002F7AD1844C8120149E3E
:20173000277808702B46A5816069A770427A017A337002F0070301EB032152098DB234BF98
:20175000291F891EDFF8F081437A8DB233F07F0340F01D8377490988A942C0F218830A300E
:2017700029460FF089FE216A04F118000522083116F0C0F9ED1EADB20D960520E17E227F7B
:20179000A37E2D4EA081C1F3011B227103EB012096F83C136081002908BFBBF1020F00F0AF
:2017B000F682BBF1020F00F3F28269B110F0070F00F0ED8241B15C490978862904D100F062
:2017D0000701022940F0E382011301F00201022952DA6378DFF8509100F00700022836D117
:2017F0004646D6F804A0002B31D1216A09A801220D3116F07FF90620A081D047804699F8DE
:2018100000300D48B56847680C96862B18D10FB916F09CFD9DF9240016F0E5FD9DF9246008
:2018300078770020B8774046FE77A847608900F0100010F043FE05E008020020461D0020B4
:201850004046A84713980A9015F06AFFA5E299F800000026862808BF01261398CDF8308056
:201870000A9076B1002012F003FFA77808E0C04600000C8C141B0020CDF8308013980A90C5
:2018900063788FB183B9012F00F07E826089022F03D110F0070F40F07782032F05D100F09C
:2018B0000701032901D06FE2608901094FEAE00C09D310F4405F00F06782BA4991F8E07373
:2018D000002F00F06182011301F00201022902DA810A80F05982B2490978C1F381098E11B8
:2018F000B9F1010F00F05082012E00F04D82AB49BBF1020F09D08A5D11F809108918CFB2B9
:2019100006B3C1091ED3BF1E0BE072184944127909798918CFB2C10910D259EA060311D05C
:20193000BF1CFFB20EE0C0464F2E0020782D00204D2E00203A1D00206418002059EA0603BB
:2019500008BF0227C0F30020391A60718D42C0F21B82ED1B5FEA5C010544A8B2208124BF9D
:2019700025210E910E990818743080B215F052FC65782061002800F007820021742210F0CC
:201990007BF90020E070B4F80A801DB90D9908F02000087000250D9B60790F951D78109092
:2019B000002D3BD0051C39D108F00708B8F1030F06D0B8F1010F22D17A4890F82A04F0B157
:2019D0007848B0F854000023810809D3754991F8825095B94D681DB16D7E35F07F050CD158
:2019F0005BB98008984605D385498D68887805B1A84710B9B8F1000F01D00420E0706948A6
:201A100090F83C0310B1BBF1020F01DA15F0BEF96079B4F80A801090E0780F90216901F1B8
:201A300074004860886525890D812089A1F85C005FEA18100FD31098C0F1030082B2A1F837
:201A50005C20886DCF4916F055F82169B1F85C20886D801888655248CA4B0078C0F3011284
:201A7000109D18780F9BA1F80C8000F07800104318430874FF228A7320790E9005B100208D
:201A900081F8306081F83A9081F84900A089002F2946A0EB010085B2A58100F06A81BA469D
:201AB000216AE780684652464919083116F022F83B487F19BDB2A581216900780A7C6E4637
:201AD000C0F3011B801002F0400910F0030F00F0030744D0BBF1020F4FF0000301D1D00992
:201AF0000BD29DF801209DF8000000EB0220A1F844000DF10206A1F84200C94AB1F84400E3
:201B1000B2F85A20824203D04FF6FF72824223D1032F12D072783078C14B00EB022082B299
:201B30004A86B3F85810B61C0120914213D04FF6FF71914218BF00200DE0C94800683146AD
:201B5000323016F012FCC648B54900684F31323015F0F4FD08360346002B00F00D8110482B
:201B70000078831126D02069BBF1020F03D0017CC90903D309E059EA070706D17278317871
:201B9000B61C01EB0221A0F84210032B0CD07178327802EB012202850CE0C0460C0C00002C
:201BB000932D002008020020AD4800683146283016F0DBFB08F00708B8F1030F07D0B8F1C1
:201BD000010F39D1A84890F82A74002F34D0A6482669876F4FF00008EFB17B7E33F07F039A
:201BF00015D096F8300002280CD003280FD107F1700006F1280115F0A1FD40B11CE0C04603
:201C10004C1D0020B7F87000318D884214D057F80C7C002FE1D1B8F1000F0DD1914F594BCE
:201C30004046E07038784246C0F3011118780F9200F07800084330748B4890F83C7317B167
:201C5000BBF1020F0BDA0D98077847B1109830B90E980F9910F0F8FFA589B4F806A02069D7
:201C700081890909C0F08580806D6946524615F041FF2169886D50448865276AB1F85C0074
:201C900001225044A1F85C000DF125007919083115F030FF6E1CB5B2A58121699DF825000B
:201CB000896D087021699DF825709DF82530886D401C8865B1F85C00401CA1F85C0007F07D
:201CD000070081F82400C3F3C10781F8257091F8246020898046002E4ED05F497F183E7807
:201CF000361D8642E68047DC216A324605A84919083115F0FFFE38789DF817209DF81410AE
:201D10009DF8163040193D78001D01EB026180B201EB0341A0819DF81530206901EB032168
:201D300081616DB14E4800686D1E06A92A461C3015F0E0FE397820696944C97D80F82610E1
:201D5000806D05A9324615F0D5FE2169886D80198865B1F85C00A8EB06078019A1F85C0050
:201D7000781E82B22281B1F85C000A818018A1F85C0000F07FF810E016F02EFA11F0DCFB6C
:201D90000BE0C046922D002016F010F805E016F00DF8CDF8308013980A90DDF83080D8F856
:201DB00004008047216A0A680023137109682162D8F80810884710E0404680784146574667
:201DD000401C887097F900005146401E087011F0B3FB15F051FC13980A9023480B99104FEE
:201DF00000226FF0010690F83C03A1F8AA203E8110B11498007808B915F028FE0A9991F964
:201E10000000401E0870194890F9000010B9134800210170139A92F9000098B102E0C046D3
:201E300050190020119B129F02214FF0E0401940384008BF002908D092F90000002804DCFE
:201E500016F084FA002003F023FD0949002015B00870BDE8F08FC0463C0000003E1D00202B
:201E7000882D0020932D002008020020471D0020491D00202DE9F04FB64D28692C89296A38
:201E9000AE89806DADF1440D22468919083115F031FE2969886D00198865296A3619B6B2D1
:201EB00001220DF13E008919083115F023FE296A761CB4B2042204A8AC810919083115F0C8
:201ED00019FE9DF813109DF8100000EB01602B699DF81210241D00EB01409DF81110AC8197
:201EF00000EB0120049015F039FFD863049815F08BFBA3F84000EA2015F056FC0221964856
:201F10002C690170217CE878084320749DF93E0016F069FA84F8460021899DF93E00DFF87B
:201F3000F4B284F8480004F17400A065B4F85C00401A61684FF0000AA946401801466060F7
:201F5000A08984F847A0820A18D2020955D310F0070F07D000F00700032812BF081C606870
:201F7000401C46E06168C87800F00702401000F0380000EB42004018001D3AE00CB916F0CE
:201F9000E5F9A089800A2ED361684878C7112AD12589616650464B780A7803F07F035B0023
:201FB00003EBE2137E2B0DD07F2B09D002F07F0280188918801C891C80B28542EBDC08E090
:201FD000514600E00121801C84F8601080B2854201DA504605E06168091861602189091A09
:201FF0002181A4F86800606E10B1B4F86800B8B160686061A089000918D294F86000002866
:2020100000F01881204611F07BFFD9F81040E06C002800F00F81B4F85000002840F00A8152
:2020300016F0C8F85046C9F8100036E250465646059094F82470069005A906AA07AB079621
:20205000204605F069FC002840F0E780059B656960682689291A701A86B20BB916F076F9CE
:20207000B4F85C000090019502960698001D03900598A169A36D3A4615300EF06BFE002831
:2020900040F0CB80BB4894F860502689C15D701A208115B1204611F033FFA58905F00705F0
:2020B000032D02D160680078E07394F80F80732009A914F02BFC832010A906F0E1FD514628
:2020D000DC460AE0C278012A03D1002F08BFDC2028D0001D491C0990C9B29DF8400088428C
:2020F00040F39A8009988278032D07D00378AB420DD09CF800600EB1022D08D0032DE8D1F9
:202110000378032BE5D103465B784345E1D1BB10B3EBA20F05DA02F0030207F003039A4231
:20213000D0DD504680460598E77B90F814E0514601E0491CC9B28E456ADD06694B00032DAF
:2021500006EB03020AD1F35C032BF2D15278BA42EFD10CE0782D00204B2E00201278AA4218
:2021700005D09CF80020002AE3D0022DE1D10698077C002F08BFB8F1DC0F4DD0A069B0F196
:20219000FF3F43D0712008A914F0C0FBB548078947B3089D51468446059A95421CD19CF859
:2021B0000AE0BEF1000F08BF50460CD00698C2687346504696888E4205D05B1E02F10802DE
:2021D00000F10100F6D186451ED0069AD268A36952F830209A4217D87F1E05F12C0501F17C
:2021F0000101D9D1C2000698A169C368491CD150C0681058B0F1FF3F02D107980121C170D4
:2022100084F801A0504609E0DB2007E0DB2004E0DC2002E044050020DD206070D9F810401C
:202230006070A0696778606527B1F22015F0BCFAD9F810409B4D95F83C03002800F0AD8052
:20225000A189DFF8648201F00702022A65D199F80170002F61D16778002F5ED1D9F810109A
:202270008DF83FA00DF13600283116F07EF8D9F810100BA80A22283115F03CFC414601F102
:202290001002D9F81070D5F860331088401C1080786E04210DF13F029847444609F1100B1F
:2022B00028B9686818B19DF83F1080F86810D9F8107097F83000022812D1DBF8000005F5D6
:2022D0006A710E4602222830203114F095FD38B906F116010DF1360016F047F8D9F8107093
:2022F00072480078862807D1608A401C6082B88900F0100010F0E2F895F83C0328B1D5F861
:20231000841311B1D9F81000884715F053FF5046C9F8100015F004FAC1E0654A1778002FD5
:2023300030D0C1F3013102292CD16078002840F0B4809DF83E005F49464699F80370087098
:20235000B08A04F128021C34002F00F10100B0820CBF50460820584953460B60009001941E
:20237000B5F8CE33117A0D2005F0E8FB20B914F00DFD03E04000000015F070F95846D9F828
:202390001040007848B1D5F8841331B1204688472846D9F8104090F83C03A7890A9407F0D6
:2023B000070760B1A07BFF2873D0032F05D1204640680078042802DD6BE0012F69D1381CC7
:2023D0003AD0401E50D0801E63D1A089C0F30130022803D16068007807282BD0208900284D
:2023F00057D0204641684A1C42600F78A446C7739CF824606EB9002F4BD00A2F49DA2F4987
:202410000089C95D814209D0082F42D1082805D03FE0C07B00283CD00A283ADA204601894E
:20243000491E0181C17B0B3101700A99C87B401CC8731BE0322018E095F8B5030F280BD0A1
:2024500015F0A0FC40B90A988189091301F00201022901DA2969884795F8EB030A9C2074FA
:20247000152002E02C1D0020162020700A9905F17C0013F04FFD124C6068804795F8841094
:20249000491C85F88410A1688847202015F0C6FD3DE70AA812F016FC39E711F04DF811B0C5
:2024B000BDE8F08F08020020301C00204F2E00204D2E0020461A0020741B002047000000A4
:2024D000641800202DE9FE4FDD4981460122A1F130000260D8480768002FFCD0D74AE34EDD
:2024F000C027D848D84B17603268920808D2324652F8042C03F14104120C42F0F00222701E
:202510004FF0000A8346C1F800A0DFF88CC3DBF80810E04F0191880E43D2480E41D38020B9
:2025300018744FF6D802A3F8512018703868C0F30464162CA8BF203C1E460F3E307800F043
:202550001F001628A8BF2038844223D0624602F1980EE44ACEF800A0251A022D05DC15F16C
:20257000020FB8BF6FF0010500E002254019156800F01F05844245F4F855A6F866504FF08E
:2025900001051560E8D110682E4616601068CEF80050106838460068C0F30420162808DBB1
:2025B00006E0A7F1D0000068C0F30460162800DB203800EB2170401C162805DA10F10A0FBE
:2025D000B8BF6FF0090000E01520D54E00F01F0040F4F850A3F85900306880083ABFD14823
:2025F000C0F800A041F040616246C80E8E0E80F0010000F00100106086F0010000F001004D
:202610009060019810F056FC0146182013F0FCFAA7F13806CD4C30683568A4F10408C0F3DF
:20263000870105F0030041EA0021D8F80400C04D446840F2FF32534688B22C2100902846B0
:202650004038A047F06AC0F30D011C2013F0DCFAB549706A014000F07C400143142013F09B
:20267000D3FA316A01F47C000904090C0143102013F0CAFA7D4AB06A1268C0F30351C0F3FF
:202690000344520813D2DBF80020130511EB237103D41029A8BF0F2100E05146120414EBD6
:2026B000227403D4102CA8BF0F2400E0544644EA011400F47F4200F0FF01B9F1220F42EA5E
:2026D000044241EA020124BF00F0804001430C2013F09AFA954CB9F1220F32BF0120206886
:2026F000C0F30070B9F1220F4FEA400040F0200085F8090126BF2068C0F3407001208D4EB0
:20271000B9F1200F40F0100085F8090138BF514606D33168C80C00F44070C1F384510143C4
:20273000282013F071FAB9F1200F26BF3068C0F301505046B9F1220F4FEA400040F06000FF
:2027500085F80C0126BF2068C0F3C0605046B9F1220F4FEAC00040F0800085F8010126BF21
:202770002068C0F345505046B9F1200F4FEA800040F47C40A5F89C0138BF6F490AD3306803
:2027900001038A15920501F47C1100F00F00114341EA0031082013F037FACC3F4FF4800094
:2027B0002860664AB86D40F21E216FF31F40814216D93868030E03F00F0113F00F0FC0F340
:2027D000034018BF491E072805D006280EBF0720801C00F00F0041EA0011A2F1080001705F
:2027F000DDF804C0CCF381477F1E02D07F1E31D02CE02068810C29D24FF480412960D2F829
:202810000210430AC0F3033703F0800321F08F010B4347EA0301C2F80210D2F80130060AEB
:2028300066F30303C2F80130116800F0E70721F0E70147EA01000CE09402224300600C4029
:2028500040100940AC3F0050156208404FF000402A46106005480068C0F3C0070FB940201F
:20287000A8624FF40070286402E0C046B03F005020684027C0F3C14040F0300085F8C80090
:20289000CCF3815080B3401E08D0FFE7401E23D0022122E08813005000002043012013F061
:2028B00085FE06460420314610F0F6FC042013F07DFE8642FAD12248066826F07F4013F0C7
:2028D0009BFCD8F81400036807214FF06022300E98474FF4806028600321042010F0DCFC31
:2028F00009E0C0462C2009400420012110F0D4FC144813F081FC203C206800F03F0085F8C2
:20291000CB0FD8F80030124ED96830680220884710480D4C076001212160BDE8FE8FC046B0
:202930000000094094042A43FCFCFC008C13005040A00C409813005000803F400A6008407E
:20295000A83F0050BD37860094046042A40100102C20094000600C402DE9F04F0D46C94CC9
:2029700001686162416880686160ADF12C0DA060284613F035F84FF008094FF0010BADF814
:20299000089002A8ADF80AB0616A08908847BE4E9DF80C1071700499716108B114F07EFD0F
:2029B00028688047A046D8F80400804709904FF40057ADF808901E20D8F82410ADF80A00CE
:2029D00008980397884712F0D7FECA4C206C40688047206CC16868468847206C83686A469D
:2029F000002001469847E06308B914F057FD14F025FFC24FC4F8D470C24AC4F8DC20C2491D
:202A1000C4F8E010BC4830610025A4F85450BC4BC4F8D830BD4FC4F8E47004F5C472C4F82E
:202A3000642104F1C001C4F8681104F1D400C4F86C01B74BC4F8E83013F07EFE04F198073B
:202A500004F51C70C4F87471B34AC4F87001B14BC4F80821B14FC4F8B03003F16E00A7652B
:202A7000B04AC4F8B400AE4B2266B04FE365B4F85410C4F8107241F00100A4F85400AD4AAD
:202A9000C4F83022A8496166A94BC4F8203204F15807C4F88471AC486062A7492161A84A3F
:202AB000E261A64BA361A749216214F04BF9A74FC4F84073A849C4F84C13A54BC4F844337F
:202AD000A44AC4F84823A54FC4F85073A649C4F85C13A34BC4F85433A24AC4F85823A34FFE
:202AF000C4F86073A449C4F86C13A14BC4F86433A04AC4F8682384F83C53B4F85400B5607F
:202B100040F01000A4F854009C4FC4F870739E49C4F87C139A4BC4F874339A4AC4F8782336
:202B30009A4FC4F880739C49C4F88C13984BC4F88433984AC4F88823984FC4F890739A4985
:202B5000C4F89C13964BC4F89433964AC4F89823964FC4F8A073984981F800B0944BC4F8E6
:202B7000A433944A156002204D8013F0E7FFFF210222F06215F03DFCF01CFF21022215F01A
:202B900038FC022013F0DAFF8C4F386008B914F085FC38682946022215F02BFC07A806A97D
:202BB00012F006FEF06A9DF81C10421C01709DF81C00107025709DF81C00B07014F01AFA66
:202BD000B061089FD8F82410ADF808901420ADF80A00384688471523ADF808900398ADF807
:202BF0000A30D8F82410F061384688470398754FDFF8DCA1744B3D70801E3062704E1D704F
:202C10000AF10E023570108875700E30356180B214F000FB074677610FB915F097FB029755
:202C30008DF80C509DF80D00684965F301008DF80D009DF80D00534665F383008DF80D00BD
:202C5000D8899DF80D20088065F307128DF80D20ADF80E00706902A94A4614F04BFF3762E8
:202C7000756211F0EBFF5B4E3078012802D0284602F00EFE58480570584F3D703078012890
:202C900007D003E064180020401B0020284602F0FFFDD8F808100998884701F093FA14F01D
:202CB000D9FA94F8EB0311F02BFE584602F0F0FD0FF037FA4A4805703078012802D02846C8
:202CD00002F0E6FD10F022FA1820464FADF80890454EADF80A00D8F82410039708980496CF
:202CF000884708B115F032FB03F05AFB0BB0BDE8F08FC04608020020CD460100C98A00004C
:202D1000A93501001D74010015D2000075E200000D1B0100CC01000029D1000001BB000048
:202D3000B5B10000C9480100215E0100BD3E0100651E010069830100518E000039D900002D
:202D5000856A0100FD1C0100B95901008D010100E9680000ED2301005157010069810000C2
:202D7000ADEC0000395E0000FD2D0000EF120100FD88000001D30000197C01002195000042
:202D90006D4401007D6C0100E9D3000059A7000029700000597401006DED0000A939010027
:202DB000596C01002D4A0100656F0100357801001B8301002C2E0020EC1D0020402E002072
:202DD000782D00204B2E00204D2E0020D41600202C1D0020491D00204F2E0020472E0020BF
:202DF0004C2E00208B260100E41C00202DE9F04FADF1840D1A9104461B920DF15F00CF49BC
:202E10001C93082214F076FE2046694612F0ACFE1D9018B900200146209006E202200027CA
:202E3000A41CDFF820B31E90C54E2097204602A911F0E3F85FEA000900F0F38120990DF146
:202E50004100162215F0D5FA9DF809707F1E00F088807F1E40F0DD81B9F10A0F40F3E481EC
:202E7000A41C06A80422214614F044FE241D07A80222214614F03EFE42F20B000DF11E01EA
:202E900011F0ECFABDF81E00BDF81C10884200F3CB81A41C14F8010B14F8017B14F8015BB6
:202EB0008DF8410014F8011B8DF842700DF141028DF84350204606F055FAC2490978002825
:202ED000044400F0B1811D9D012905F1020500F099814FF400500DF1570111F0BFFA0DF1EC
:202EF00057000DF15F01082213F086FF40B11A990DF15700082213F07FFF002840F082815C
:202F100042F2010006A906F003FB42F20B0007A906F0FEFA42F205000DF1410106F0F8FA8B
:202F30000DF1420142F2060006F0F2FA0DF1430142F2070006F0ECFA11A942F2090006F0DE
:202F5000E7FA9DF8440028B1022840F05B8142F2030001E042F20D000DF1450106F0D8FA33
:202F700050E1B9F1040F40F35F81A41C14F8010B14F8017B14F8015B8DF8410014F8011B8A
:202F90008DF842700DF141028DF84350204606F0E9F90028044400F047811A9808A906F0D2
:202FB00085FB9DF83E00002840F00E819DF8440000287BD1B6F84E70002F00F00081B6F8C0
:202FD0005200874207D0308B718B884201D109F0E7F9B06D20E0B76D4FF4005004A911F041
:202FF0003DFA14F067F84FF6FF78209D1F90AA46B6F84E00A84243DCB06D4FF6FF714145B2
:203010000AD04FEA480707EB88073818808811F001FFB06D3F1823D1B6F84E300746002B58
:2030300008BF209D19D05846209D40681946D846BF1FBF1DFA782AB1491E05F10105F8D160
:20305000BF1D0AE08047B6F85210491CA6F85210D8F808108847B6F84E30AB4200F0978087
:203070001A980AF02BFAB8800120F870FD788DF83E50B888ADF83F00209B8DF82B30A3E0E4
:20309000B88811F05BF80146082204A813F0B4FE40B1388801041F9815F07FF982453CBF0E
:2030B0008246A8466D1CBF1DADB2A1E7B6F84C70002F00F08480B6F85000874207D0308B18
:2030D000718B884201D109F06BF9706D1FE0776D4FF4005004A911F0C1F913F0EBFF4FF6FE
:2030F000FF78209D1F90AA46B6F84C00A84250DC706D4FF6FF71414509D008EB481738184A
:20311000B0F81F0011F086FE706D3F1829D1B6F84C300746002B08BF209D20D0DBF8040038
:20313000209D1946D846213F2137BA7F62B1491E05F10105F8D1213711E0C046A004000022
:2031500060100020641800208047B6F85010491CA6F85010D8F808108847B6F84C30AB422D
:2031700015D020993846212215F043F91A980AF0A5F9A7F81F000123FF2039462122BB7760
:203190000546787208A8FD7214F0B4FC1CE0612057E0B7F81F0010F0D1FF0146082204A8A8
:2031B00013F02AFE38B179681F9815F0F6F882453CBF8246A8466D1C2137ADB294E76420A9
:2031D0003FE0C0460A0200209DF83E000DF14101162240F004008DF83E000AA814F08AFC10
:2031F0001D9D9DF84400AD1C48B19DF856700DF14500394610F0FCFB3F1A8DF83D7008A81B
:203210000FF03CFA1E9809EB0007BF1CB8B21E9003E01D9D4C44A41CAD1C1E9885423FF75C
:2032300005AE1E98022803DC20990A46672004E01D9A911C121A2098921C1B9B19801C999E
:203250000A8021B0BDE8F08F2DE9F04FCA4C0220002504F11C01ADF1440D41F80C5F401E2A
:203270008D60FAD104F14000A846062701467F1E21F80C8BFBD14FF00809CB4BC949CB4E45
:20329000A0F800901B1D816004F11C07AB4623F003031A46F11A21621046A3611E46E361CB
:2032B0005B18834200F2BF81881021F00301E82302EB800040F804BCEC3933604046C2F87F
:2032D000E810E83222611BF0CDFF6061B9493868DFF8E8A220610A680AF10C06326049686B
:2032F0007160B348B4494A4613F086FD28B9B048CE490A68026049684160CD48CD4FC0F8E0
:20331000AC70C0F8B450C0F8C450CE4EC0F8C850CD4BC0F8B060CD4AC0F8B830CC4FD0F893
:20333000AC10C0F8BC20C0F8C07009B1404688471CF010F8C74ECDF82CB041460C2206F1C0
:2033500028000EF099FC4FF4FA770222F76241F27073ADF82090708DADF82220616A3363C1
:203370001027099740F01900708508A8884700280CBF0A9F47460120ADF82090616AADF89A
:20339000220008A888479DF82400544620700A99616077B1D021397087F80180B87087F8CC
:2033B000038087F804803946BD600220FD6011F0CBFFA949182001221BF00AFF7C49E22069
:2033D00014F0A4FD18201CF0EBF960706068B246CAF808000BF03CFBA94F0AF18400A0600D
:2033F000DAF808509D4C41466762F520A56014F00DFAF820414614F009FA994D1C201D262A
:20341000687005F10C01AE7005F118000DF084F8A860687814F02AFC00B1C146A87814F02E
:2034300025FC08B949F010098E49A86814F080FE8D49C82205F1240011F0F6F98B48B9F198
:20345000100F686010D1606A70B1C26862B1FF208DF810004FF6FF77ADF8127004AEADF87F
:20347000147096E803009047814D05F1140005F108010DF051F86860404614F08FFE4746D7
:20349000AE1E814606F8028F02207070384614F0F0FE014668684A46C9B212F0DDF97F1CF3
:2034B000022FEFDB734905F120004FF4FA7211F0BBF9714D05F11000291D0DF02DF8286017
:2034D000606A002845D00769DFF8B0916FB1009449460EA80A68898802600EAE818096E834
:2034F000030001234246B847606A002831D0C26852B149460EA80B68898803600EAF818004
:2035100097E803009047606A18B307690FB306208DF80800ADF80A000DAEADF80C8002AD7E
:20353000009695E8030042460223ADF83420B847666ABDF834007769A08057B1BDF8340016
:2035500002AE401CADF8340096E8030002220DABB84739A014F066FCE820012114F056F95E
:20357000E720092114F052F9606A0626002837D00769002F34D001E0641800208DF8186079
:203590000425ADF81A500BA8ADF81C8006AB009093E8030042462B46B84788B90B9819300B
:2035B00083461DE045F90100502E0020004B0020241D0020C8FF0100140C0000181D00204F
:2035D000606A8DF8186006AFADF81A504469ADF81C8097E80300CDF830B02A460CABA0472D
:2035F000CDF82CB058460DF0D7FCE0200C2114F00DF94F20032114F009F95720052114F03B
:2036100005F94E20042114F001F95920032114F0FDF813F0C1FF0AF10200012114F0D3FAC2
:2036300000F030F8FCE740F804BB3AE6F0120050D4070020E54F010054492053656E736F21
:203650007200C046495401009104010031580100E1E40000EC160020D148000010150020DF
:20367000FC19002011590100857901001D7B0100901A0020A90B0100B41C0020340C000053
:20369000800800202DE9F041BE4CBF4DDFF8FC826088ADF1400D4108C0F08980B4A014F093
:2036B000C1FB06A802A90FF0B7FE01286DD1404624300068D8B10769CFB1062009AB8DF8B0
:2036D0003000022600930022ADF832600CAEADF8342096E803000C23B84740B9BDF8240062
:2036F00060850A9FE7620B98206314F097FA0226BDF80A10BDF8080084F8246003AAA183A3
:2037100010F00AF8011C02D0C5A014F016FE30460FF06AFBBDF818009DF81470A5F840008E
:2037300007A985F8427005F1500014F09DFDBDF81A0005F1460603A9A5F84E00304614F094
:2037500093FDBDF80A00B5F84010A5F84400502014F050F8B5F84E10532014F04BF84A2041
:20377000314614F0D3FB95F84210E12014F04EF8B5F844104B2014F03DF805F10A001021F0
:2037900014F021FA012020700BE0A9A014F04AFB13F040FCE06001200FF026FB002014F0E8
:2037B0002DFBA01C012114F0F8F920464088800816D3A2A014F036FBE06A12F07DFD13F01F
:2037D000B9F800B2A082E082A3A014F02BFB03F0BFF9A6A014F026FBA01C022114F0DDF9B6
:2037F0006F89780805D305F10A00012114F0D5F96F89B80805D305F10A00022114F0CDF9F8
:203810006F89780917D3A349182042220FAB1BF0DFFC95F85A0005F10A06032818BF0428F2
:2038300002D1286E12F030FD11F0D4FC3046102114F0B3F96F89B80907D30EF0BFFB05F177
:203850000A00202114F0A9F96F89F80907D30BF023FE05F10A00402114F09FF96F89780A01
:2038700013D395F85D0014F0C9FA95F85D0005F10A06032803D15220012113F0AFFF3046F7
:203890004FF4807114F089F96F89380950D395F85C0005F10A0600283ED0401E36D0401E1B
:2038B00002D0401E30D03EE095F85810472013F0ADFF95F85910542013F0A8FFB5F844108A
:2038D0004B2013F097FFB5F84010502013F092FF092701238DF8097095F842008DF80A30F3
:2038F00002AA8DF80B306C498DF8080018201BF06FFC95F85A00012815D1E87898B1304647
:20391000202114F060F90EE003200AE05220012113F064FF022004E05220012113F05EFF0A
:2039300001200FF0F9F93046082114F036F96F89454617B1A86814F01FFEE9886878490875
:203950002DD3A97802094FF0000601D301291FD040091FD301291DD04BA014F063FAA01C9F
:20397000012114F030F9A86814F006FE12E0C04653656E736F7220737461727420657674A1
:2039900000C046C0EC160020B81700201015002010F0DEFE6E70A81D012114F0FEF8608878
:2039B000002839D10A2008253C4CADF80A004FF0FF37ADF80850616A039702A888470028BF
:2039D0002AD10720ADF80850616AADF80A0002A88847049E0E96F8B931499DF80E20087811
:2039F00090420ED19DF80C004A78824206D089684B6C33B100213246984702E0304601F0BC
:203A100017F90E9840B1ADF808500320ADF80A00616A039602A8884710B0BDE8F081C04667
:203A300041757468204572726F723A20307800C053656E736F72206A6F696E0053656E7315
:203A50006F722072656164696E672074696D656F757420656E7400C053656E736F72207221
:203A700065616453656E736F727300C053656E736F722070726F6365737353656E736F724C
:203A90004D736745767400C05374617274696E672E2E2E00714A0100A782010064180020A8
:203AB000181D00202DE9F04FBF4C0546A07AADF1340DC00013F042F8DFF8F092089009F115
:203AD0000400006880470B900AA9822005F0D8F8BDF82800002834D14FF000084FF6FF76E3
:203AF000ADF8288024E0ADF81460BDF82800ADF81660FF210822ADF8100006A814F079FC2E
:203B1000A77A57B143461946089AC8007F1E01F10101135010448680F6D18DF82480D420E8
:203B300004A903F049F9BDF82800401CADF82800A088BDF828108842D5DC82200AA903F0B5
:203B50003BF9B94F0020A0464FF6FF79A2463988ADF8280006E0B44FBDF828003988401CFD
:203B7000ADF82800BDF828008142DCBF8F48816840F34F81AD4800784FF0000B01265C46EA
:203B90000FE08A49B8F804008968641CA4B2ACE0BAF80600641CA4B23CE0A448641CA4B2E0
:203BB0000078A04208DC002ED5D1BBF1000F2ED1687F0028CFD02AE0BDF828008DF80240CD
:203BD0006946ADF80000D02005F05AF80028E4D19DF80C30012B08D19DF80B0028B90DF118
:203BF000030013F07BFF0028B5D16F7B002F0CBF052209225E469F42CFD10DF1030005F135
:203C10000E0113F057FB0028C7D04FF0010BB8F806000024A0425CDDBDF82800ADF802406D
:203C30006946ADF80000D12005F02AF80028AFD1BDF804008145ABD0ADF8100004A9D42020
:203C500005F01EF800285AD106A8291D082213F031FB00289CD028886F88ADF81400BBF109
:203C7000000FADF8167022D0287B98F80A708DF82400381C08BF00200FD00899024600208F
:203C90008B88994509D0BDF828609E4205D0521E01F1080100F10100F2D187422FDD0899C2
:203CB000AA69C000BDF828700A5040188780D42004A903F081F8BBF1000F0AD0287F9DF83D
:203CD0000610884205D08DF806006946D12003F073F8B8F80600A0427FF43DAF3349B8F873
:203CF0000400DFF84CA189680024A04240F38F80ADF81040D42004A904F0C2FF18B12B492B
:203D10008968192486E006AB184613F0E7FE38B9291D1846082213F0CDFA00283FF431AF44
:203D30006F882888ADF816702E7BADF8140098F80A708DF824603B1C08BF00200FD008996E
:203D50001A4600208B88994509D0BDF828609E4205D0521E01F1080100F10100F2D187422E
:203D700003DC124989681A2454E0089A2E1DBBF1000F0CBF0021A969C00011501218BDF8F0
:203D9000280031469080082206A813F0B3FE9AF83C0330B1DAF88C231AB1BDF8101030468F
:203DB0009047002606E0C0462C1D002064180020761CB6B2B8F80600B04221DDBDF8280088
:203DD000ADF802606946ADF80000D12004F058FFE82803D0BDF804008145E9D1BDF810005B
:203DF0000023ADF804002F7F8DF8073004A98DF80670D42002F0E0FFD120694602F0DCFFA3
:203E10000C488168B8F80400B0427FF7BEAEA042A9D000240B988847089813F0CBF8204610
:203E30000DB0BDE8F08FC046341D0020371D002008020020641800202DE9F04F064692F8B5
:203E500008B0307D09AF8846ADF1240D04933528039205D0114606F170000A2213F04AFE05
:203E7000DFF8C8C238F07F0506BF604600884FF6FF700590F08A800934BF00200820307605
:203E9000F08AC00834BF102080207076F08A400903D260460E30007800E00020B076F08A93
:203EB00041082CBF20240024000928BF44F010047568002108F07F08307D06916D1E0228A8
:203ED0000EDB0C2808DC0C2803D1022044F40854069044F0030404E00D280CBF022001201B
:203EF000044396F88C0008B144F00804E110220900D328B1DFF8BC9299F8E03313B908B142
:203F1000DF204CE149086ED306F12401DFF8A8A296F88D50079100EB0A011AF805300A79D3
:203F300099183389491DCAB29918A44B1A8808908A42C0F2368100284CD0049A039906F19E
:203F500084000AF091FB0799002808603FD0806AB0F1FF3F39D070680023401E8DB196F811
:203F70008E10524600F80119515D491EC9B241B18A1992F88320491EC9B2002900F801296A
:203F9000F6D1079970660968896AB162090E00F8011996F82A1000F8011996F82910089AF1
:203FB00000F8011996F8281005F0030500F8011902F0070141EAC501017071683589091AF4
:203FD000CAB27060A918318105E0DB2700E0F3277770E7E00023F08A7370C00828BF44F020
:203FF000100475686D1E336DA3B9B36D93B999F8F913012903D13089B0F5EE7F06DA20095E
:2040100004D202290AD144F4005401E044F48054012002E044F408540220069099F8020059
:2040300001280CD099F83C0348B196F86B00042805D1022024F48054069044F4005444EA49
:204050008834B8F1020FA4B20AD0B8F1030F10D1ED1F09F57B71284614F087F96D1E08E0B3
:20407000B9F8D203001205F8010999F8D20305F80109069802280CD0B8F1000F15D0BBF137
:20409000000F0CD004990598814208D144F040040BE0BBF1000F08D1B8F1000F05D005992D
:2040B000081205F8010905F8011944EA8B24BBF1020FA4B209D0BBF1030F0ED10399ED1FAA
:2040D000284614F052F96D1E07E003990888001205F80109087805F80109BBF1000F05D045
:2040F0000498011205F8011905F801093878F8B933480178307D0D2814D068B9306D28B929
:2041100099F8BC03411C89F8BC130AE099F8E103411C89F8E11304E099F8CA03411C89F841
:20413000CA13014605F8011904E0C046D605002044F48074201205F801092C7070683789B6
:20415000401BC1B2756078183081200926D3B06D00B1306299F83C0310B1307D0D281DD188
:20417000746A14F1150001D114F0F0F8A16A481CA0623289306AB162471B0092D21B01902E
:2041900090B20290706A96F88C202B4615300AF035FB00281CBF7070071C07D10020707069
:2041B00005E0E5277770F32013F0FEFAF8B209B0BDE8F08F080200203C0000003A1D0020A5
:2041D0007C2D00202DE9F04FD54D286A416EADF11C0D02A888474FF00009D24FCDF8089048
:2041F000B8688DF80C90002833D111F0EDFFB8B111F0EAFF012813D011F0E6FF05280FD004
:2042100011F0E2FF0C280BD011F0DEFF0D2807D011F0DAFF0B2803D011F0D6FF0E280BD1EB
:2042300011F0D2FF787000280CBF48460120B870286A00F1200408B914F088F8216807F17D
:20425000180088474FF4FA703885B74EFE6206243C63DFF8D882EA6998F8FB434FF0010A33
:204270004946080100EB41108018867F2EB9437F491C9C42C9B2F4D102E0417FA14204D137
:20429000824202D011F0ACFBEA69DFF8A4B2686A1BC88BE81B0097F90100012805D00D2849
:2042B00003D00E2818BF484600D105208BF8000098F829145069A44C50F82100C4F89C00D0
:2042D00013F0BEF9632005A910F0CAFB98F8FB0312F052F8064694F88E006AF3020084F803
:2042F0008E0011F03FF9042825D011F03BF9032811D094F8900040F00F0084F8900094F892
:20431000970069F3030084F89700B07B052814BF2420292016E094F8900040F00F0084F8FF
:204330009000292384F8943094F8970069F3030084F8970008E094F8900040F00F0084F8FD
:204350009000212084F8940094F8950069F3871084F8950011F006F9042818D0B37A7BB9D2
:204370009DF8140094F89510401E60F3050184F8951094F8960020F03F0040F0180014E0CE
:204390009DF8141094F8950061F3050005E094F8950020F03F0040F0020084F8950094F8B6
:2043B000960020F03F0040F0200084F89600B189B07BB4F88E200A23401D484390FBF3F163
:2043D00061F3CF02A4F88E20B08994F890201923800390FBF3F102F00F00D4F890200F230C
:2043F000484390FBF3F161F31C22C4F89020E86994F89820017F61F3020284F8982094F888
:204410009810007FC01060F3C30184F8981098F9EA0310F095F8B0F1FF3F05D0010828BFAB
:204430004FF6FF70A4F89A00308971683368EA69401E414303EB51004FF47A71B0FBF1F027
:20445000A4F8A00090690078A4F88290C4F8849094F88D3084F8A4006AF3030384F88D301C
:2044700013F0AEFEC8B9B089324A98F8FB63B1FBF0F0C0B21070B1FBF0F02F49022E4870EF
:2044900006D011F06FF8032807D105225C2001E00222A820294B1A700870BB682E6A5BB31C
:2044B000484610F0EDFBF87898F8FB13884212D13A7998F829142E6AB8688A420DD10221B6
:2044D0004A468DE80600366D80344B4602AA2146B047EC601BE02E6AB868716888471848C8
:2044F0002B6A80F800A01E68164880345946224607F11803B04707E080342246114834685E
:2045100007F118035946A047B860686AA86298F8FB0398F82964F87007B03E71BDE8F08F61
:20453000501900200C1B0020FB1C010008020020102E0020D01C0020441A0020301C002005
:204550004A1D0020682B0020141600202DE9F843DFF828830F460446F80B80F07481DFF816
:204570001893B80F80F02D81C54DB80880F02281F80A80F00081B80B80F0EE80780B80F02F
:20459000C080380C80F0AF803809C0F07F81082013F0E6FD002840F0A180802013F0E0FDF0
:2045B000002840F09B8068460CF002F8012803D10098002800F0928000240125E0B213F036
:2045D00091FB48B1867A3EB1857290F9090005FA00F0C0B211F080FB641C032CEED34C46EF
:2045F000032020756068783013F0D1FEAB48002601680660AA4950F8082CB146324640F8B3
:20461000089C04F1380013F0D2FE304612F092FD13F022FB0146A268E069891A090BC1F1BC
:20463000FF3282422CBF08444FF0FF30E06194F820601EB12169B0EBC12F1FD912F0DAFDCE
:20465000494600B12946081C14D0964840F60901018049464180427B65F303024273027B58
:2046700061F303020273416013F098FC418811F4406FFBD084F820504946E16110F0BEFE63
:2046900089484D4649460560022012F037FB022011F008FB11200AF01DFC207818B96068C1
:2046B000403013F08CFE8148007810B90E200AF011FC94F8210020B184F82150052011F01D
:2046D000F1FA7B48B4F98C60A061B4F98E1025758E4214BF022007200CF056FF27F008073A
:2046F0000EF03AFED2E00835296839B1C86840880028FBD0C86840880128F7D027F40047D5
:20471000EEE711F0C5F838B12046A4696FF4807100224FF00073A04768494C46002204F131
:20473000380013F044FE0220E668207513F094FAD4F81C21636804F58E719A4214BF0122B8
:20475000002226B1801B01EB8206030BB360002027F48057E060C3E74046066846B1B06821
:2047700030B13069B6F93410B46800222023A04727F400578AE013F014FE4C460546206FF7
:20479000064688B1606810B1783013F000FE3069606013F061FAE06046484FF40061A06128
:2047B00004F1B40013F013FE284613F0E1FE27F480676BE006F018FB286808B927F0020715
:2047D00064E013F0EEFD0546042011F0EFFEC8B1207CB8B148460830006898B1064613F0F6
:2047F0003BFAE168801BE060000B8842E06002D240184008E06040F6C41181422CBFB0F529
:20481000967FE160284613F0B3FE11F041F880B1A56920466FF4807100224FF00073A8471A
:2048300025480068002808BF47F0020701D00EF093FD2046646900214FF080630A46A04758
:2048500027F0005722E013F0ACFD41460E68CEB1B16A890816D2B56AB16AA943B16213F0E0
:2048700087FEB06880B17DB13069B6F93410B4682A460023A04707E0C02400204825002092
:204890003825002013F074FE27F4804727B1404639462C3013F09BFDBDE8F88314100440D8
:2048B000E1370100E82D0020000004605A1D002079D7000099B700003025002025EB00007A
:2048D0002DE9F04FC34C07466068ADF1140D80470025DFF804830390002F88F8035000F0C1
:2048F000C68011F029FF08F52A702946402213F080FDBA4C04F1080001882C2707FB01F07F
:2049100080B212F01BF9C8F8CC02002800F05D81E17A20894843410001EBC00188B212F002
:204930000DF90028C8F8D00200F04F81E18820894843800080B212F001F90028C8F8D402DE
:2049500000F043812089800080B212F0F7F80028C8F8D80200F03981208980B12A46D8F8C1
:20497000CC1289180D75D8F8CC1289180D71D8F8CC12401E114402F12C028D81EFD1A188E0
:20499000880000EB011080B212F0D8F80028C8F8DC0200F01A814FF6FF7AA946AB4615E09B
:2049B000A77A7FB12946D8F8DC028019C368CA0042F803B0C0687F1E01F101011044A0F859
:2049D00004A0F0D109F101001FFA80F9A088484500F3EA809548FF210822C01D13F009FDB6
:2049F0009248FF21082288F8B712103013F001FD032688F8C8622789A8F8CAA2C7B14FF0B3
:204A1000010C04232A46D8F8D802910001F800C0D8F8D80240184370D8F8D8024018867041
:204A3000D8F8D8027F1E02F101020844C370EAD17E480121042305220227343000F8041F11
:204A5000437082707F1EC170F8D1784880F83C60A08848B12946D8F8DC22401E0A4401F13A
:204A70001401A2F802A0F6D1022088F8AC0298F83C0318B1D8F8400300B180470EF046FB5C
:204A900098F9EA0313F005FA11F06CFE13F070F912F0D0FF12F0C2FF514E072456F8040BF4
:204AB00000B18047641EF9D113F000F8444604F14C00016809B110F005F94A48006884F8C5
:204AD000565020B10CF01CFD0028009068D146480078012802D0284600F0DAFE434804F192
:204AF00078060570A06F002852D1361DE06F002846D1A5673E48C4F88801E5673D4FC4F80D
:204B10008C7184F882503C4EC4F8906184F883503A4BC4F89431A570394AC4F8982184F825
:204B300084503849C4F89C113B49C4F8C010364FC4F8A071394FC4F8C470344EC4F8A4618A
:204B5000374E334BC4F8C8602249C4F8A831354B304AC4F8CC308968C4F8AC21324A03981B
:204B7000C4F8D020884704F2D131522005F0C8F894F8EB030FF0D2FB0EF0C8FA284626E011
:204B9000304610F081FF029002A810F09BF8ADE7304610F079FF019001A810F093F8A1E771
:204BB000684610F08FF88DE7A37AD8F8DC724846860006EB0016D80011F0C0FFF119F31938
:204BD000C860D86800287FF4EBAE13F0BFFB05B0BDE8F08F64180020080200202C1D002064
:204BF00010030020402E0020491D00204A2E00201B260100638301005D6A0100C59100007F
:204C1000ADDC000045720100ED5D0100BDB80000F5A50000596301007F0A0100B1AC000045
:204C30003D28010089070100B9300100B0040020B0B50446BA480768ADF1480D002F00F07D
:204C5000A8812078401E112800F2A381DFE810F06A015201380123011B010401F100E300FF
:204C7000C300B2008D005D0053004200A1012A001C001200F86B002800F08B81684621469A
:204C90000CF016FAF96B82E1386C002800F081816846002101220CF0EFFF60788DF800003A
:204CB000396C74E1F86A002800F07381684600210E220CF0E1FFA11C684612F067FEA57BAF
:204CD000A1890022ADF80A1005B101228DF80C20F96A5DE1B86B002800F05B8168460021A8
:204CF00002220CF0C9FFA5788DF8015060788DF80000B96B4BE1786B002800F04A816846A8
:204D100021460CF0D5F9796B41E1386B08B36846002114220CF0B0FFA5788DF80150A36840
:204D30000193A289ADF80820A17B8DF80A1060788DF80000E57B8DF80B50237C8DF80C301F
:204D500094F911208DF80D2061690491396B684688476068002800F01C810146F220087005
:204D70000020487010F0F0FA13E1B86A002800F010816846002124220CF07EFF6078A11C7F
:204D90008DF800000DF1020012F000FE04F10C0103A812F0FBFD257EE08A04F119018DF836
:204DB00018500B22ADF816000DF119000BF082FAB96AECE0786A002800F0EB8068460021E2
:204DD00002220CF059FFA5788DF8015060788DF80000796ADBE0386A002800F0DA8068469B
:204DF000002112220CF048FF658862796078ADF8025023798DF80520E11D8DF80000A5798D
:204E10008DF804300B220DF107008DF806500BF051FA396ABBE0F869002800F0BA806846D7
:204E3000002101220CF028FF60788DF80000F969ADE0B86910B120460FF08CF8A07820B9F3
:204E5000A069002800F0A58003E0A069002800F0A08012F0BFF89CE07869002800F0998091
:204E70006846002113220CF007FF6D46A01C0168406829600B22686004F10A0102A80BF079
:204E900019FA796983E03869002800F0828020460AF006FC7DE0F86800287AD0684600218F
:204EB0000E220CF0E9FE6078A11C8DF800000DF1020012F06BFDA089ADF80C00F96866E0CA
:204ED000B868002865D06846002114220CF0D4FEA01C01686D46296040686860A07A0B225A
:204EF00004F10B018DF808000DF109000BF0E2F9B9684CE0786800284BD0684600211022C6
:204F10000CF0BAFE60786588211D8DF800000B22ADF8025001A80BF0CDF9796837E0C046B9
:204F3000201D00203868A0B36846002119220CF0A3FEA01C01686D46296040686860A07A7F
:204F5000410824BF01218DF80810810824BF01218DF80910C10824BF01218DF80A100109B3
:204F700024BF01218DF80B10C10924BF01218DF80C1030F07F001CBF01208DF80D000B22B2
:204F90000DF10E0004F10B010BF094F939686846884712B0B0BD7047BA482DE9F84F0025E4
:204FB000B94CB749056094F8E200002800F06381012800F02F81B54E02283CD0032840F0B0
:204FD0005A8151F8250CD4F8B8100029A0F5C060C4F8D400B8BF49420028B8BF4042814284
:204FF00026DA4FF08057D7F8A4014568B4F8BC0030214FF47F42082300903046A847D7F8BE
:20501000A4014568B4F8C00004214FF4F802122300903046A847D7F8A401B4F8D070456829
:2050300020214FF440620A2330460097A847012584F8D8501AE151F8258C13F067F82F467B
:2050500000B901273946924F38680028FCD0B146012609F10409D9F82CA03E6009B113F04E
:205070005BF8CAF30720C4F8BC0013F04FF8AA4600B9B2463B68002BFCD0D9F800B0BAF1C0
:20509000000F3E6001D013F047F8CBF38440C4F8C00013F03BF8AA4600B9B2463B68002B9D
:2050B000FCD0D9F81C90BAF1000F3E6001D013F033F8C9F38120C4F8D000B8F5C061C4F8CD
:2050D000B81000F09C8094F8D80068B9C4F8D410D4F8C000C4F8C800D4F8BC70C4F8C470CF
:2050F000D4F8D030C4F8CC30D4F8D400D4F8BC30002854BF02226FF0010204F1C8010F68CE
:2051100000EB40008018421000EB927207EBA2000860D4F8C810C4F8C43000291CDD1E29C2
:205130003CDDD4F8CC0030B93429B4BF15391E21C4F8C81025E02A29BABFD4F8C8000B382C
:205150001E20C4F8C800D4F8C4003F28B4BF401C3F20C4F8C4001FE0D4F8CC00032812D034
:2051700011F10B0FC6BFD4F8C8000B30301CC4F8C800D4F8C4000028C4BF401E051CC4F869
:20519000C450032508E011F1150FC6BFD4F8C8001530301CC4F8C800C4F8CC504FF0805799
:2051B000D7F8A401B4F8C43030214FF47F424568364800930823A847D7F8A40104214FF4C2
:2051D00000321123456831480096A847B4F8C860D7F8A40104214FF4F802122345682B48AF
:2051F0000096A847D7F8A40120214FF440620A23B4F8CC60456825480096A84701E084F87F
:20521000D85040F2FF50404502D8801C40452DD208202EE051F8251C1E4F4BF2F52048434C
:20523000060A3868C0F3814001280AD111F082FB10F0C6F812F076FF3111C010484306EBF5
:20525000E03694F8E50030B91348006820F07F403618760801E084F8E5501048310C0660E3
:20527000012741600E4D8760287808B90B2000E0052084F8E40004F07BFCBDE8F88FC04685
:205290002D400C402C500C40FC13002000A00C4000800C40B43F0050102009403C600C40F2
:2052B000950B00002DE9F04F09AFADF13C0D08900A92388809911E46ADF81800101C08BFA8
:2052D000002000F06C81017800274FF0010B401C4FF0FF39B846DA460A9058E1252940F094
:2052F0004D810178401C0A902D2918BFADF8068004D10178ADF806B0401C0A9030291CBF36
:205310004246434604D10178401C5A465B460A902A29CDF800804D4617D1049330680A9B00
:20533000CDF80890C01C20F00300001D306050F8044C1978002C009403F101000A9018D5FF
:20535000ADF806A06442009413E044460AE0600000EBC4004018A0F130040A980178009476
:20537000401C0A90302901DB3A29F0DBCDF8089004932E2929D10178401C2A290A9011D1DB
:205390003168CDF80880C91C21F00301091D316051F8045C002D48BF454601782B46401CB8
:2053B0000A9011E0454643460AE0680000EBC5004018A0F130050A9801782B46401C0A909C
:2053D000302901DB3A29F0DB02930AB1224604926C2904D04C2918BFADF8048004D10178E0
:2053F000ADF804A0401C0A900BA8CDF80C800FAB07906429059379D0692977D0BDF818C035
:20541000752965D0782961D06F295DD0702946D0632936D073291AD00A98401E0A90099810
:20543000012812D961490C68B5F1FF3F03D0A84288BF6D1C00D8099D029508A80AA93246C9
:205450006B46A0473F18039865E0454617E03068C01C20F00300001D306050F8040CBCF1B2
:20547000010F014608B94FA00146079112F0BCFC0390B5F1FF3F4FD0A8424DD903952846D0
:205490004AE03068C01C20F00300001D306010F8040C8DF82C005D46039558463CE00820B8
:2054B00035680490E81C20F00300001D306050F8041C082210230FA80DF0A8F8401E0790D9
:2054D00040210170079823E0082302E0102300E00A233068C01C20F00300001D306050F87F
:2054F000041CAA42BCBF2A1C04920DE03068C01C20F00300001D306050F8041CAA42BCBF49
:205510002A1C04926FF009030FA80DF07FF807900599081A0390009C241ABDF806500094A6
:205530005DB906E008A8202109AA11F09EF97F1C009C641E0094F5D50398401EB0F1FF3F34
:2055500003900FD1BDF8060001281CD10098401E009018D408A8202109AA11F086F90098C9
:205570007F1CF4E70798017809AA08A811F07DF90798401C079003987F1CDEE708A809AAC3
:2055900011F073F97F1C0A980178401C0A9000297FF4A4AE089808B14146017038460FB066
:2055B000BDE8F08F286E756C6C2900C0640C00002DE9F04FA74E824606F120000068416E3B
:2055D000ADF12C0D03A88847B04F381D0468002C00F03881002061689D4A07902389097841
:2055F0001078DD001035890906D340F6485191FBF0F16D1805F5AF75237D68438500352B77
:205610000CBF00244FF4FA540DF12601E8200FF027FA9DF82600032808BF44F620642D19FC
:205630003C466068007D352803D1D4F8A003804745430220B3468DF82000894FDBF8200019
:20565000069507F10803826E186806A990474FF0000801208049814D087029788BF800808B
:20567000012901D000F014F960680589466811F001FE3088000935D394F83C0390B361687E
:205690004B6A4F6E986AB0F1FF3F25D027B3421C9A628862030E07F80139606890F82A00D0
:2056B00007F80109606890F8290007F80109606890F8280038706268106A00950190801B2A
:2056D000281A80B20290916A506A92F88C203346153009F093F800E0DB20D4F880730028C5
:2056F00040F0A680294630460BF0C6FE642009A90FF0B6F95B4894F83C13007831B994F850
:20571000EB0309F069FA012805D08DE009F064FA012840F08980DFF85091A81C87B20DF158
:20573000250109F170000780E9200FF099F99DF82500012805D13D46C5F3022040F018004A
:2057500005E02D1DADB2C5F3022040F0080006F8010D06F8015D4D469DF82400A5F8628066
:205770000028EE670CBF414841484346039302228DF8102005F12806A6F8028005F1600924
:20579000C5F8B8003B4FC9F8180095F8350020F00F0040F0030085F8350078688047DFF8DD
:2057B000D8800A90BAF1010F1DD0BAF1040F1AD0BAF1000F14D0BAF1050F0ED0BAF1030F9F
:2057D00008D194F8FB0310F0D7FDC07B022818BF4E460AE005F1600607E0DFF8A08004E0AA
:2057F00005F1440601E005F12806DBF820001C4B046D002102208DE80300986803AA3146AA
:205810004346A0471E490880B96800280AD41D4A92F900006035401C10700A98CBF80C50CE
:20583000884711E00A9888471A200BF0F1FF0BE0002F08BFE420F8D0134880F80080E420FE
:20585000B84701E012F082FD0BB0BDE8F08FC046D01C0020501900203F1D0020491D00205B
:205870000C1B0020471A0020141600204E9055550E7A55556418002011AA00002DDF0000E9
:20589000701B0020461D00204F2E0020080200202DE9F04F9E4C05466068ADF11C0D804723
:2058B000A34EDFF898B2012D069000F0D58012F0E5F8002800F0CB8096480078A0B99648EE
:2058D000007888B99548007870B99548007858B99448007840B99448007828B99348007846
:2058F000002808BF012700D00027306A002F00F13C0000F0AC80994C0068257880476168FE
:20591000DFF83492E368AA00401AB0FBF2F7A0684FF00008B24642469F42144672EB04018B
:2059300001DA984205D8414687428A4140DA034600E0414618462A46EB17C01B71EB0801D0
:2059500012F0F0F8272607464FF47A7200238846ADF80A600820ADF8080038460CF01EFE19
:205970006B49496A039002A88847049823464FF0000100F6FC02BF1A78EB0308784271EB0E
:20599000080112DA6B480268414638460CF006FE884607464FF00001784271EB080104DA88
:2059B00038460FF0B7FA002000E001204C4620704C46207800284AD1002738460CF0C2FA9C
:2059D00000B101270026381C3FD15D46287800283BD1DAF820005A4C436CA068022102AABF
:2059F00098479DF8080080B3DFF85881DAF82020A06898F90010374611F1020F18BF0127EE
:205A10004FF0010937B1926B98F900109047DAF82020A0684C4F97F9001011F1020F03D095
:205A3000926B97F9001090476FF00100387088F8000085F80090304612F0D8FADAF8200011
:205A5000C169A06888478AF801603B480670304906988968884757E001200CF073FA21465A
:205A70000698896888475D46DFF8ECA02878012838D1012012F0BAFA11F076F958BB204620
:205A900040688047002402278346DFF8C090306AA9F80240416E2F7002A8884702948DF8EB
:205AB0000C70306A2E4A2A4BD0F850C0A0468DE880011068494602AAE047154989680028CE
:205AD00019D4244A4F4692F90000F760401C10705846884706E02878012803D10020287060
:205AF00011F0D8FF11F040F970B92878022804D15046007808B112F029FC50460078012897
:205B100002D028780228FCD007B0BDE8F08FC046641800204B2E00204D2E00204F2E0020BF
:205B30004C2E00203E1D00203F1D0020401D0020501900205C1B00204E2E00204A1D002004
:205B50000C1B00203C1D00203D1D0020141600209D450100461D0020491D0020D01C0020B9
:205B7000141B00202DE9F04FAC4C07460020ADF13C0DDFF8A482ADF80C00201D0068894603
:205B9000017D252900F00281703005A903F08EFD002818BFC0B240F03B8101A804A90CF03B
:205BB000C1FA0FF0DFFC042814BF41F2081543F2C82504A901A80CF0B5FA98F82B22019957
:205BD0003B684FF47A7A504650430AFB1100C01A8542C0F2D880D8F80422521A0AFB02F197
:205BF000C91A8D4200F3CF808542A34609DD002807DD95FBFAF04FF4916100B201FB003072
:205C100038609DF81F00002857D042F204000DF136010EF023FC11F02DFA0699441A42F2F6
:205C300006000DF135010EF019FC9DF835009DF81D10FF2804BF0A208DF83500FF2908BFBE
:205C50000A219DF835609DF81C507548B4FBF0F2701884B25646A81054437043A04298BFFB
:205C7000041C41F20810241805A810F0A2FF9DF81C103D68B0FBF1F24A43821A714392B20A
:205C900072438B1A891A5B1B491B8C4201D9002908D56142994212D2002B10D5B4FBF6F167
:205CB00009B203E06100B1FBF6F189B23A684FF4916303FB01253D6001E03D68002006467B
:205CD0000DF1120102A80CF02DFA0298D8F804120024B5FBFAF280180290814203D998F83D
:205CF0002B32834202D998F898712FBB9DF81C00B6180004B04298BF361A9DF81F0000281C
:205D100008BF9DF8200024D09DF81C00B6FBF0F085B2BDF833000EF011FA9DF8312001466C
:205D300028460EF035FE054610F030FF024608A928460EF06BFB0CE0814204D8BDF812001D
:205D5000401CADF81200BDF8120098F89B110CF07DFB89F8000088F8F501DBF80400007D5E
:205D7000052811D19BF8D10370B999F8000003A9ADF80C0042F20C0003F0CAFBBDF80C00CD
:205D9000A8F8F00100E06524204641E00FF0EAFB042814BF41F2081543F2C825214800783C
:205DB0004FF47A7404FB00F13868491BA1F5FA62824206D2A1F57A61B0FBF1F24A43801AFA
:205DD000386068460DF10E010CF0ACF93868009998F82B2204FB010154430091611A8D4236
:205DF00011DCA4F5FA648C42BCBF00F5FA60386098F89B11B8F878010CF028FB0146002094
:205E100089F8001002E099F80010652088F8F5110FB0BDE8F08FC0466010002008020020B0
:205E3000A08601008B1200202DE9F04F00289A461446ADF1340D00F0F48011F47C1F40F0A4
:205E5000ED8011F00F0F00F0EC8007460591002006900B900A904FF0000909904D4608956B
:205E70004FF0010BCDF810B0054648460790059805990BEA000021EA0B014FEA4B0B401E9E
:205E9000059100F0AB80401E70D0801E5DD0001F40F0BE8042F205000DF10E010EF0DEFA2F
:205EB0009DF80E60002E00F0B3801CB1276694F86B0006900720152607F8010B022301A95B
:205ED00007F8016B42F2010007F8013B0EF0C6FA684603A90CF026F906980DF0ADF901461C
:205EF000019A00983E4640180090824206D8801ABDF80C300090581CADF80C00009B50081E
:205F10004946804609041804030C194300044B4610EB080041EB09010AF05EFD0090BDF820
:205F30000C309DF80C009DF800209DF8011006F8010B181206F8010B9DF8023006F8012BEA
:205F50009DF803200935BF1D42E00220152607F8010B042307F8016BBAF1000F07F8013B4E
:205F70000CBF09989AF800002D1D4EE01CB1E76594F86B00069005201526049B07F8010BEB
:205F90000DF10F0107F8016B42F2040007F8013B0EF064FA02A80EF05DFF06980DF04CF9C5
:205FB00002999DF80F609DF80F30069AED1D4018000200EB6600B0FBF3F03E4602903F1D09
:205FD00006F8012B9DF808109DF809309DF80A2006F8011B06F8013B327018E00320152601
:205FF00007F8010BBAF1000F07F8016B034607F8013B04BF0B9807F8010B05D09AF8000005
:2060100007F8010B9AF801006D1D07F8010BADB2059800287FF42BAF2E4661E011F00F0FF8
:2060300001D000205DE080468A4602264FF4803908F1020509EA0A002AEA090A4FEA4909B9
:20605000B0F580301AD0B0F5803014D0B0F500300ED0B0F5802009D0B0F5002004D0B0F5A9
:2060700080102AD1072404E0062402E0052400E00424002704E00224012701E0012427466D
:20609000A81C214600F030F847B104F00F04C0F30A0141EAC42141F4004105E004F07F040E
:2060B00000F0FF0141EA042105F8011B0912871929702D18B81C6D1C86B2BAF1000FB9D105
:2060D000022ED8BF00260BDDB01E4FF6FE7708F8010BF019C0F3022040F0A00088F8000019
:2060F00030460DB0BDE8F08FF0B504460846ADF16C0D401E70D0401E0DD0801E00F00981F4
:20611000401E00F0EF80401E00F0E180401E00F0AD80002042E142F2010007A90EF09EF9CB
:2061300042F20B0008A90EF099F942F206000DF165010EF093F942F207000DF166010EF009
:206150008DF942F2050019A90EF088F904A809F0E5FD06460DF1670142F209000EF07EF944
:206170009DF86700002808BF002503D0022010F007FA0546204607A9042211F0BBFC241D89
:2061900008A90222204611F0B5FCA71C9DF864009DF865309DF866109DF8674007F8010BCA
:2061B0009DF8672007F8013B2B4607F8011B610706F0070444EA916005F0030404AD40EA8D
:2061D0008410314607F8010B012400953846019406F0E4FA0A309AE042F206000DF16501A6
:2061F0000EF03CF942F207000DF166010EF036F942F2040019A90EF031F904A809F08EFD3D
:2062100005460DF1670142F208000EF027F99DF86700002808BF002303D0012010F0B0F9B8
:2062300003469DF864009DF8657004F8010B9DF8666004F8017B9DF867209DF867707907BF
:2062500004F8016B03F0030705F0070646EA916004AE40EA8710294604F8010B00270096FF
:206270002046019706F09AFA001D50E042F2150011A90EF0F3F813AF42F2160039460EF0C4
:20629000EDF815AD42F2170029460EF0E7F817AE42F2180031460EF0E1F8204611A9082207
:2062B00011F028FC083408222046394611F022FC04F1080708223846294611F01BFC0822E2
:2062D00007F10800314611F015FC202066E042F214000DF122010EF0C1F8BDF82210022076
:2062F0000A1258E009A80021202212F082F842F2130009A90EF0B2F809A812F07CF802469A
:2063100009A9204611F0F6FB09A812F074F880B244E042F20E0002A90EF0A0F80DF10A0162
:2063300042F20F000EF09AF80DF10B0142F20A000EF094F803A942F210000EF08FF80DF135
:206350000D0142F211000EF089F80DF10E0142F212000EF083F8BDF808009DF80B209DF87D
:206370000C709DF80D609DF80E509DF80A1004F8010B02F00102001204F8010B07F00100DE
:2063900042EA400206F0010042EA800205F0070042EA4012042004F8011B22701BB0F0BD1A
:2063B0002DE9F04FAA4C04F128000068ADF11C0D0EF090FD08B111F063F8A048DFF878B2AD
:2063D000DFF89082DFF87CA200689F4D059010F0C9FB10F00FFEE769A669B7F57A7F13D02E
:2063F000801B4FF47A720023A7FB00010AF0F4FA81464FF47A72002311F094FB3A460023C9
:206410000AF0EAFA301801E0A0EB0609A061DBF8000020F00200CBF8000068688047DAF8B9
:206430000010DAF804204E468919B1F57A7F0DD34FF47A73B1FBF3F3D218CAF804204FF4BC
:206450007A731F46B1FBF7F25A43891ACAF80010A9688847686800968047D8F804108919A0
:20647000C8F80410A9688847D8F8000000285AD007464FF00009686880470490BDF80200BF
:20649000002690B99DF8010078B99DF800003979884204DD0098796888420AD20BE09DF825
:2064B00000103879401A387108E000987968884201D3314601E07968091A7960B88878B963
:2064D000FB8853B9FB6843B13B8933B1B87A194609F080FBF8687860B88808B9FB880BB1A1
:2064F0003B896BB9B9F1000F04BF3868C8F8000003D03868C9F8000038683E46074601E042
:20651000B9463F68A9680498884756B1B3882BB9F3881BB9B07A318909F05CFB304610F02A
:2065300049FD002FA7D1DBF8000040F00200CBF80000E06828B3804723E016F8060C2169FF
:20655000A6F10C07032819D0E16A9DF806000978884210D116F8080C0FF056FFB979012989
:2065700003D0022908BFB07000E03070002031460DF042F805E010F083FF02E009B130465F
:20659000884708200727ADF80000696AADF8027068468847029E0028CFD0294800680088F2
:2065B000C8B1686880472649096800220E880A80A9688847059A00203146207090470646D0
:2065D000FF202070686880471D4909680A8816430E80A968884710F0C5FA0746B7F1FF3F43
:2065F0001CD0686807B9194F216AB94238BF0F1C80471C230646626AADF802300820ADF83D
:206610000000696A019268468847A16A3846491CA1620EF0B7FEA9683046884708200A2734
:20663000ADF800004FF0FF36ADF80270696A019668468847CBE6C04610E000E0400C000060
:20665000402E0020641D0020641800208EC2F528401B0020282E00202DE9FE4F0546287DAE
:20667000012807D195F917000DF06AFFB0F1FF3F00F016819548EF7B017895481FB990F89B
:2066900083208A4208DB012F03D190F882208A4202DBF120BDE8FE8F80462E6A95F835005E
:2066B000B5F8289095F83470AC8B4FF0000A5FEA060B029017D098F83C33002B2FD0D8F8E8
:2066D000541300292BD006F0FF008847D8F8541306B20BF47F008847361830B2001D00B220
:2066F000C83086B200E0C8260CB1241DA4B298F8E003012809D147B1764802993F1897F88B
:2067100004A0405C8019401D86B209EB040080195044801C80B210F081FB071C02D11A205C
:20673000BDE8FE8F09EB0A0033193881002C03EB070078600EBF0020B819801C0021782206
:20675000C7F8A40007F10C0011F053FE09EB0600FF2110220019A7F84C0007F13C0011F0EB
:2067700048FE07F12C000F21102211F042FE00243C707C707868696A2A8D11F0BBF907F129
:20679000840005F12C010B2211F0B4F907F19000294610F0EFFF6889A7F89A00287B87F836
:2067B0009C00687B05F10E0687F89D00326869460A60706848609DF800102046012908BFF5
:2067D00001209DF80110012908BF40F004009DF80210012908BF40F008009DF8031001291B
:2067F00008BF40F010009DF80410012908BF40F020009DF80510012908BF40F040009DF8F8
:206810000610012908BF40F080009DF80710012908BF40F48070A7F89E00A87D87F8A0006F
:20683000E87D87F8A10095F8380087F86C00AA8BA7F8A82022B1D7F8A400A96911F05AF9CB
:20685000A87F87F8AA00286AC7F8AC00B7F8A800C0B1D7F8A400A8B17868401E7860F82118
:2068700001707868401E78600470B7F8A810B7F8A8607868401A786038898019801C38812E
:206890007868B865B7F89E00410A16D395F83710052905DB00F0040100F00100084302D085
:2068B000E820BDE8FE8F08F1880630460AF030FF95F83710304610F0FBFE98F80000394616
:2068D0000CF09AFE2046BDE8FE8FC0462C1D0020080200203C0000002DE9F04142F2040028
:2068F000ADF1280D0DF123010DF0B8FD42F205000DF122010DF0B2FD42F2010069460DF0FA
:20691000ADFD8B4C8B489DF82310C4F8A80164204143C4F8A0118849C4F8C4119DF8221048
:206930004843C4F8BC018548854EC4F8E001B07888B342F203000DF106010DF08FFD10F0DE
:2069500025F905460DF1060029460DF051F82D1A9DF8220084F89B5170B1009860B104F5DC
:20697000DC700DF09BFB04F5BA7009F03DFD012084F8940184F8980142F202000DF1060150
:206990000DF06CFD0DF1060010F0F4FA04F5CE700DF084FB11E042F202000DF106010DF0B3
:2069B0005DFD0DF1060010F0E5FA04F5CE700DF075FB04F5BA700CF07FFE96F8FB030FF0BF
:2069D000DBFCC07B022804BF012084F8F40194F8F801002840F0A88004F128000021382279
:2069F00011F007FD0026A681E08900EB800080B2804610F0A3F804F12805074627610FB90F
:206A100011F0C9FC38463146424611F0F2FC4D484D4FE06305F1080067630DF03FFB42F28D
:206A30001B0001A90DF01AFDBDF8040001A9A4F84C0042F21C000DF011FDBDF8040001A964
:206A5000A4F84E0042F21D000DF008FDBDF8040009A920835D200EF003F89DF82400002884
:206A70000CBF301C012084F85C00B4F84C0038B100EB401080B210F061F80028606551D041
:206A9000B4F84E0040B1410001EB800188B210F055F80028A06543D0208B38B1C00080B200
:206AB00010F04CF8606108B911F075FC27490DF11A00082211F01EF801273546208BA8428D
:206AD00023DCB4F84C50668355B1606D4FF6FF720146A0F81F206D1E8E7701F12100F7D164
:206AF000B4F84E504DB1A06D4FF6FF71024681806D1ED67002F10600F8D1201D31460622C4
:206B100011F077FC84F8F8710EE060690DF11A01082200EBC50010F0EDFF6D1CADB2CDE7DA
:206B300011F039FC11F037FC0AB0BDE8F081C04660100020FD40010079CC00000983010065
:206B50000802002049B50000002A7515A0040000F0B500215022ADF15C0D02A80BF08CF83D
:206B7000F22016A911F0CAF98F4DBDF8580016A9A5F87000F32011F0C1F9BDF858000DF1E2
:206B90000901A5F87200E22011F0A8F9688DADF81200410806D305F11401096805A80160D0
:206BB000BDF81200810805D3291D098806A80180BDF81200C10807D305F1180109680DF1AF
:206BD0001A000160BDF81200010908D30DF11E0005F15401302209F06DFBBDF81200400954
:206BF00003D3286B1590EF6A14977048007800280CBF0121002101200AF04AFEBDF81200E3
:206C100041082CBF0F240B24810824BFA41CA4B2C10824BF241DA4B2010924BF3034A4B262
:206C3000400924BF0834A4B220460FF05BFE071C00F0B78005260DF1090100F8016B0A6875
:206C5000026049684160BDF81210083011F08EFABDF81210844648080BD3BDF8141060468A
:206C700011F084FABDF8161011F080FABDF812108446880807D3BDF81810604611F076FA30
:206C9000BDF812108446C8080BD3BDF81A10604611F06CFABDF81C1011F068FA8446BDF8E6
:206CB0001210434A9388080961D3BDF81E10604611F05CFABDF8201011F058FABDF82210B6
:206CD00011F054FABDF8241011F050FABDF8261011F04CFABDF8281011F048FABDF82A10D0
:206CF00011F044FABDF82C1011F040FABDF82E1011F03CFABDF8301011F038FABDF83210D0
:206D100011F034FABDF8341011F030FABDF8361011F02CFABDF8381011F028FABDF83A10CF
:206D300011F024FABDF83C1011F020FA194611F01DFA117811F01AFABDF8421011F016FADB
:206D5000BDF8441011F012FABDF8461011F00EFABDF8481011F00AFABDF84A1011F006FAD7
:206D7000BDF84C1011F002FABDF812108446480906D3149960460EF0C6FC15990EF0C3FCAC
:206D900005F11C01224630463B4604F0A5FA0820ADF80260074D01972968ADF800006846DF
:206DB000884717B0F0BDC046EC160020921A002010150020881800202DE9F0410D46904C11
:206DD000DFF84CC2DFF84482A188D128074613DCDFF840E2D12800F0A280713800F0E280C4
:206DF000401E00F0DB80401E00F0D280113810D04C3800F0AF8007E0D2387AD0401E61D0A4
:206E1000401E34D0401E2CD0384611F04BF8FF2802D1F420BDE8F0817A4C04EBC0042179AD
:206E300009B9E08860B1E088884208BFFB2000F0E5802A78914200F395809042C0F292808B
:206E5000714E706880472378628807464046A0F138015818294610F04DFEB1683846884712
:206E7000CBE0297802297DDA40466C1C6EE02888814277DD6746AA88D7F8DC32810086004E
:206E900001EB001106EB0016D7F8DC025A52E988D7F8DC3280190822418005F10801981903
:206EB000001D10F027FED7F8DC02A27A29698019C068D20010F01EFE297DD7F8DC0280198A
:206ED00001749AE02E882189304681424ADD6746D7F8CC022C24A91C102204FB0600153018
:206EF00010F008FE6969D7F8CC0204FB0600816283E029882289A8788A4233DD022831DA35
:206F1000DCF8CC322C22471C00EB410602FB01331F75DCF8D812022201EB460035E02A880C
:206F30002089698890421DDDE3888B421ADD704600682C2404FB02008489A142A4BF4C1C82
:206F50008481DCF8D40202FB03112C1D00EB810004221BE029882289A8788A4202DDE27A08
:206F7000824202DCE820BDE8F081DCF8CC422C23471C01FB020603FB01442771DCF8D01218
:206F90000A22700000EBC6004018EC1C254631E0002D32D0404608222C46F7E76DB37046B3
:206FB000103026E025BB27893FB3E588E47A00231A46DCF8CC0202FB04F6710001EBC601EE
:206FD000DCF8D0628919C150DCF8D41202FB05F601EB8601DCF8D8627F1E184403F12C0399
:206FF000816006EB820102F101020161E1D104E070460422294610F07DFD0020BDE8F08143
:207010002C1D00207401000064180020E804002008020020D40400208E492DE9F04F064640
:207030000822ADF16C0D15A810F064FD8A4C94F8F30106F1280A06F12807002800F007819C
:207050007078002840F00381FF20844B8DF818001D78F06C012105AA01F048FCDFF8009271
:20707000DFF8008228B99DF8180008B99DF81C5070BBB08900F00700022814BF04200520B6
:20709000B073B08900F00700032807D173684046001D01681878042800F09B8096F830001E
:2070B000022815D149468878012811D001F56A710D4606F12800022220310FF09DFE38B9D4
:2070D00005F116010DF13E0011F04FF90DF13E07706E002800F0BB80012102AA0AF0FFF8DB
:2070F000002840F0B4809DF80800B073F06C40B1394612AA0DF14A03FBF778FE002840F0A1
:20711000A6800DF14A000090706E394612AB06F0EFF8002840F09B804946891C087801281A
:2071300053D04FF4005013A90DF098F913A815A908220FF061FE30B113A8394608220FF0FA
:207150005BFE002841D194F8990100283DD0D4F88871B4F8846142F2010004A90DF07EF985
:20717000049900254FF00040E1FB0705D4F8900110F06BFE2D180498A84202D8761C2D1A92
:20719000B6B24746786880475FFA80F8D4F88001A84205D1B4F87801B04208BF00260BD086
:2071B000C4F88051A4F87861002084F875010FF061FF0126C4F88C01B968404688470EB1A7
:2071D0000BF00CF9012084F89801002084F899013DE0CDF85CA08847AB46234D0A274FF0B5
:2071F0000008CDF864A096F83090189014F809A0287A484505D11999524628460FF0FCFD4E
:2072100020B17F1E05F10C05F2D100E0A8465FEA08070FD194F870011349451C870084F863
:20723000705107EBC0077F18E8B20A2804BF002084F87001179938460A2210F05BFC09498E
:207250001898896887F80AB088470420B0731BB0BDE8F08FA004000060100020471A00208A
:207270000802002064180020581100202DE9F043071CADF1240D00F01381F86B002800F075
:207290000F81B7F84020002A00F00A81007817F130014FF0000603D097F83810052902D0FA
:2072B000002E00F0FD80DFF80482401E69D0801E55D07F4CC01E3DD0001F40F0F1807A4D2F
:2072D000A878002800F0EC806846314604220AF0D3FCB7F840002A78032840F0E180F86B36
:2072F000401C10F049FF434603F17C073988012A01F10101398009D0D988421A022A05DB9F
:20731000B3F87E108918491EA3F87E10D880E7782E70400808D2012F00F0C2800121E170A7
:2073300030460AF0B5FABBE0002F00F0B980E6703146F5E7012A40F0B3800725E0788DF8EB
:207350001C5000280CBF0121311C3046E1700AF09FFAE07802228DF81D0028460CE0012A52
:2073700040F09E804346B3F85C000122401CA3F85C0004208DF81C00394607AB03F0ACFF15
:207390008EE0684631460C220AF076FCB7F840000B285ED1FC6B14F8010BC14689F8280030
:2073B000204610F0E9FEA41C0346204610F000FC0546201D10F0FCFB8046387A4C4689F8FB
:2073D0002400022806D0396804F11C0001607A68426001E03888A08303F00100190928BF21
:2073F00040F00800590928BF40F010006085834218BF0226B5F57A7FADF8020016D32D486B
:20741000A84213D3E56210F0F5FB814610F0F2FB00EB092910F0EEFB00EB0920B0FBF5F1F6
:207430006943401A0A300EF047FF00E00226E06AB8F1640F019008D342F21070404504D3CE
:20745000C4F8308010F0EAFB00E00226206B029001E04446012602258DF8016068468DF8D4
:2074700000500DF0BDF903AE0DF10D009DF80110357010F07BFEBDF8021010F077FE0199A3
:207490000EF041F902990EF03EF939460D222846334603F021FFB4F86200401CA4F86200C4
:2074B00009B0BDE8F083C046B8170020EC16002010150020407E05002DE9F84F0746884852
:2074D000DFF8108235380068800880F0F3800FF031FA874908310B6800251C17641C990DCF
:2074F0000AD2C0F13E0110F10A0F4FEAE101D8BF08218C42B8BF0C1CDFF8DCE1990E10D231
:20751000590E0ED37246143A1168C1F304211629A8BF20391268C2F30462162AA8BF203A26
:207530000DE0694AD2F87C11C1F304611629A8BF20391268C2F30442162AA8BF203A091994
:207550009346162905DA11F10A0FB8BF6FF0090100E015215D4C5E4E01F01F0242F4F8522C
:207570002280326812F0030F18BF0125D20828BF45F002050FB145F00405424692F9074059
:20759000041B052C04DA9479AC4208BF918870D00F28A0F10F0A2BDB0AEB0014A4F1F00A13
:2075B0004FEA2A29B9F1070F88BF4FF007094E46062E88BF06265EF82670042404EB860411
:2075D000764634594FEA9508E41B04F0FF06EF0824BFC4F307273E444FEA550CAF0824BF0F
:2075F000C4F307473E446F0828BF06EB146605E000264FEA95084FEA550CB1465EF829E05A
:207610005FEA58070EF0FF0424BFCEF307273C445FEA5C0724BFCEF307473C446F0828BFE3
:2076300004EB1E64B6B2ABEB0101AAEB09277E43002906F1800604EB1624D8BF012103F0C8
:20765000FF0334264E43B1B259434FF6FF73B1FBF4F18B4238BF191C802889B2918005DA1A
:2076700010F1800FB8BF6FF07F0000E07F20D07195711A4800681F2910604FF0000008D3B3
:2076900040F2FF128A4206D24908401C8A42FBD301E01F219180134F114E0F39090940EA35
:2076B000C10047EA0001C6F8FB1F0025C6F8FF5FBDE8F88F0C490D4F424608200F60921D03
:2076D0001070BDE8F88FC0463C1100506E62084024220840302E00209C13005008200940B7
:2076F0003500094000E7A48030100940FDFDA400AC3F005001282DE9FE4F40F0EE80DFF88E
:2077100010B2DBF8DC00012840F0E4800220CBF8DC000FF01FFD01200EF0E2FB5FEA000802
:2077300005D00120CBF8DC000FF024FDD7E010F04AFE6C4902900020086001200EF036FF62
:20775000012818BF002003D100200BF017FC0120654900900020654F08603868112010F08B
:20777000F3FC00280CBF00240124102010F0ECFC08B144F002040F2010F0E6FC08B144F0C5
:2077900004040B2010F0E0FC30B1624814300068574E016B308888470A2010F0D5FC0026DA
:2077B00000B101264FF0805A0AF5DC75301C04D02868504E016B308888474F480126066013
:2077D0002868816944F0200088474C48066010F0B5FC00F001010191400814D2484810F00F
:2077F00072FC8146B9F1040FF8D0B9F1010F05D1DAF8D8014268424803219047414908685B
:2078100020F0030008600020FFF756FE2B683868986B8047019801280DD0B9F1010F05D147
:20783000DAF8D80142683648314690473549086840F0030008602C48066028684169204614
:2078500088470B2010F080FC20B12868284BC16A188888470A2010F077FC20B12868254BC6
:20787000C16A188888472448032206602349CBF8DC2000230B602868416B20468847012814
:20789000F9D1386804200EF02BFB044615481E490660386808688009FCD30098012802D1B6
:2078B00030460BF06BFB10F037FC08200EF018FB07460298CBF8DC6010F056FE1348008858
:2078D0000BF08AF80FF056FC57EA040018BF4FF0FF3804E06FF0040801E06FF0010840461A
:2078F000BDE8FE8F0C400940000222432C200940020A0000FE09000028200860800104432A
:20791000004003402422084014100940900B0000FC130020A40100102DE9F043044694F83B
:2079300030900F46984615468B20ADF1340D0DF10A0101F0A5F98A20694601F0A1F994F857
:20795000250000283FD1B9F1000F19D1BDF80A104FF6FE70884205DCBDF80A10884230D150
:20797000694615E0B4F844009DF80A608DF80E0000128DF80F00BDF80A008DF810601CE07B
:20799000B9F1020F0AD0B9F1030F1AD104F128010DF10E0010F0E9FC092612E0207CC00906
:2079B00034BFB4F84200B4F844008DF80E0000128DF80F00208D8DF81000001205268DF8A9
:2079D0001100002016E002280CBF05260926012818BF04F11C0106D189200DF11A0101F085
:2079F0004FF90DF11A0132460DF10E0010F082F894F826000DEB060148733A460DF10E0020
:207A100031460AF053FB002840F09380B9F1000F19D1BDF80A104FF6FE70884205DCBDF8A7
:207A30000A10884230D1694615E0B4F844009DF80A608DF8220000128DF82300BDF80A009E
:207A50008DF824601CE0B9F1020F0AD0B9F1030F1AD104F128010DF1220010F086FC0820ED
:207A700012E0207CC00934BFB4F84200B4F844008DF8220000128DF82300208D8DF8240017
:207A900000128DF8250004203E68814603A9822001F0F6F8BDF80C10B0898142D8BFBDF843
:207AB0000C00002845D007460024722029460EF02DFFB068BDF80C100019C8F80000008887
:207AD000814232DD2B68810001EB0011581828600146D8F800008278012A22D0C07840BB5A
:207AF000B9F1040F07D0091D0DF122000FF026FE012818D019E008884B888DF82A00042237
:207B10000DF122018DF82C3000128DF82B0018128DF82D000DF12A000FF0CCFB012802D0CC
:207B300003E0C07828B9002004E07F1E04F10404BBD1F3200DB0BDE8F08370472DE9FE4F0D
:207B50000CAF9946934604467D680291294603F03FFF061C00F0EC803888F082764F347522
:207B700097F83C0318B1012C04BF1520307506F1840029460B220FF0BDFF012C04D00D2C88
:207B90001CBF7068401C00D170683062002597F83C0335650028B5654ED0052C18BF012C69
:207BB00045D14FF0040A86F86BA0F08A86F86950C00934BF97F8CD0397F8F60359460A22AA
:207BD00086F86A0006F170000FF094FF9BF8080003282CD1032097F8D13302903BB3DFF8E4
:207BF0005C8108EB8408D8F8000010F47F0F0ED086F82CA0D8F8000006F12C01012200F484
:207C10007F003063304602F03FF9D8F8000010F0FF0F0CD02A2086F83C00D8F8000006F11D
:207C30003C0100F0FF003064304606F083FD97F83C0308B10D2C13D0009502994B463046AE
:207C50005A46FCF7F9F8071C73D1E41F012C03D8707E40F020007076304606F033FE68E015
:207C70000520364C86F86B0004F13400016811F0F70F18D02A2186F83C10BA78006806F13D
:207C90003C01012A00F0FF0030641CBF20F00800306497F8D10318B9306C20F002003064EC
:207CB000304606F047FD009502994B4630465A46FCF7C2F85FEA000838D12148066034899A
:207CD000756801A964200CF0CBFE1E4EA01C0DF1050187B206F170000780E9200CF0C0FEAE
:207CF0009DF80500012806D13C46C4F30220022140F0180006E0241D0421A4B2C4F3022099
:207D100040F0080005F8010D671A05F8014DB9B2F567AD1C284609F0AFFB9DF804000028E2
:207D30000CBF09480948C6F8B800B067474600E01A27F8B2BDE8FE8F08020020AC000000D9
:207D5000741B0020141600204E9055550E7A55552DE9F047064637680C465FEA0208ADF1E5
:207D7000180D14BF00214FF0FF3107F14800814610F086F8002818BF0B2040F0E680002501
:207D90007448FC60B8F1010F057007D0657002200EF04AFA06200EF047FA01E00120607046
:207DB0002078012840F29080801E012857D9801E01282CD9801E012800F2B88010F0F1FA11
:207DD0008246A078009021782846062908BF0120019001200290A068228A6368E16806F003
:207DF00011FB0746504610F0C3FB002F40F0A080B8F1000F02D00FF0D5FD02E030460EF096
:207E100091FB002800F087800EF096F921E010F0C8FA012782460097A168A2786068247849
:207E30002B46042C08BF3B1C07F03AFD0746504610F09EFB002F7BD1B8F1000F02D00FF0C5
:207E5000B1FD02E030460EF06DFB002863D00EF073F93F49C1F8B0510D60074668E010F09D
:207E7000A0FA8246E08A0090E0680190208B0290A0780390207D04900121059122782846E4
:207E9000022A08BF081CA368E178626802F07CF90746504610F06CFB002F49D1B8F1000FDB
:207EB00002D00FF07FFD02E030460EF03BFB002831D00EF071F9071C3AD1E078A168E28A4D
:207ED000236909F023FDC8E710F06BFA8246E08A0090E0680190208B0290A0780390207DB9
:207EF000049001200590277807B90546E1786268A368284602F0BEFA0746504610F038FB22
:207F1000B7B9B8F1000F02D00FF04CFD02E030460EF008FB08B9142017E00EF025F9071C8B
:207F300006D1E07821690CF031F996E74FF0FF37B8F1010F05D002200DF0B4FE06200DF0DE
:207F5000B1FE484610F03BFA384606B0BDE8F08750450240462E00202DE9FF47054668785D
:207F7000002840F0E98095F89A1002291CBF0329E82095F88F108029C8BFE82095F890102E
:207F9000092901DB0A2900DDE82095F8911009B1062905DB8029C0F2CE808A2980F2CB809B
:207FB000002840F0C98069480078884204D005F19101E82001F0A4FE05F19001E72001F0A7
:207FD0009FFE05F18F01E12001F09AFE05F19C01502001F095FEDFF87C8195F89A00022838
:207FF0000CD04FF6FE70A8F8C80305F1920108F2BE3010F0BAF905F1920604E005F1920653
:208010003088A8F8C80308F5FE7005F184010B220FF070FD4FF001090220A5F81690314689
:20803000287501A80FF0A6FB95F89E70B5F89CA0686805F19E01002FA0F1010068600CBF0D
:20805000002048464F780FB140F002008F780FB140F00400CF780FB140F008000F790FB127
:2080700040F040004F790FB140F0800069684A1E6A6008702F7D69680024481C2862781EA8
:20809000087028892C6598F83C33AC65801C002B288141D0042785F86940E88A85F86B706A
:2080B000C00934BF98F8CD0398F8F60331460A2285F86A0005F170000FF01CFD95F89A00DC
:2080D000032829D105F1700005F1920110F04DF998F8D10300B31E4E306810F47F0F0CD0AD
:2080F00085F82C70306805F12C014A4600F47F002863284601F0C8FE306810F0FF0F0BD068
:208110002A2085F83C00306805F13C0100F0FF002864284606F00EFB00942846832101AA48
:208130005346FBF789FE071C02D1284606F0CAFB381C01D106E0E8206870182028702846D4
:208150000AF0AAFB0090BDE8FF87C04603060020B4000000080200202DE9F04F754C6068CA
:20817000ADF12C0D002840F0E28004F178063068002800F0DC80DFF8C89109F1230000781A
:20819000022800F0D4806D4D281D006880470A90A06F074678B3684E4FF0000A4FF01D08AF
:2081B0003B7D0820711E11F8012F9A421ED0401EF9D16448394652460DF04CFA787E30F0F9
:2081D0007F0005D194F88300401E84F8830004E094F88200401E84F8820087F8018057F831
:2081F0000CBC384608F0F0FF5F4602E0BA4657F80C7C002FD4D1352008F0AAF8A9684E467C
:20821000002862D1452008F0A3F8A968002856D1684601A909F086FF4A48006838B1017D64
:20823000252904D050F80C0C0028F8D113E090B196F89801002838D00DF094F9042814BFA7
:2082500004210D21009F96F82B02401AB8421FD8012086F89501152008F07AF8A968A8B1D8
:208270000A98884760680DF10601703001F01EFA10BB96F82B020099884203D91C2002F014
:2082900063FA54E0002086F896010AE00A984DE0252008F05DF8A9680A988847002086F89D
:2082B0009501042001F09AFB41E0252008F050F8A9680A988847192001F0A8FE37E00A98BD
:2082D000884708200BF04AFD31E00A98884796F8F401B8B10EF0AEFEB18901B9F189326934
:2082F000491E89B201EB81018918D1F8011010F054F842F21071814292BF00206431081AF7
:20831000C0B200E000206968002808BF0620D9D0C6F8D80188470446D6F8E011D6F8D80136
:2083300006F5F4720DF056FCA968204688470BB0BDE8F08F080200209804000064180020F6
:2083500060100020800200202DE9F047044669480E4601681F461546ADF1380DBEB1B5B15E
:2083700030784FF0010808FA00F001420FD01046002104F0F1FC6660A56010F012F85E4D11
:2083900081462878022804DB484610F0F1F80020ADE0002861D103F0E5FD584908680DF1FB
:2083B000280A40F00200086050460FF007FE544E5449707852460C9005F1B4000DF096F8B7
:2083D000514905F1E80052460DF090F850460FF0BDFD30784D4A192153460B9005F13800CE
:2083F0000CF038FF4A4A05F154001A2153460CF031FF4849002205F1900013460BF026FEAB
:20841000454A05F12400042100230EF0BBFAB078012802D10E2006F08BFF05F178000FF069
:2084300007FC05F170000FF003FC002085F820004FF4FA72C5F824212875072185F8B8114C
:20845000E861364B1870C5F8282185F821000526A86033492E612878A96105EB8001401C61
:20847000C1F81C41C0B22870484610F081F81FB903AF38460FF004FC38682060B8694146F6
:208490002062388A61746082786800280CBF40F6C4100021E06021742248A061E061606191
:2084B000F86800B1A061786900B1E061B86800B16061A02204F12800002109F0DDFB04F16F
:2084D000400000210EF0E0F868460FF0AFFE1649029404F1780000226B460BF0B7FD1349BB
:2084F00004F19C0000226B460BF0B0FD20460EB0BDE8F087D4210840C02400200020094076
:20851000581D002025790100ADE50000E1370100A1160100C57101008D420100482E002017
:2085300079D700006BED000055750100398301002DE9FE4F984693460C4682460FF031FF98
:208550000290724806680CAF56450CBFD0F80490B1466F4D6FF00100B9F1000F019006D0A1
:2085700009F19C000FF0E2FC002840F0BE800EF0B3FB061C00F0C4800AF178000FF007FF68
:20859000B5F98C00F460DE46401C6FF31F30A5F88C009EF8043086F83630C6F80880B5F842
:2085B0008C00C6F810A05B4AB08697E8001806F118012023002703EA0C0C02EA0B0B81E855
:2085D0000018B84686F8377006F1200282E8800137637046F762026802B13263207B00F066
:2085F0000F00022804BFA068F0626268002A18BF002B76D120886FF30900B0F5305F18BFBA
:20861000022206D196F83700082240F0100086F8370006F1180090E81800394642EA03001E
:20863000214306F1180383E80300D5F84401824507D195F85001410824BF00F0FE0085F820
:2086500050013846CDF80080484528D05046494632466B4605F0B6FA8046B8F1010F04D12A
:2086700005F1700031460EF054FCB8F1020F0BD100990A6805F170001AB931460EF038FC3C
:2086900002E031460EF023FCB8F1040F04D196F8361000980EF09CFE38F0040004D105F1C8
:2086B000700031460EF024FC18F1020F10D018F1030F0DD0B6F9340096F83750019045F0F5
:2086D000800086F837008AF8C0700FF01FFB17E0B5F98C0000F6FF706FF31F30A5F88C001A
:2086F00006E05B1E1446DBB27FE76FF00200019095F8500140F0040085F85001C5F844A14A
:2087100002980FF035FF0198BDE8FE8FDC250020C0240020FFEFFF9F2DE9FE43DFF8C08191
:20873000704D0E46B00958D3444604F17C074DE00178D0290EDBD02909D181783970C178FC
:2087500079700179B97085687D60C168B9600FF0B2FB48E004F1500528600AF09DF82846CE
:208770000CF0B0FA3FE0884794F88410491E84F88410A9688847009801788DF804102065AF
:208790004378CBB1DC2B0DD0DD2B0BD0E42B09D0F32B07D0DE2B05D0DF2B03D0E82B18BF49
:2087B000DB2B0BD105F07AFA9DF80400162805D168460CF087FA01E00AF06EF89DF80400AC
:2087D000162803D004F150000CF07CFA38460DF05BF9002869680090C5D1F00BA94644465F
:2087F000C00305D0404F08F08BFE002800909FD1700905D32E208DF8040001A80AF04CF88A
:20881000700805D325208DF8040001A80AF044F8B00805D326208DF8040001A80AF03CF815
:20883000F00805D327208DF8040001A80AF034F8300905D329208DF8040001A80AF02CF80F
:20885000F00908D300208DF805002D278DF8047001A80AF021F8300A08D300208DF80500C2
:2088700030278DF8047001A80AF016F8700A08D300208DF8050035278DF8047001A80AF0F0
:208890000BF8F00A08D300208DF8050023278DF8047001A80AF000F8B00A08D300208DF82E
:2088B000050036278DF8047001A809F0F5FFE06CD9F8041080B18847E16C00270091D9F8B0
:2088D0000810E7648847009804F15006306009F0E3FF30460CF0F6F90020BDE8FE83C0465B
:2088F00008020020641800204C1D00202DE9F043894614460546ADF12C0D69460DF034F9AC
:208910005FEA000800F0C580AD1C0226284602A90BF073FB071C00F0BC809DF8090081459B
:2089300009D0ED19BF1908F10200BF1CAD1CBEB2B042EBDCADE0401E05F1020500F08D80C3
:20895000401E50D0801E33D0401E26D0401E20D0401E18BF622040F0AC80202F40F099809B
:208970002046294608220FF0C5F8083504F10800082229460FF0BEF805F1080704F110009A
:20899000082239460FF0B6F807F10805183408220BE0022F7DD1022207E0202F79DC204677
:2089B000002120220FF025FD3A46204629467DE0042F6ED12046294602220FF09BF8AD1CAB
:2089D00015F8010BA070287800F00100E0702878C0F3400020712878C0F380006071287815
:2089F0004011A07164E00A2F53DD0DF11200002116220FF0FEFC2046294604220FF07AF88A
:208A10002D1D201D022229460FF074F842F20B0004A90BF023FDBDF81000A188884238DCEE
:208A3000A81C10F8011BA17110F8011BE17110F8011B217210F8011BC1F3C202A2720DF151
:208A5000120200F08FFC20B39DF82700A0819DF81670E78104F1100025E0042F19DD0DF113
:208A70001200002116220FF0C4FC15F8010B207015F8010B607015F8010BA07015F8011BD8
:208A90000DF11202C1F3C2002071284600F06AFC08B967200DE09DF82700E0809DF816707D
:208AB000278104F10A0011220DF116010FF022F800200BB0BDE8F0832DE9FC41DFF8AC8154
:208AD0000026054688F8E962687D062803DBE82088F8E902687DA97D0E2905DD032803D0C4
:208AF000E82088F8E902687D032806D1B8F8540040083CBFE82088F8E90295F8280010B1DC
:208B1000E82088F8E902E87D092801DB0A2802DDE82088F8E902287E08B1062806DB8028C6
:208B300001DB8A2802DBE82088F8E90208F53A77294638460DF06EFA291D112207F12C00AA
:208B50000EF0D8FF95F8280008F53A74002804BF88F83063A87D04D095F8290088F8300370
:208B7000688DA8F82603687E88F82803A87E88F82903E87E822788F82A03287F98F8EB6383
:208B900088F82B0398F8FA3388F82C73384F88F82D6398F8FB23C8F80C73042688F810639A
:208BB00005F11D0188F82E3304F1490088F82F230B220EF09FFF98F8E90200284ED1687835
:208BD00000284BD1287E98F8EA728DF8000017B1EA2088F8E90205F11701E72001F090F85F
:208BF00098F8300328B1287E022808BF01208DF8000098F8FB039DF80010884203D0E820B4
:208C1000694601F07DF81B4C98F8EA32277867B9B8F8CE0318490880C3B1032B12D0052B3F
:208C300005D0012B03D0022B01D00FF08FFB022020700CF003F84FF6FF70A8F8CE030F49A3
:208C5000088005E00BF0FAFF032000E0012020702720287030460EF01DFB01E02A202870C1
:208C7000284609F019FEBDE8FC81C046080200202D800100782D0020121B0020AA19002071
:208C90002DE9F041694CA288054671380E46022840F2C880133828D0684F4C3800F0A6801E
:208CB000401E00F08C80401E71D0401E5AD0401E2DD0DFF88481401E1AD028460FF0F2F84D
:208CD0000546FF2D11D05A4C60688047594A0746E800115C801842884346C91830460EF072
:208CF00009FFA168384688470EE0F420BDE8F0813278022A80F296804146701C383101EB28
:208D1000820104220EF0F6FE0020BDE8F08131888A4240F38780D7F8DC22D7F8DC32880081
:208D30008D0000EB011005EB0115105AD7F8DC22B0805819408851190822091DF08006F1D3
:208D500008000EF0D7FED7F8DC12A27A30694919C968D2000EF0CEFED7F8DC024019007C05
:208D70003075D1E735882089A8425BDDD7F8CC122C24B01C102204FB051115310EF0BAFEF2
:208D9000D7F8CC0204FB0500806A7061BCE730882189814246DDD7F8CC22B5782C2101FB49
:208DB0000020007DA8423DDD3A463388B178D2F8D82201EB430102EB4101022230E030888F
:208DD000218981422EDDD7F8CC2275882C2101FB00208089A84225DDE28839463388748853
:208DF000D1F8D412301D03FB024288E730882189814217DDD7F8CC22B5782C2101FB00204A
:208E10000079A8420EDDE17A3A463388B478D2F8D02203FB0143590001EBC30189180A225E
:208E3000F01C6FE7E820BDE8F081C0462C1D00206418002074010000B00400200802002024
:208E50002DE9F84F6A4C074694F86101002800F0C880B4F8CE03B7F84210884240F0C1809B
:208E700007F128000DF01AFE002800F0BA80002594F8D10384F8615110B102200EF00AFAC3
:208E900094F8070210B101200EF004FA387C400905D310200EF0FEF980200FF0BFF82020BF
:208EB0000CF07EFB04F5067008F032FC7A685178107804F5027A00EB0120C0F30321C0F35A
:208ED000003684F85D11C0F3031384F8D43300F00F0184F85E6194F8F70384F862110F282F
:208EF00004D0884202DDD67806B9014684F8B51394F8B5B384F83852BBF10F0F09D194F823
:208F10005F0102286DD10CF04FFF06F011FEBDE8F88F38480078012802D00120FCF7B8FC43
:208F3000354E7068804780460EF0B4FB0CF090FD81462D4850F82B00206360630BF016FA03
:208F5000A16A48460CF07EFF0AF086FEB1684046884794F85F0102280FD1504608F0D8FBAC
:208F700094F8B52304EB4200B0F824014FF470719140091A50460DF02DFF94F8D463388924
:208F900029460AF095FEC4F854010F2E14D094F8B51394F85D01B14208D0401C6FF00F07B9
:208FB000B0408101A1EB8005ED1905E0401CB0408501A5EB8005A03DC4F85851022004F5EF
:208FD000A27584F85C01284608F0A2FB0748C4F84C01D4F8581128460DF0FCFE10200FF06D
:208FF0001DF8BDE8F88FC046E4000000891B010008020020491D0020641800202DE9F04FF0
:20901000ADF1240D079002F0ADFF604800780DF0DBF85F4D0024012806D90C3804D0401EFE
:209030000ED0401E09D006E00EF038FC022804BF01210C1C06D0696805E005211F2401E0E6
:20905000032107246960534A1068C0F38150012806D152F80C0C0127020E07FA02F004437B
:209070000EF094FF524AFF234018401E471C28607F1E02F8013BFBD1079A1268002702F01D
:20909000FF03FE2B20D0DDF81CC096463B4601260EF0FF02FF2A10D0904205D3914203D810
:2090B00006FA02F2144201D002206CE017430EF0FF02DFF8FCE00EF802305CF804EF5B1C15
:2090D0000EF0FF02FE2AE5D1092006F031F907980121A86005F128000DF0D6FA05F1980612
:2090F000A8464FF0010A4FF0040B0025A9460AFA05F0044216D1074204BF05F0FF0141F46A
:20911000C04104D02A480799405D51F82010224804F0EAFCE8B24FF0FF310EF0F7F9C6F849
:20913000009001E0C6F800B0D8F800006D1C361D8542DCD904A80EF009FF184C184A207808
:20915000102104AB059008F10C000CF083F868460EF034FFCDF80C906A466068114902906A
:2091700008F164000CF0C2F90F4951F80D0C20F4F85040F4005041F80D0C0C4FC1F8FFAF1D
:209190004846C7F800A009B0BDE8F08F492E0020E8120020B43F0050007FC767240C000024
:2091B00039750100255001000D300940080009402C130020F8B507466848B0F8542000215D
:2091D000930804D2B7F89E30DB0828BFE82112F0600F04D1B7F89E20920828BFE821604ED3
:2091F0003B8906F10E0212889A42B8BFE82197F89C5035B997F89850002D08BFF52100F0C4
:20921000A880002940F0A580D7F8AC5090F83C1315B9012903D026E0002900F0998097F864
:209230009840002C18BF032C05D1D7F8AC5045F00A05C7F8AC5015F0FF0F07D02A21D7F870
:20925000AC5087F83C1005F0FF01396415F47F0F07D00421D7F8AC5087F82C1005F47F0113
:20927000396390F83C13002449B397F89850426804216DB925223A754268D28AD20934BF15
:2092900090F8CD0390F8F60387F86A00801C08E015233B75D28AD20934BF90F8CD0390F886
:2092B000F60387F86A0087F86B100A2207F1700087F8694007F190010EF01CFC01E0012065
:2092D000387597F8A050B7F89E00FD7697F8A130F8827A683B7797F82C103A622546BD6530
:2092F0000F293D650AD0B7F8A80007F12C01224600B90122384600F0C7FD04462CBB97F8F8
:209310003C00FF2801D1B86D28B107F13C01384605F010FA0446C4B9009597F89C10B7F812
:209330009A3007F190023846FAF786FD041C0CD1F0893989884203DB384605F0C3FA04E0E3
:20935000E5207870384607F03FFF211C01D1F8BD1821384607F06AFCF8BDC04608020020A0
:209370002C1D00202DE9F04F154601F00708C1F3C2074FEAA119044683460C22ADF11C0D4C
:20939000002168460FF035F85FEA080034D0012879D101A8594603220EF0ACFBE41C14F8DC
:2093B000010B022200F00F0021468DF808000DF10A000EF09FFBBDF80A60A41C0721DDF8FE
:2093D00004C052486E754268624507D1027A9DF808309A4202D14289B24206D0491E00F12E
:2093F0000C00F0D10020014601E0017840788DF800108DF801001FE014F8013B14F8016B3D
:2094100041488DF8003007218DF8016010F80C2F9A4202D14278B24205D0491EF6D100202D
:2094300001460A4603E04268017A4089687501928DF80810ADF80A0003A806F06FFC9DF857
:2094500000009DF80110B8F1000F10D0B8F1010F19D10198049A9DF814109DF808604240AC
:2094700071408918BDF81600BDF80A2004E09DF80D309DF80C2059405040081803D1EF70ED
:209490001FB1022F07D000203BE0281D214602220EF030FBA41CB9F1010F27D0B9F1020F84
:2094B0002CD1BDF80A10281DC91DCA1021460EF021FBBDF80A00C11D04EBE104F0B1401EDA
:2094D000811000EB5171C910C9B249190E798210012700EB527222F00702801AC0B2401C15
:2094F00007FA00F0FF303040087107E0291D20460AF05AFD207804EB8004641CA4EB0B0446
:20951000A0B207B0BDE8F08FF8100020041100202DE9F84F0F4680460DF0A4FF4FF6FF71E4
:20953000814208BF682000F0B8805D4E440004EBC004A419D4F8026016B9D4F8065025B38B
:20955000D4F80610B14208BF692000F0A6806078401E13D0401E09D0801E16D13868864283
:2095700000F295808142C0F092800EE03888864200F28D808142C0F08A8006E038788642FF
:2095900000F285808142C0F08280464E7068804742F2020BDFF8109100904046A0EB0B00B7
:2095B00001282FD90A3801281CD9C01F49D1207862784D460021281800F5FE700EF019FF32
:2095D000637838460EF017FF05F5FE798342D8BF181C02DD38460EF00EFF2178024601EBD8
:2095F000090034E00DF0D2FAB668398888424CDD207862784D463946281800F5FE700EF07E
:2096100079FA28E00DF0C2FA0546384629460AF0EFF9B6682D1A5FFA85FABAF1000F34D0F1
:20963000207862784D463946281800F5FE700EF061FA5846404514BF85F89BA185F89AA133
:2096500009E0207862784D46281800F5FE7039460EF050FAB6680BF11900404504BF002007
:20967000A5F884020BF11A00404513D1B5F88472B5F88202C119322901DC07430AD102200B
:20969000A5F882023027A5F884720098B0476A20BDE8F88F0098B0470020BDE8F88FC04689
:2096B0002C05000064180020601000202DE9F04F80465F4C98F80800A7780D46ADF1140DAE
:2096D0000228CDF80C8014D1012F12D004F56A71404602220C4620310DF08EFB38B903204D
:2096F0008DF8080004F1160168460EF03EFECDF80CD02FB3DFF848B198F808904D4CDBF8F2
:20971000040014F809A080470A266427F8340490207A484505D15246204641460DF06CFB58
:2097300020B1761E04F10C04F2D103E00027EF72A07A2873DBF8081004988847002F73D004
:209750003C49DDF80CA04FF0000864278B468E6DB1F84E0085F81E804446D9460AE0BAF8FE
:209770000010761C2134B6B233E0B9F84E00641CB61DA4B2A04218DDF0780028F5D0B0885B
:209790000AF0DCFC514608220DF036FB0028ECD1F078A877308800046860B08885F80B80C8
:2097B000A5F81F00B07847462873DBF85440002F3AD085F81E8042F219000DF10A010AF082
:2097D0004DFE0DF077FC81461B480188642746468246B14228DDA07F0028C0D0B4F81F0092
:2097F0000AF0ACFC039908220DF006FB0028B6D1E07A022803D0E07A80B161270FE0BDF836
:209810000A000E4A6168424348460EF015FB28B9A07F6C2740F00800A07700E0474628462F
:20983000214621220EF066F9384605B0BDE8F08F0802002060100020AC100020808D5B00BC
:20985000641800202DE9F04F624E0546B07AADF15C0DC0000DF072F90C9001208DF8480029
:20987000E87D092205F118018DF849000DF14A000EF040F9584C6068804715900DF14601CF
:209890008120FFF7FDF9A87DA346A8B3012004278DF803004FF0000A8DF80470AC8A8DF8F1
:2098B00002A06946ADF80040D220FDF785FAB1464FF6FF78544616941AE0C0005246471855
:2098D0000A50A98AD420B98008A9FDF775FA02E04046ADF804008DF807A0A88A8DF806A010
:2098F0006946ADF80000D120FDF766FA641CA4B2B9F80600A0422FDCA88A00279DF84920EE
:20991000ADF838000DF14A018DF83A700DF13B000EF0F0F801200EA98DF84400D020FDF73E
:209930004BFA071C0FD1A88A29461022ADF808000DF10A000EF0DEF8286902A90790D320AD
:20995000FDF73AFA07460C980DF034FBDBF8081015988847F8B239E0A88AADF802406946C0
:20997000ADF80000D120FFF78BF90028B0D1BDF804008045ACD0ADF8200008A9D420FFF7C4
:209990007FF9002818BF0C9819D199F80A70002F04BF0C9950460ED00C993A4650460B4690
:2099B0009E88B04507D0B44205D0521E03F1080300F10100F4D187427FF47FAF08460DF0FF
:2099D000F9FADBF8081015988847192017B0BDE8F08FC0462C1D0020641800205A492DE935
:2099F000F8430F78002F40F0AA80604D574C584B8846012101286E6860701F6888F8001043
:209A100021D9801E42D0401E10D0401E30D0401E2CD10020F18A2071C90934BF95F8CD1337
:209A300095F8F613A1700EF011FB56E095F8FB030CF0A2FCC07B022802D1002006F0ECFBD5
:209A50000CF034FA49E00021F78A2171F90934BF95F8CD1395F8F613A17088B995F8AB03EA
:209A700070B10229C4BF0220A07009E00EF06EFC96F86900207196F86A00A07000276771F5
:209A900006F0DCFA686848BBBDE8F883DFF8C49099F800008600F86B8047D9F804103C2248
:209AB000401AB0FBF6F0B0FBF2F151432278401A9101A1EB8201091AF86B3C311FFA81F96E
:209AD0008047254906FB0900886691F86C0020F00F0040F0020081F86C0068681F49097865
:209AF00061B960B34168087800F02000E0708878A0710878800901D20EF068FB607803284F
:209B100018BF02281DD1164D68688047617802290CD014490F7817B913490F7837B10221CA
:209B300088F80010A9688847BDE8F883832188F80010A968884709F023F9BDE8F8830EF03E
:209B500005FCBDE8F883C0464F2E0020301C002070190020D01C002014160020472E002031
:209B7000641800204B2E00204D2E0020080200202DE9F843614C5A4D5A4EDFF870815E4F19
:209B900094F8E4100846401E0B2864D8DFE800F07B2C43062343062343067664042907D0BD
:209BB00001220A2945F8212C14BF0220032004E0202045F8210C0120024684F8E200002028
:209BD00045F8390C0827C5F8FF7FC5F8F37F45F8392CBDE8F883052914BF09200620002721
:209BF00084F8E400376075E094F8E170383D0120002FC5F81B0004BF0620002102D0002192
:209C1000F160032084F8E400032045F8010C3160306880085ED294F8E410334801270329C3
:209C30000ED00068456800216022052300914046A84794F8E400062814BF0A200720CFE7D8
:209C500000684568002160220523022000904046A8470420C4E7FEE72548264F002601250B
:209C700006600E203D6005F035F902200CF01AF884F8E45084F8E360BDE8F8830020386009
:209C90000C25786024E04FF08059D9F8A0010168202088472C3D0F2045F8010C41F61D5619
:209CB000C5F80360D9F8A401466800214FF4C0720723022540460095B047D9F8A401C668B3
:209CD00000214FF4C07207234046B0470120386084F8E45004F178000EF057FBBDE8F883F1
:209CF00039400C4038600C40A401001000A00C402C500C4004800C4034600C40FC13002063
:209D10002DE9F8435C4E80460F46B8F1450F08D106F50F74342220460DF0ECFEC6F8B04375
:209D3000A6E00DF064FBFF2808BFF42000F0A180524C04EB8004A07810B9E178002938D0A2
:209D5000E178814208BFFB2000F09380B8F1580F25D0B8F1600F1BD0B8F1E00F10D0B8F1C9
:209D7000E80F05D03A78904220DC91421EDB20E043493878097888421BD102F0FBFE77E006
:209D900097F900000AF0DCFBB0F1FF3F0ED010E038880A280ADBB0F5804F07DA09E03888D0
:209DB0008F2803DB47F60251814202DCE820BDE8F883344D686880478146207862783946D5
:209DD000301800F56A700DF095FEA96848468847404650384AD0801E2DD0401E43D08D3865
:209DF0003CD0401E1ED0401E35D0801F2ED00D383ED10E2096F829748DF8000017B11B20C6
:209E10008DF8000096F9EA139DF90000884203D0E0206946FFF774FF0DF012FC96F8290410
:209E300030B315E096F8EB030AF078FA01281FD01A20BDE8F88396F8D10318B902200BF090
:209E5000AFFB15E002200EF0D9F811E002F092FE09F0FAFD0CE00DF0E1FD09E096F9EA03D3
:209E70000EF017F804E00DF0E5FD01E00DF080FF0020BDE8F883C04608020020A003000092
:209E900003060020641800202DE9FE4F07461046002F00910CBFE8210021019100990029DE
:209EB00000F0AC800199002940F0AA8060B17868401E7860F82101707868401E786000266C
:209ED00006703889801C3881DFF83C81009C4FF000094FF0020BCDF80890C246083C14F86D
:209EF000080F00F00F010F2900F08580012821D004287AD19AF83C03002876D0DAF8541305
:209F100060688847061C26D03889B7F84C108019801C81421FDB7868DAF858C36168029B91
:209F30003A46801BE047B0B178683989801B8919786059E0009A029804254A44D21C12F89B
:209F5000011FFF2941D021293DD13989B7F84C300B318B4202DA1A20BDE8FE8F7968B8F871
:209F7000E433491E79601B120B707968491E796098F8E4330B707968491E7960029E0E7050
:209F900098F8E6137B68197098F8E23379681B01491E796043F00F030B7098F8D4C398F863
:209FB000B5337968491E796043EA0C130B707968491E796021260E707968C01D80B2491E84
:209FD000796005260E706D1EB9D17968C0F30122491E796042F088020A707968491E79608C
:209FF000087039890918891C3981BBF1010B09F108097FF474AF7868B86501E0E8200190C7
:20A010000198BDE8FE8FC04608020020F8B55A4C064694F83C03002798B1D4F8742382B1C5
:20A03000D4F8940368B142F21A0069469047D4F89403804728B19DF8000010B1E12E08BF91
:20A05000012794F8FB030CF097F9C07B02280CBF052501256068002800F08C80002E71D0D7
:20A070001B2E06D1017D052903D094F82A34002B68D0E92E27D037BBE12E15D10DF0E2FD13
:20A0900088B16068C18AC9080ED294F8DC13817694F8CA134A1C84F8CA2340688170284602
:20A0B000FFF79CFCF8BD60681C2E4CD1616A00294DD088473149002009786060012959D010
:20A0D000FBF7E6FBF8BDF1200DF06EFB6768B87E48B90DF0B7FD20B16068C18AC90832D201
:20A0F000D3E760682FE07868398907F0C5F978680088000905D394F83C0310B10BF0BCFEDE
:20A110006768F88AC00811D3387E00F07F003876387D032803D1787E40F004007876F02083
:20A130000DF042FB6068002188470FE014490126B87E0E70401EB876F0200DF035FB1148D4
:20A150000078ADE70026467007F03EF86068C08A000A0AD394F83C0318B994F8EB030AF0D1
:20A17000DDF894F9EA030DF094FE0020606010200DF054FFF8BDC04608020020491D002026
:20A19000472E0020311C00202DE9F04F884609AF4FF08051ADF11C0D92463D69059001F5F2
:20A1B000D8700490D1F8B001D7F808B04169069327208847514C4FF00309143CC4F884974A
:20A1D0000126C4F87C67C4F880970220C4F8FC06F868C4F8080430460EF0A3F8D4F80804E7
:20A1F0000008F8D2D4F88C07800F28BFB14654D2681E52460DF101010C238DF8000012F8AF
:20A2100001CB5B1E01F801CBF9D1022D19BF00210A1C9AF80C2000218DF80D208DF80E10D8
:20A230008DF80F10009AC4F83C25019DC4F84055029BC4F84435039DC4F848553D68C00490
:20A25000B8F1020FA5EB080506D3A8F1020340F2FE721A4040EA4250264A0243C4F84C2586
:20A270008846C4F85055BBF1000FC4F85485DFF888A0C4F858B512D0504606607868206049
:20A29000C4F808B030460EF04CF8D4F88C078008F8D3D4F88C07000801D3C84626E0C4F8C5
:20A2B0008497D4F88C0710F0030FFAD1D4F8800720F00200C4F880073F7D47B1049F386898
:20A2D000016A272088473868016927208847C4F87C670598C4F8806740B150460660069962
:20A2F0002160A560C0F800642162A562404607B0BDE8F08FC80104200000484218400240B0
:20A310002DE9FF410646880FC0F0A780002009F065FF53480DF042FE01200CF00BFF514A06
:20A3300040F60A01118000205080137B60F3030313735060537B4FF0010868F303035373F1
:20A35000B56868802B88A3F60207A7B141F21E03FF1A10D06B7E60F382036B76777C37B969
:20A370002B8B23F47C7343F434732B8313E02B8B60F30913F9E76B7C60F382036B74777CFC
:20A390002FB92B8A23F47C7343F4347302E02B8A60F309132B828E4670742F46AEF10701A5
:20A3B00001F1010C00E027467C6834B123889E4503D0994218BF9C45F5D17A602C4C7B7B76
:20A3D000241F60F303037B73236F33B1DB681B8899421AD06146994217D0338DB3B1F062E3
:20A3F00006F12801488096F8343060F3030386F8343096F8353068F3030386F83530516050
:20A41000517B60F30301517300E0A0602846694603F01AFD68460DF0B1FD0DF045FC12484D
:20A43000A06194F8210058B940460CF0BFF801280CD0787B68F3030078730C4EA66105E08D
:20A450000BF018F80028FBD00DF0B5FF28460DF0A5FD294640460CF051FC0090BDE8FF813D
:20A4700001010E04E82D00205D4500003D420100C42400202DE9F04F884609AF4FF080516E
:20A49000ADF1240D9246059038683D69079001F5D8700490D1F8B001D7F808B0416906937D
:20A4B000272088474E4C4FF00309143CC4F884970126C4F87C67C4F880970220C4F8FC06F1
:20A4D000F868C4F8080430460DF02BFFD4F808040008F8D2D4F88C07800F28BFB14650D20F
:20A4F000691E52460DF101000C238DF8001012F801CB5B1E00F801CBF9D1022D19BF002066
:20A51000021C9AF80C2000208DF80D208DF80E00009A8DF80F00019DC4F83C25029BC4F8A8
:20A530004055CA04039DC4F84435B8F1020FC4F8485506D3A8F1020140F2FE730B4042EA31
:20A5500043522549079D1143C4F84C158046C4F85055BBF1000FC4F85485204DC4F858B526
:20A5700011D02E6078682060C4F808B030460DF0D8FED4F88C078008F8D3D4F88C07000826
:20A5900001D3C84624E0C4F88497D4F88C0710F0030FFAD1D4F8800720F00200C4F880070A
:20A5B0003F7D47B1049F3868016A2720884738680169272088470598C4F8806740B12E6034
:20A5D00006982060C5F800642062079FA760A762404609B0BDE8F08FCC0104200000484216
:20A5F000184002402DE9F04F4C49DFF84081486891F83C23ADF1140D00284FD0484C494F65
:20A61000DFF824A1012A11D0606880473F7847B95246A16817782FB98323424613708847A4
:20A6300065E0A1680223424613706CE0894699F8FB030BF0A1FEC07B022804D14148C01CA9
:20A65000007805F0E9FD0BF031FC394D286A394E016CB06888478346606880473F780390DA
:20A67000002F47D150460078002843D1D9F8881300208847F42002A90AF0F2F92E4F9DF927
:20A69000080058451ADC7B79C3B9A16803988847D9F8886378787C79042801D00DF056FE3D
:20A6B00004214046641C0170E0B278710EB10320B0470320388102F0E3F925E083214046C1
:20A6D0002A6A0170536CB0686A4600219847B5F90600BDF90010884214BF002001200AF08C
:20A6F000CFFAA16803988847F8791449087008F047FB09E0022140460170A1680398884718
:20A71000D9F88813042088470D480078012802D00020FBF7BDF805B0BDE8F08F0802002038
:20A73000641800204B2E00204D2E00204F2E0020501900200C1B0020301C0020471A0020DF
:20A75000491D0020311C00202DE9F843514C80466068002800F09B80DFF83C91B8F1000FEB
:20A7700018BFB8F1E90F17D14D46AE892F690CF091FC06EB8606F619C6F80100A88995F875
:20A79000F521014601EB81017A54E989401C80B28142D8BF0020A881404D6868B8F11C0F3C
:20A7B00037D0B8F1000F0BD099F82300032807D1B8F1E10F04D0002089F8F201072000E030
:20A7D000052009F0CBFA676899F8230003280FD077B10020FE8A87F86900F00934BF94F8C9
:20A7F000CD0394F8F60387F86A004046FFF70EFC99F8970101284AD168688047044608F03F
:20A81000B7F8A96820468847002089F89701BDE8F8838047064661682148C98A0078891031
:20A830004A0805D294F88320824205DB490828D394F88210814224DA616804F178000CF0AF
:20A8500049FD6068C08AC00805D294F88300401C84F8830004E094F88200401C84F882003B
:20A87000A968304688476068007D252819BF012089F89601012089F8950100206060BDE812
:20A89000F883A96830468847F120FFF7BFFBBDE8F883C0460802002060100020641800209A
:20A8B0002C1D00202DE9FF4104466668A7680D460DF077FD3178012903D10DF059FE0020C3
:20A8D0008CE0012131700DF053FE287870706878B07068687060A868B060E868F06028697A
:20A8F0003061287D3075687D7075A87DB075A869B061287F3077687F7077A87FB0774FF08E
:20A910000008C6F82080C6F83080454675627563B562B56386F82C5086F82D50786804F021
:20A9300007FD204605F060F8204605F08DFE70B92C480068C16838688847786804F0CAFA35
:20A950000DF02FFD35700DF013FE2C4645E068460DF0FCFA0094387B234A0190B9686B46BC
:20A9700006F17C000AF076FC68460DF027FB00941E4938696A46029006F198000AF0B6FD01
:20A99000B07830B906F1CC0029460BF07DFE18483061707830B906F1E80029460BF074FE71
:20A9B0001448F06068460DF041FC01958DF800501149029406F582700A226B4609F046FB94
:20A9D000B969FA6906F13C000DF051FA0B4A06F16800042123460BF0D5FF20460090BDE8BB
:20A9F000FF81C046D001001069AB0000F1060100E7820100DF820100594901006D80010077
:20AA10002DE9F8434C4E84460120002430704B484D4D04704A48DFF82C81047005F1460025
:20AA30000088B14614EA03074FF0020606EA020608BF002E13D120464FF0E04710401F40EC
:20AA500008BF002803D11D2006F0E2FE4FE0454695F90000401E28700DF034F847E04246FA
:20AA700092F90030394E5B1E137043F20842824207D06F8D931C834203D0BA4218BFBB425B
:20AA900016D1304608300068826C60469047008843F6030181420AD004F0ACFD98F90000AE
:20AAB00000283DD098F90000002837DD3FE06F8DB5F8621043F60400884220D0B8421ED06B
:20AAD000B5F8462090421AD0B1F5505F05D0080B0BD31D2006F09CFE07E01D480168304684
:20AAF00001F5C071016004F053FA0CF0AFFF98F90000A8B198F9000000280FDD17E01548F0
:20AB10000078022810D003280ED004F073FD98F9000028B198F90000002808DC0DF016FC20
:20AB30002046FAF7B5FE02E0204606F071FE89F80040BDE8F883C046491D0020401D002064
:20AB50003F1D0020461D002014160020681900200C010021311C00202DE9F84F8046D8F86D
:20AB700008603068D8F80450076CDFF830B14764AB6B6A6C286C17F4F06F1946A0EB0209EC
:20AB900034D1F8091ED2780974D3B1B196F821205846801D845C601E814294BF1C1C641E4D
:20ABB000404621460AF08CFFA86B001BA86361D105F1980001210DF00AFC404649460BF0E5
:20ABD0003BFC57E00029F8D040460AF079FF95F82D10A86311B900284CD101E00020A8631E
:20ABF00005F1980001210DF0F2FB43E0F80A20D24FF0000A544602E0AB6B5B1EAB6393B1EE
:20AC1000404601210AF05CFF3068446814F00F04C0F804A0F0D0286B401E2863686B401E03
:20AC30006863A86BE8B905F1980001210DF0CFFB13E0306844680022202904F00F044260C3
:20AC5000CCBF4FF0200A9A46404651460AF038FFCAF120008145C8BF8146494640460BF0C3
:20AC7000EBFBEC77404607F01FFF726A12B1404621469047B8090FD3A96A69B10F464046D2
:20AC90000AF056FFA86238B996F820205946895C4046C91909F092FBBDE8F88F740A000070
:20ACB0002DE9F04705466C78ADF1180D002C40F08B804A48B5F89A100088884218BFE824C0
:20ACD00005F1900101A888460CF054FD444E01A80BF0E4FE30B995F89D0030B1707820B94C
:20ACF000E82471E0002085F89D00002C6CD195F89D0000280CBF0120052004272F7541468B
:20AD1000E8820DF10E000CF035FD686895F89C40401E6860411E6960B5F89A9004702B7D05
:20AD300069680024481C2862581E087028892C6596F83C23AC65801C002A288136D085F800
:20AD50006B7005F1700041460A220CF0D3FE95F8980005F1700A032828D105F1900150464C
:20AD70000DF003FB96F8D10300B31E4E306810F47F0F0CD085F82C70306805F12C0101224A
:20AD900000F47F0028632846FFF77EF8306810F0FF0F0BD02A2085F83C00306805F13C017C
:20ADB00000F0FF002864284603F0C4FC0094284603210DF10E024B46F9F73EF8041C02D109
:20ADD000284603F07FFD2CB16C701A202870284607F062FD06B0BDE8F087C046D605002064
:20ADF00008020020BC0000004E492DE9F843886F8D6F01F17809002800F091800646F06842
:20AE100040F6030220278846531C02E040687F1EFFB260B15FB101888A4218BF8B42F5D1AB
:20AE300031691CC828311CC189C881E88900AE68AA6A0027AF6236B395F8370000F0070005
:20AE5000401E0BD0401E06D0801E18BF002308D14FF0805304E04FF0804301E04FF0005399
:20AE70003A4695F83700000908D395F8370010F0070F03D04FF080703A430343AC68286956
:20AE9000B5F93410A0470DF08CFA0446B8F98E00401C6FF31F30A8F88E00484685F83770D0
:20AEB0000CF004F820460DF063FBB8F98C00B8F98E10884233D1286990F8C00000280CBFA3
:20AED0000520072006F060FB08F58E7128690E68864208BF4E6890F8C040002C0CBF046892
:20AEF0003C1C80F8C0704EB196F8C03023B93068A04228BF041C01E086F8C07064B1B4F11F
:20AF1000FF3F0CD00849286909687830B4FBF1F10CF038FEBDE8F88308200AF0DDFEBDE887
:20AF3000F883C046C02400203C2E00202DE9F04FFF25ADF1140D8DF800504FF6FF79ADF883
:20AF50000290ADF804900AF0FBFEDFF81CB104900BF1020000880027001F84B2082C64DB76
:20AF7000C8464646C246201F02A9082280B20BF0B3F8BDF80800814508D1BDF80A1089453A
:20AF900006D1BDF80C20924502D107E0BDF80A1051EA000314D1BDF80C308BB9BDF80E006E
:20AFB000C10BCB030AD100F108018C4238DA0CF0C5FF04980CF00CFB002050E0241F31E02F
:20AFD000C20BD3032AD1C20B28D3BDF80C3000F0FF02954203D1884508BF9E421ED0C5B295
:20AFF0008DF800508846ADF802801E46ADF804609DE80600384607F0E3FB78B9BDF80E2018
:20B01000A01A07F18851001F083280B292B20BF063F8BDF80E00C019083087B2BDF80E00A0
:20B03000241A083CA4B2082C9DDA09F07FFD3FB10C484FF088513A460DF0FDF80CF0CAFE76
:20B0500004980CF0C5FA5A46507800281CBF0020011C03D1C7F58054391DA0B2518005B04F
:20B07000BDE8F08F04E001006C1D00202DE9F04FADF1140D02921D460191DDF83CB00E9C06
:20B0900000900DF08EF9464A6FF0010800264FF0010992F8B8A1039009FA06F313EA0A0F9D
:20B0B00070D0B5F1FF3F18BFAE426BD1F0B20CF019FE002866D0877A002F63D192F8B8118F
:20B0D00083F0FF030B4082F8B8314F468772009D467292F8BA110560491C82F8BA11019B5A
:20B0F00003722D4F4760017A074601291BD0022921D140F203610182C37C90F90910491D4E
:20B1100061F30303C3746379817C63F3C7018174C17CA37963F34611C174C17CE37963F378
:20B130000411C17407E00A20388297F90900401DB874A0687861BBF1000F15D097F909109E
:20B150009BF800609BF80150144B4FF4A0604FF6FC7400EB012040EA461040EA850004EA88
:20B17000000143EA010000E00020B861029800B17860506808B93868506008F0EDF897F91E
:20B19000098002E0761C032E86D303980DF0F0F9404605B0BDE8F08F6BED000001000406D5
:20B1B000C0240020F0B5494D014695F807020027ADF1140D002855D195F8AA03002851D0AC
:20B1D000087ACF68C0F3021600F0070100E0BF1C0846411EC9B248B17A783878B5F8D243A3
:20B1F00000EB0220A042F2D102270FE005F56A74443400E008373046411ECEB2A0B32046F8
:20B2100039460CF09BFA0028F4D0032795F8070240F0040085F8070202A80BF053FC012093
:20B230000CF038F805F5FE718720FDF729FD05F501718520FDF724FD05F205218620FDF7CB
:20B250001FFD05F206218820FDF71AFD0120009005F5FE760196B5F8CE33394602AA05203D
:20B27000FCF76CFC002F2ED195F8B5030F282AD095F8D413814226D095F8D10318BB95F8D1
:20B29000560000BB12480078012802D00120FAF7FFFA104C6068804795F85F11022910D1C1
:20B2B00095F85C11FF290CD0696851B9A96F41B9A168884705F5A27006F02AFA06F05CFC47
:20B2D00001E0A168884705B0F0BDC04608020020491D0020641800202DE9F04F99469246E5
:20B2F0000C468046ADF13C0D0BF094FE434D3C2205F1100108600021684606F0BDFC20684F
:20B310006E4630606068706020893081207A032804D0022003248DF80C0002E003248DF8E6
:20B330000C40287818B105F134000CF0DFFDA88EADF80A0068781F28B4BF411C0021002722
:20B35000B8F1050F697040F080000BD0B8F1040F05D0B8F1020F08BF40F0600004E040F006
:20B37000200001E040F040008DF80D00ADF828A04FF0010BCDF8249021498DF80EB00A686A
:20B390000BA80260496841608DF8354005238DF83640B8F1050F8DF8343012D0B5F85E0086
:20B3B000B8F1040F08D0B8F1020F0FD1B5F86400401CA5F8640009E0401C80B2A5F85E006F
:20B3D00004E0B5F85800401CA5F858000D4918206A4613F0FDFEC0B258B1B8F1050F09D1D5
:20B3F000E86A0AF069FFB5F85800401CA5F8580000E05F4638460FB0BDE8F08FEC1600202B
:20B410002D080000696600002DE9F04F3F4E3E4FDFF8FC90F06807F1A801ADF11C0D8142C3
:20B4300006D1494691F90000002818BF002068D13A4D281D0068804705903648002400780A
:20B45000A7F8AA40002807BF4FF48607A046324F4FF02008306A416E02A88847A246AB462C
:20B470002F48344C0178CDF808A0890904D20078000938BF012000D302202D498DF80C00E2
:20B49000306A284A284B056D8DE88001106802AAA847DBF80810A7780028B0800D4603D515
:20B4B0000598884750462CE0494691F900001F4B1F4A002F00F10100087093F90000F2600B
:20B4D00000F10100187014BF80205046B6F84C10B4F8CE73B4F8D2334FF67F720A4010435E
:20B4F00001430822A6F84C1006F14F00A6F85A7004F57B71A6F858300CF0FCFA0598A8479D
:20B51000012007B0BDE8F08F1416002050190020471D00204405002000004F8C64180020E8
:20B530004C2E0020141B0020FB830100461D0020BC160020080200202DE9FE4F0BF0BAFDDF
:20B55000434C04F1280202901168E0624FF40050491C1160694608F081FFDFF8FCA0DFF806
:20B57000FC90B4F8520000285FD0A66DB4F84E0000254FF6FF7BA0462F4654E0B07F8008A3
:20B5900022D3B6F81F0008F0D9FD0146082268460BF032FCC0B1716802982E4A0CF04CFC23
:20B5B00090B9B6F81F00B77709F034FCA6F81FB0DAF800008047B4F8503013B15B1EA4F803
:20B5D0005030D9F808108847B8F84C006D1C2136ADB235E0F078800821D3B08808F0AEFD14
:20B5F0000146082268460BF007FCC0B130880104184A02980CF020FC88B9B088F77009F003
:20B6100009FCA6F804B0DAF800008047B4F8523013B15B1EA4F85230D9F808108847B8F839
:20B630004E006D1CADB2A842D4DCB4F8500048B1A046666DB8F84C0000254FF6FF7B2F4627
:20B65000A8429BDC04F1300008F028FDBDE8FE8F6010002000A493D668180020641800202C
:20B670002DE9F84F0AAF3D78984616468B4681460CF097FEDFF804A10324BBF1FF3F00906F
:20B6900014D15246D2F8801048460CF08FFC50B9D2F8841048460CF089FC00280CBF176FBF
:20B6B000D2F8847008E0D2F8807005E059464846002209F0FDFE0746002F58D097F8370088
:20B6D00030F07F0052D05446D4F88000B84216D0D4F88400B84212D042462B4648463946A1
:20B6F00005F082FB002841D0207D01283CD004283AD004F1B40002210CF069FE34E0D4F878
:20B71000800038B1D4F88000373002780121B14011430170D4F8840038B1D4F884003730BB
:20B7300002780121B14011430170002E14BF144814480BF013F975B197F8370040F00800C3
:20B7500087F837003E69C4F8446194F8500140F0010084F85001B8F1000F05D0216F42469B
:20B770002B46484605F040FB832400E0042400980CF0FEFE2046BDE8F88FC046C0240020AF
:20B7900001000204010001042DE9FF410546080B7FD3414C60680421026A2175D20802D35B
:20B7B000C369002298473D4904F1380000220CF0FEFD3B486768A0617968886808B9C8686B
:20B7D00010B138480CF0EAFB012008F007FD36480CF0E4FBD5F808800020A8F80200A96899
:20B7F0000A88A2F6020747B141F21E02BF1A04D00A8B60F309120A8303E00A8A60F3091299
:20B810000A8240F60A064246F11F01F1010C00E03A46576837B13B889E4203D0994218BF80
:20B830009C45F5D15060537B012666F303035373236FDB681B8899421AD06146994217D0E1
:20B850002F8DB7B1E86205F12801488095F8343060F3030385F8343095F8353066F3030307
:20B8700085F835305160517B60F30301517300E0E0604046694602F0E7FA68460CF07EFBF3
:20B890000CF012FA40460CF089FB414630460BF035FA0090BDE8FF81C0240020E571010053
:20B8B0005D4500005100070601010E04B0B5044645480078002800F0828094F88F00002853
:20B8D00071D13520207504F19101112204F170000CF010F904F13C00FF2110220CF089FD03
:20B8F00004F12C000F2110220CF083FD94F8900004F13C0500283ED0401E29D0401E14D018
:20B91000401E5AD12A20287002272764042305F8103C4FF410222263032184F86B1020460D
:20B9300007F058FC071C3BD137E02A200A272870042327644FF44C1205F8103C022122630F
:20B95000204684F86B1007F045FC071C28D124E02A2002272870042327644FF4102205F8F3
:20B97000103C01212263204684F86B1007F032FC071C15D111E02A2002272870042327648B
:20B990004FF4502205F8103C00212263204684F86B1007F01FFC071C02D1204602F092FFA5
:20B9B000381C0DD1B0BD01280CD10848D0F84C038047002808BF002002D0192000E0182072
:20B9D0000CF0EAF9B0BDC04644050020080200202DE9F84F05464448DFF8108181464619B0
:20B9F0002D3698F83C0334788A46B0B1D8F8541399B109EB8507386F00F0FF0088478346F9
:20BA1000D8F85413386F00F47F008847584480B218B131780818001DC4B298F8E003012867
:20BA30000CD19AF8080048B148449AF80970067919F807002418641DE4B200E000260D2DC5
:20BA500019D0A01900F1020A50460BF0E7F9071C1CD102200BF0E2F9011C09D04D4495F8AA
:20BA7000490008701A274F7098F8000007F0C4FD0020BDE8F88F04EB060ABAF1F80F01DDD2
:20BA90000CF064FC08F59A670AF1020A3846002152460CF0AEFC07F10C00002178220CF09D
:20BAB000A8FC07F13C00FF2110220CF0A2FC07F12C000F2110220CF09CFC38197860022D40
:20BAD0003E810BDB0B2D09DA7868401E78606D1E05703889641E401C3881E4B2A7F84C4067
:20BAF0003846BDE8F88FC0463C000000080200202DE9F843054628798028D4BF0020E82080
:20BB100069790027092901DB0A2900DDE820A97909B1062903DB802971DB8A296FDA0028E4
:20BB30006DD1394C94F8B5030F2868D0B4F8CE134FF6FF70884262D0B4F8C81388425ED0C3
:20BB5000E87901280BD040B1FF2858D194F85F01002854D10126374602E0012600E0022641
:20BB700004F50670814605F0D3FD04F5027005F0CFFD04F5A27005F0CBFDDFF8908008F1E6
:20BB900004000068804784F85F6166680246FF210020C4F85801002E84F85C110CBF0121B7
:20BBB000011C84F86111012F84F8607108BF032084F838024046816810468847A91DE820EB
:20BBD000FEF79EF8691DE720FEF79AF8291DE120FEF796F894F86101012802D120200CF0C6
:20BBF0000DFA084894F8B5134FF47077C4F8200207FA01F000F2636148460BF059FDBDE856
:20BC1000F883C046693E010008020020641800202DE9FC4705466E68D5F80880B76B002F05
:20BC300018BF4FF0FF307DD131630024F477171C74631BD006F13C090CF0B3FB82466946EC
:20BC5000484609F026FB00281ED450460CF090FC9DF80000316B0870306B736B7F1E00F144
:20BC70000100306303F101007063E5D17078726B316B0128A1EB0201316303D1F368284658
:20BC90009847726B14464CE0B76350460CF070FC0CF087FB244D0746287820B902200AF069
:20BCB000C3FA0120287038460CF062FCD8F80010086B40F400700863D8F80010886B40F4BD
:20BCD000FA608863707808BB716806F1E80738460CF0D6F8B8B1B463384621460CF0D0F834
:20BCF00088B10CF05EFB0746287818B1022009F0D9FF2C7038460CF03BFC1027716B306B02
:20BD1000F777401A3063706BBDE8FC8796F82D0038B1706B28B1B46306F1980001210CF099
:20BD300056FB2046BDE8FC87442E002070B50546434C2878ADF1200D002858D1B4F84000DB
:20BD500004F150066B88ADF800003146ADF81030E2200CF0C3F80DF1120031460CF084FADA
:20BD7000698853200BF046FDB4F8400004F146063146ADF80E004A200CF0B0F801A831468C
:20BD90000CF072FA00268DF80D60B4F84400ADF8020094F842308DF80C3030460AF0A4FAAF
:20BDB000522031460BF01AFD94F858000F2807D00120A070B4F8441020704B200BF01AFD48
:20BDD000606928B102681AB10DF10E0069469047032007F009F894F85A00032818BF0428BB
:20BDF00027D104F10A0010210BF0EDFE21E0154E01280FD002280DD00020A0700BF0FEFF8A
:20BE100041F288300AF070FAB6F85600401CA6F856000EE005200BF0F1FF062006F0E4FF72
:20BE3000B6F856000021401CA6F8560052200BF0D5FCA16E09B12846884708B070BDC0464E
:20BE5000B8170020EC160020FEB50646434C3178B4F86800E1292FD0B4F86A00E92926D04F
:20BE7000B4F86C00D9B93E4D30696F6A02903FB37F692FB3A96A1931814221D806208DF8F9
:20BE900000000422ADF802200023ADF804309DE8030002ABB84708B90298A86210E0401CC4
:20BEB00080B2A4F86C002AA00CF047FA08E0401C80B2A4F86A0003E0401C80B2A4F8680040
:20BED000717831F07F0042D001F0600040282AD1307840BBB4F85A002569401CA4F85A007A
:20BEF0000BF098F8854203D80BF094F8401B03E00BF090F8401B401EB4F8827080B26421AF
:20BF1000B0FBF1F080B2B842A8BFA4F88200B4F85A10B4F880304A1E02FB0300B0FBF1F06E
:20BF3000A4F88000717801F06001202906D1307820B9B4F86000401CA4F86000602906D135
:20BF5000307820B9B4F86600401CA4F86600FEBD64617461436E663A2000C046EC160020F2
:20BF7000101500202DE9FF47424C94F8E70000286ED10127384E84F8E770F07C84F8E60059
:20BF90007568C4F8105168460CF050F9002504F10C0001956B468DF80050304902952A46E2
:20BFB00008F054F82E4904F130006B462A4608F04DF82C4904F154006B4681462A4608F095
:20BFD00045F8B16838468847DFF8A4802648327D08F104030078254E1868C0F3815A22B1CA
:20BFF000BAF1030F04D184F8E170BAF1030F15D0BAF1020F12D0BAF1010F0CD002200AF0DF
:20C0100013F904200AF0D2FA012804D030683221B1FBF0F10DE009F087FA12E002200AF030
:20C0300003F9BAF1030F0CBF4FF47A7142F210713068B1FBF0F148460CF0A5F948460CF0B2
:20C05000A4F940460068C00802D228460AF0ECF800200090BDE8FF87800B0000AFF8000050
:20C0700089FC0000F12B0100492E00203C2E0020B03F0050FC1300202DE9F041414C054660
:20C09000207800287AD0B4F98E00B4F98C1088421DD004F1700128460E460AF0DDF870B92B
:20C0B000D4F8801028460BF081FF28B906F1080128460AF0D1F801E0D4F8800038B1B0F95A
:20C0D000341000224FF0E043284600F035FF0CF068F9804604F58E700168A94219BF00268A
:20C0F0004660002606602078401EC0B2207088BB6560207D02280ED1082009F0EDFD4046C7
:20C110000CF036FA05F140004FF0FF310BF0B8FE0CF047F9804604F1B4000CF052F904F1A6
:20C1300038000CF03CF904F1E8000CF04AF904F154000CF034F904F190000CF01EF904F16B
:20C1500024000BF027F80E480078012802D10E2002F0C0FE606805F14007854208BF666090
:20C1700040460CF005FA38460CF027F905F178000CF003F905F19C000CF0FFF8BDE8F08193
:20C190005A1D0020C02400202DE9F04F414F06460020ADF1140D0390786888468047384D57
:20C1B0000490286A354CC36CA068042103AA984768460BF06FFDCDF80880DFF8D0B0DFF850
:20C1D000D0A0DFF8C080009626F0010628F00108B04518D02C4820F00100B04211D19BF92A
:20C1F00000102B6AA06811F1020F08D059469A6B91F900109047812818D12B6AA068DB6A0E
:20C2100018E00CF0A3F85146A0682F6A91F90020814612F1020F0BD0BA6B91F90010904751
:20C23000812804BFD4F808902F6A01D00CF08EF8FB6A4846694600229847002818D4B04586
:20C2500007D0114921F00101B14204BF5946087001E05146087001202F6A0390A068FB6C11
:20C27000042103AA98470B4904988968884701E00CF06CF805B0BDE8F08FC0460C1B0020E6
:20C290005019002001E00000B1C500003D1D00203C1D0020641800202DE9F04105463E4807
:20C2B00004780F46002DADF1280D42D03B48466A002F3ED08046D6B17069C0B1062001233A
:20C2D0008DF8000029460C22ADF8023002A80023ADF8043003F0EEFF05A839460E2203F080
:20C2F000E9FF76699DE803001A2202ABB047787B012668B9002C14BF0FA013A06988102240
:20C3100008F002FA397B13A00A2208F0FDF908E0002C14BF12A017A00BF084FD19A00BF018
:20C3300081FD88F802600020314605F0B1FA88F803600AB0BDE8F081526573746172746559
:20C35000643A20307800C046537461727465643A203078004368616E6E656C3A2000C0466F
:20C370004465766963652052657374617274656400C046C04465766963652053746172744B
:20C39000656400C04672657175656E637920486F7070696E6700C046EC16002010150020F0
:20C3B0002DE9FF473A4CA11D0888401C08803949082268460BF09EFB0AF07CFE4FF00008B0
:20C3D0004FF6FF7746464546824618E09DF80830616D2BB902EB421040184068010403E015
:20C3F00002EB42104018416850460BF0D6FF804503D29DF80890804616466D1CADB2208B0B
:20C41000A84238DC254D281D006880478046B4F85200B9F1000F0DD1A26D7100002301EB3E
:20C430008601401E8918CB708A888F8080B2A4F852000EE0606D06EB461600233618B37747
:20C45000B6F81F20A6F81F70B4F85000401EA4F85000114867690088121A91B2082207EB30
:20C47000C10069460BF046FB608BA968401E60834046884708E0284602A904F0F9FA02463E
:20C490009742A3D10BF087FF0090BDE8FF87C04660100020A0040000301D002064180020C0
:20C4B000F8B53D4C04F1700528680026074680B1D4F8840090B9D4F8800088B1D4F880101E
:20C4D00038690969884209D197F83700400905D306E004F1B40002210BF079FF002E5AD031
:20C4F00060683969884250D1684607F031FB58B1009848B1D4F8800030B9D4F8840018B916
:20C51000082009F0E9FBF8BD08200BF037F897F83700400905D228460AF0C8FCC4F88000B1
:20C5300004E028460AF0C2FCC4F8840007F1180003C81A49C4430B1F1C601A681042FBD116
:20C550000A6810430860F869C04341F80C0CF86951F8082C104341F8080CF86804460AF0C7
:20C57000FDF92088A0F6020040B141F21E01401A04D041F6E671401A012803D80120214690
:20C590000AF0BCFB09F0A0F9F8BD04F1B4004FF480610BF01CFFF8BDC0240020141004408F
:20C5B0002DE9F84F3D4C3A496FF00100383CA76B08703E1C69D0012136487268256BDFF830
:20C5D000D890017095420DDB002F824655D009F023FA796888424ED3A56B002D4DD06E6885
:20C5F000002E01D50BF0B2FE95F80C80AF6809F013FAB0420DD2A06B30B1216B4068814292
:20C6100002DD09F009F838E00BF044F80020A06333E04E46301D00688047834604F12801B5
:20C6300028460AF002FF20B904F12C0128460AF0FCFEA06BA84218D10025A06AA563854248
:20C650000BD0216B4068814207DD09F0E5F9A56A69688842C8BF6860A563E36A2BB11DB145
:20C6700068685968884200DDA363B168584688474046B847B0E707F0EFFA4E4670688047B7
:20C69000B168884700208AF80000BDE8F88FC0463D1D0020491D00206418002040020020D0
:20C6B0002DE9F0478046D8F80450D8F8087091460E460BF076FE82463868006B400A63D2FF
:20C6D00005F582700BF063FE0024EC772E6250466C620BF04DFF0BF064FE2F4E33788246F3
:20C6F00023B9022009F0A0FD0120307050460BF03FFF3968086B40F480700863404649464E
:20C7100009F016FAA862C0B94046494607F056FEA878C8B9A96805F1CC000BF0B1FBE0B171
:20C73000AC621020E8773946284605F083FC0BF038FE8246307838B322E03968886B40F099
:20C7500020008863A87810B12046BDE8F087A96805F1CC000BF094FB10B9686ABDE8F08747
:20C770004046494607F02AFE1020AC623946E877284605F05FFC0BF014FE8246307818B155
:20C79000022009F08FFA347050460BF0F1FE4FF0FF30BDE8F087C046452E00202DE9F04157
:20C7B00006AF3D793E68984604460B1CADF1180D074611D0012B15D130797379641C387049
:20C7D000B17904F8013B337A04F8011BB17A04F8013B7389181201E03178707804F8011B0F
:20C7F00004F8010B8AB9002D0CBF42F20C0042F20D00694607F032FE9DF80000BDF8003015
:20C8100004F8010B181204F8010BB8F1010F34D0B8F1020F39D1002D0CBF42F2020042F2EB
:20C8300003000DF1020107F019FE7589CDB1681E01468B100DF1020201EB5371C910CBB2EA
:20C85000811000EB517121F00701401AC0B20121401C01FA00F0D15CFF3080F0FF00084326
:20C87000D054E81DC2100DF1020120460BF042F97089C01D04EBE00407E0002D14BF02215D
:20C890000121204602F062FF2418E41B06B0A0B2BDE8F0812DE9F04390460A68D8F80040B3
:20C8B0001678814600271D463846ADF1140D531C242E0B6053D112F8016F5B1C4C2E0B6026
:20C8D0000ED1AA68E41C24F00304241D54F8040C494606F0C1FE2968EF600127091A2960A7
:20C8F000462E1AD1E41C24F00304241D54F8040CE41C029024F00304241D54F8040C0027A0
:20C9100049460390AA68ADF8047001A802F074FF2968EF600127091A2960532E1FD1E41C87
:20C9300024F00304241D54F8040CE861C8F80040288B0090A968EA69D9F800004346F8F7F6
:20C95000B1FCD9F80040002714B12418C9F800402968D8F80040091AEF6001272960662E88
:20C970000AD12B8B23B9E41D24F00704083403E0E41C24F00304241D1FB9E9690E700127CF
:20C99000EF60C8F8004005B0BDE8F0832DE9F04117460D460BF005FD384C8046207D8326E7
:20C9B00035B16D1E61D06D1E59D0681E0CD009E0D4F88000002808BF802659D0D4F8800070
:20C9D000808E54E0032653E038680021C822054605F052F9022704F58E7C04F596722946D7
:20C9F0005CF8040B486053688B60107A087452F80C0B7F1E1844C86001F11401F0D1D4F85A
:20CA10008000002808BF022012D0D4F880000069D4F88070E86297F83600D4F8803085F81A
:20CA30003800D86AD4F880202863106B68630320276FEFB10A281BDA3A69810001EB00118E
:20CA500049194A6097F836200A74FA6A8A603A6BCA603F68441C60B2002FEBD108E000212D
:20CA7000022808BF0121397002E094F8B801388040460BF07DFD3046BDE8F081C024002080
:20CA90003B487CB500F134021178002565F30301324E117090F86C10056365F3030190F850
:20CAB000382080F86C10012161F3C30280F8382090F8382061F3041280F838204FF4FA5266
:20CAD0000264308908B931810846274C2549244B097894F83C23083148431978002A01FB2F
:20CAF00000F0009035D0D4F87C23002A31D0D4F8800300282DD0F11D684690473179B3782F
:20CB100062681A4E65281AD0A8B9107D052820D194F8D103E8B9606890F82C00211D042869
:20CB300017D10968D4F85843906D096B2B46A04778B91A2000E03570FDF768FA7CBD82F863
:20CB5000691082F86A30D4F8801335701C2088477CBD009809F0DEFF7CBDC046301C0020D7
:20CB7000D01C0020451A0020080200204F2E0020141600203EB503208DF8020005218DF8C1
:20CB9000031000248DF8054001208DF8040030208DF807004FF4FA50ADF8000008F0E2FCF6
:20CBB000042807D18DF8021008208DF8030014258DF8075029499DF802000978884204D0DD
:20CBD0004F200DF10201FDF79BF8254D9DF8030095F8D913884204D057200DF10301FDF7C0
:20CBF0008FF808F0BFFC032806D1C0208DF807004FF4FA43ADF800309DF8070095F8DD130F
:20CC1000884204D05A200DF10701FDF779F8BDF80000B5F8DA13884203D058206946FDF77A
:20CC30006FF895F8FB0378B902208DF804000B258DF806400B498DF805507D230B80E720BB
:20CC50000DF10601FDF75CF8F72001A9FDF758F8E1200DF10501FDF753F83EBDD505002039
:20CC7000080200203A1D00203EB542F2050002A907F0F4FB9DF80800002864D042F2010018
:20CC9000694607F0EBFB304D95F89401002836D020200AF08DF89DF80800002464229DF890
:20CCB0000810C5F88001009B85F89441581A02FB00F105F5DC70C5F8BC1107F0EFF92548A5
:20CCD000007868B995F8960130B920480078002839D106F069FF3EBD10200BF09FF93EBD75
:20CCF00001A808F0B7F895F82A020199451EB1FBF0F24243891A01918D4224D917E09DF87E
:20CD1000081064204843C5F8BC0105F5DC7007F0C5F9B5F878010124401CA5F87801002387
:20CD3000C5F88031202085F894410AF0B3FA084991F8D113204621B94FF400700BF066F931
:20CD50003EBD07F00BF83EBD601000204A1D002008020020D9050020F8B501460888A0F67A
:20CD7000020058B143F20402801A04D0401E64D191F8246000E00226CF6901E0CE7B4F692D
:20CD9000002F5AD000213C1F052244F23805084654F8043FB3F1FF3F4FD01B041B0C9D4211
:20CDB00006D0521E01F1040100F10100F0D144E08446BCF1050F40DA7A58224B3046C2F340
:20CDD0000344401F17D01E49401E0FD0001F0BD0801E07D0C01E0AD00F381ABF191C603105
:20CDF000091D04E0091F02E0083900E00C390868C0F3834003E019460868C0F303200F2804
:20CE100006D0A04217D922F4702242EA004210E0761F0AD0761F08D0761F06D00F3E1CBFE5
:20CE300022F4702242F4802203D122F4002242F4E02247F82C200020F8BD0120F8BDC046E2
:20CE500004110050201300502C4870B50568B5F1FF3F08BF00250AF02FFB01284DD108F0A1
:20CE700099F8142849DB26482649002601230660254A0B60254C136020680028FCD1264A79
:20CE9000131D2349186820F00300014321480068C0080CD2106810F0030F0AD041F0030000
:20CEB0001860106800F003000328FAD101E041F001011A481960006820B11948006828462A
:20CED000F5F700FB174818490660184D0A686FF35B4245EA0200086015490868C0F3013014
:20CEF000012806D10A681348104040F400320A60086020680028FCD170BDFEE71C130050BF
:20CF1000840460425C600C40082204430C00684204000020B03F00500040034080012843D6
:20CF3000000120438C210840482003400000390104000940FFFFFCFC2DE9F843994690465A
:20CF500004460E1C44BF0020011C68D40BF03BFA054631468022204608F0AAFA071C04D044
:20CF700097F8370030F07F0003D128460BF0FCFA53E097F8370010F00F0F46D100200A2190
:20CF900007F1200640EA090941EA080896E8030008EA000019EA010608BF002820D0284622
:20CFB0000BF0E2FA07F1200003C804F1700604F1700508EA000809EA010986E8000395E8ED
:20CFD0000C0007F1200696E8030007F120059943904385E80300703494E80300BDE8F88317
:20CFF0001048B968884202D0B968A166B86004F1600080E8000328460BF0B6FA04F14000BE
:20D010004FF0FF310AF03CFFE5E728460BF0ACFA97F8370010F00F0FFAD102200021BDE8EA
:20D03000F883C0463D38010038482DE9F0410068C06B8047044606F04FFA354F06463846F1
:20D05000DFF8D08001788F0006FB07452E4C04F150021178022363F30301117041464A78B1
:20D07000E564083292B207FB025294F8345063F3030584F83450226394F86C200746002506
:20D0900065F3030284F86C200AF098FC28B17868216B884238BF012300D32B4698F801107E
:20D0B000387823B91C2004F0B3FBBDE8F08194F8502094F834302F4665F3030284F8502036
:20D0D0000831E76423F00F0242F003028FB2830084F8342003FB07F1216394F83820A4F8D3
:20D0F0004650704301274FF4FA5167F3C30284F8382094F83820216467F3041284F8382081
:20D1100009F008FDBDE8F0811416002070190020D01C0020441A002039492548C1F8700254
:20D130002448C1F874022448C1F878022348C1F87C022348C1F88002304AC1F8E421C1F86C
:20D15000F4212048C1F884021F48C1F888021F48C1F88C021E48C1F890021E48C1F8940245
:20D170001D48C1F898021D48C1F89C021C48C1F8A0021C48C1F8A4021B48C1F898001B4892
:20D19000C1F89C001A48C1F8A0001A48C1F8A4001948C1F8A800002081F8040281F80702CD
:20D1B000022081F8E801012081F8F8017047C046697F0000153E0100C54B0100DD4201001E
:20D1D000F12F010081590100316D0100094C01009938010065510100157A01001D16010001
:20D1F000ED550100757A0100ED7F0100357601002108010055300100F38301002D800100FE
:20D210000802002070B5394D064695F8EA02ADF1180D80B995F82C0382280CD03148006845
:20D23000314C016C2068884709F0D6FC95F82C13D5F80023505495F82C03822814BF401CDD
:20D25000002005F53A7485F82C0395F82C0304EBE00292F82C00411082F82C10400807D2DF
:20D2700095F82C03401C85F82C03C0B28128ECDB95F82C0381282EDA04F14401E120FCF75D
:20D290003FFD02204FF6FF738DF8100095F8EA12ADF8083031F0020019D0012919BF072039
:20D2B00083210820802100224934009202AA0194FAF744FCDB2807D0E52805D0F32803D0A4
:20D2D000DF2818BFE8280BD185F8E90203E0304604F014FC04E02A203070304605F0DCFAA0
:20D2F00006B070BD70190020141B0020080200202DE9F04FDFF8DCA000240646ADF13C0D1A
:20D310004FF0010B2546A0460D9318980C91DFF8C0900E9047E016F8020FA41CA4B2401EF5
:20D330001CD0401E09D0401E04D0401E35D1022F33D135E0032F30D132E0072F2DD1B17838
:20D350007078042240EA0120AAF88401F11C0AF5C4700AF0CFFB8AF899B121E0052F1CD14B
:20D37000CDF80880B11C02A803220AF0C3FB0C9803A9FCF79BF99DF82A0088B1029BD9F8BF
:20D390000020039340F00200049200F0F7008DF82A0003A805F072F902E07819801C85B218
:20D3B000E419F619A4B23046694608F001FE071CB1D1022C03DC44466720254600E040464B
:20D3D0000D990C800E990FB00D80BDE8F08FC046F0110020601000202DE9F84F0746344817
:20D3F00000788B4620B93846F8F7BCFBBDE8F88F304DE989002405E03868E989641CA4B2CB
:20D4100080193860A14201DC0AF0C5FF38465946F8F7A8FB95F8F411002847D19BF80080B9
:20D43000D7F800A0002940D023480168C88AC2083BD280094FF0000602D3087D152834D0CE
:20D4500009F0F8FDAB898646002B06BFB5F80EC06346B5F80EC05B1EBCF1000F9BB224D0C9
:20D47000D5F810906146184600EB800048440278904506D003B963465B1E491E9BB2F2D1B9
:20D4900013E0D0F8011070460AF087FF42F21073642101FB0A018B4205D942F2427064231F
:20D4B000401AB0FBF3F6002EA6D10020BDE8F88F54120020601000200C02002036492DE9A4
:20D4D000F04F0822ADF1140D039001A80AF012FB324C6068804780466946722009F016FAB4
:20D4F0002B4EB0884FF6FF7590B10746002400990398091D0AF022F9012808D000987F1E5B
:20D5100004F1010400F114000090F0D100E025462249896840468847B0884FF6FF71A942D7
:20D5300018BF281C30D183461A4800F118010F88002F08BF002425D081461849D9F8145087
:20D55000D1F8048000263446AA46504601A9082209F052FC40B17F1E06F108060AF1080A8D
:20D5700004F10104F1D10DE00399701908220AF0C1FAC047B9F81A10084F491CA9F81A1085
:20D59000B96888475C44A0B205B0BDE8F08FC0462C1D002060100020A00400006418002081
:20D5B000F8B50AF0B3FD05F04BFA0AF0C7FD054605F00C000C2853D0E80826D209F014F97B
:20D5D0002A4E376804460120014609F0F2FE31686143884219D22649F020B0FBF7F0241A48
:20D5F000887C18B1C868A04238BF041C214D214628460AF0B5FF28460AF0AEFF0120FAF70D
:20D6100079F8284609F0A6FE2CE0280928D21A480AF059FD0428FAD0184A690905D220B123
:20D630001168104621F0010103E01046016841F001010160983210684FF0805540F0030039
:20D650001060D5F8B8018169202088470C4CD5F8B8712068B86B804701202060206801E001
:20D670000AF089FE0AF058FDF8BDC046540C0000800B000008140020004003408C21084070
:20D690002C2009402DE9F0432B4A2C491778ADF1140D002F46D03048077837F07F0741D169
:20D6B0000025274CC88AA566401C264F264EC88294F86C0065F3030084F86C0001203870D2
:20D6D0003178012901D0F8F7E3F809F0D3FD234F381D006880471D4E8146306A416E02A8E8
:20D6F000884702220295306A8DF80C202146046D1B482B468DE80C00154B006860318846F1
:20D7100002AAA047174920390028088006D4114991F90000C6F80C80401C0870B968484672
:20D73000884706E0088B401C08830020107009F095FF05B0BDE8F0834D2E0020301C0020A9
:20D75000141600203F1D0020491D002050190020751D0100461D00204F2E00206418002095
:20D77000141B0020901B002038B52F4C0D46A80849D2E80856D30AF06FFAA060606804F1C0
:20D7900070050146286878B10069054651B18D4208D0296AC90803D3C3690421002298471B
:20D7B00001206874294661604868204900780860022008F039FD112001F0BAFD01201C4D80
:20D7D0002075287810B90E2001F0B2FD60684168886808B9C86810B116480AF0DFFB1649C9
:20D7F000164D072000230860296815482B606A686B60144B2A68A36140EA0201192029600A
:20D810000AF0D1FD38BDFDF7EFFA204600F17801096811B905F0A0FD38BDB43045F00201B0
:20D830000AF0D5FD38BDC046C0240020D02108405A1D002051000706000004601410044013
:20D850000200004011A300002DE9F04F0D46074628684FEA90093148ADF13C0D484502D3A9
:20D87000287A022801D0032055E00AF09AFDDFF8B0808346D8F8200108F58E7AB84214BF7F
:20D8900000260126B00080F004005AF8004027B107F19C000AF04AFBB0B924B104F19C00FB
:20D8B0000AF044FB80B9287A002C8DF8360008BF684605D08DF836006946204605F02CFB27
:20D8D00004461848016864B998F8500140F0020088F85001C8F8447158460AF049FE0020B0
:20D8F00019E02A68B00000EBC600504402612A7A9C37B9FBF1F1027638460AF043F958465E
:20D910000AF036FE6846A04204D09DF83610204609F05EFD83200FB0BDE8F08F40420F00B9
:20D93000C02400203C2E00207CB5364C054694F8B5030F2860D0697E607889095CD2297E7A
:20D95000002841F0020129763CD069684A1C1078801010F0030F35D000F0030002280ED14E
:20D97000B4F8C8334FF6FE70984208DD56791179002001EB0621994208BF012004E004F255
:20D99000BE30491D09F0DAFEE0B9687EE98A40F00100C908687633D369684A78C2F38102AF
:20D9B000022A2DD1491D4A7809784FF6FF7601EB02218E4224D1297E00F0EF0041F020011E
:20D9D00029761CE0687E40F00300687694F85F01B0B994F8EB038DF80000FF238DF8033077
:20D9F00094F8FA638DF8016094F8FB538DF8025068460AF050FC7CBD687E40F00100687675
:20DA10007CBDC046080200202DE9F84F344C054660688846804783463248A16800F1780251
:20DA30001768894627B9584688470020BDE8F88F002682463446BC4240D0787E30F07F00E4
:20DA500038D079682B7A4878B446CA1CC0F38100834219D1022806D0032815D1491D2846C0
:20DA700009F06CFE0FE0D378917801EB03212B883046994207D111785278A8EB0101B1EB80
:20DA9000022F08BF01208446BCF1000F12D044B1207D012812D16168087840F01000087056
:20DAB0000CE03C46607E40F010006076207E40F08000207657F80C7C002FBED1494658464E
:20DAD000884754B19AF83C0320B1DAF8500308B1804701E000F05EFB01263046BDE8F88F28
:20DAF00064180020080200202DE9F0470D4606465FFA85FA280824BF2E4845402E494FEACE
:20DB10008A03C85885EA00023240C2F300672B4A06EA0504B043224006F4E0240243B4F59A
:20DB3000E02F01D1500E14D306F4E020074310D002F4E027B7F5A02707D0B7F5803704BF1E
:20DB500022F4003242F4A02203E022F4803242F4C022DFF86C80CA5008F1D0073968012241
:20DB7000002002FA0AF40C4218BF101C5FEA000906D1F00D04D34146C5F3805001F80A001B
:20DB9000300E0BD30AF00DFC290E34BF0021211C3A68A243114339600AF0EAFCB9F1000FC1
:20DBB00006D0F00D04D34046C5F3805100F80A10BDE8F087006000A000100840007F077F11
:20DBD000002002402DE9FE4FDFF8CC804FF0000B019145461F46164605F170010C688DF8C5
:20DBF00000B0894608F038FB5FEA000A0CD1D9F800204AB1D8F88010304601F0A5FC18B11E
:20DC100001205C468DF800009DF9000088B9BAF1000F18BF544600E02C4654B12568304650
:20DC300021462A4601F090FC0028F5D002208DF800009DF9000050B90198314605F06CF9E3
:20DC5000041C04D0A6421CBF04208DF800009DF90000B8B9B4B9F168D9F80440087B00F0FF
:20DC70000F0002280ED1087BC01140080AD274B9D8F8800030B1D8F8801030465A4601F03F
:20DC900063FC20B19DF900003C60BDE8FE8F6FF00200BDE8FE8FC046C024002070B50646D2
:20DCB00000210B22ADF1280D0DF119000AF0A1FB2E4D3078C01E15D0801E04D0143811D001
:20DCD000801F01282FD801208DF8180006F18F0103A80AF04AFB032495F83C038DF814406A
:20DCF00070B113E000208DF8180006F18F0103A80AF03BFB032495F83C038DF8144028B934
:20DD1000B5F8D2030224ADF8020005E00DF1020005F57B710AF029FB8DF80A40B5F8CE036E
:20DD3000ADF8160017E002208DF8180006F1320103A80AF045F80DF1020006F128010AF03C
:20DD50003FF80B48008806F11C01ADF816000DF119000AF007FB0B208DF8000075788DF89D
:20DD70000150684600F0AEF90AB070BD08020020D60500202DE9FF4704462F4889461746A8
:20DD90004FF0FF3182460AF07BF82C48E10000EB01080C18D8F8005066680AF002FBD8F8AD
:20DDB0000010096800290BD42968002905DCB9F1000F09D04FF0FF3108E0B9F1000F03D0BA
:20DDD0000AF0D6FB002430E02968491C29600AF0CFFB2868022828DA1FB903A80AF053FA6B
:20DDF00003AF38686860B76868460AF0AFF80094134A307B6B463946019005F12C0007F015
:20DE100029FA05F16400002108F03EFC05F14800012108F039FC706801F08AFA094A05F1FF
:20DE300018002346042108F0ADFD50460AF0C7FA20460090BDE8FF87581C00201C0C00005C
:20DE5000356C0100CF82010080B50288A2F602073FB143F20502BF1A14BF002090F82400BA
:20DE700000E0C07B2C4AD2F88832401F0B6048D0401E3CD0001F30D0801E24D0C01E18D0BA
:20DE90000F380CD0D2F890024860D2F894028860D2F8BC0220F0784040F080503AE05069E0
:20DEB0004860D06A8860506C20F0784040F0704030E010694860906A8860106C20F07840CD
:20DED00040F0F04026E0D0684860506A8860D06B20F0784040F0C0401CE090684860106A01
:20DEF0008860906B20F0784040F0A04012E050684860D0698860506B20F0784040F04050A1
:20DF100008E01068486090698860106B20F0784040F02050C86080BDC41000502DE9F8434B
:20DF3000324D0120002428702A48DFF8AC80DFF8B0900470294800F162010F8814EA030612
:20DF50004FF0020101EA020108BF00290FD120464FF0E04710401F4008BF002827D04246C8
:20DF700092F90000401E107009F0ACFD1FE0424692F90010491E117067B901F03BFB4646A9
:20DF90004846047096F90000E8B196F90000002817DD1BE0B7F5505F07D113481149006851
:20DFB00000F5C070086000F0F3FF09F04FFD48464246047092F9000028B192F900000028FC
:20DFD00004DC0AF0C3F92046F7F762FC2C70BDE8F883C046401D0020461D002014160020DD
:20DFF0003F1D0020681900200C010021491D00202DE9F04101202A4E2A4930706FF00100ED
:20E0100008702D480068C06B8047274C054621786068A2688B002F1AB7FBF3F058433F1A23
:20E030008800224902FB03F8B1FBF0F0904201D20AF08CF9ED1B1E48656008EB0501FEF714
:20E05000A3F81E4D303D286BEF6AA96A404207F0F9FE002F08BF296B08D0296B7868814235
:20E07000DCBF401A78603F68002FF7D1686B884202D0286306F07AF905F0EEFD104D6868B5
:20E090008047A968884760780A4F40F004006070386809F02FF800203070BDE8F081C046F8
:20E0B000491D00203C1D0020D01C0020FFF6C2FF01E00000541B002070190020380200201C
:20E0D0006418002070B50646304930780D5C401F1CD0083851D0401F4FD0284608F09EFE6D
:20E0F000041C0DD130780C2808D1706830B1301D06F0E8FD284608F091FE0446002C43D0FE
:20E110002A462046314609F0F5FC37E0B07810BB307C317A2D184C10480000F00E002D182B
:20E1300004F038002D182435E8B208F077FE041C2AD03146182209F0DDFC04F11800606094
:20E150007168242209F0D6FC6068243060617169327C0E46D6E7012816D12435E8B208F054
:20E170005DFE041C10D03146182209F0C3FC04F11800606071682422EBE7344624B1044872
:20E190000078214605F038FA70BDC046B00B00004C1D0020F8B5324D6868804706462F4C68
:20E1B000A9686068002855D1E0698047A76F40F01000002F4DD00022797E0140884205D07D
:20E1D0003A4657F80C7C002FF6D142E004F17800394607F03FFA002F3BD06760787E30F08D
:20E1F0007F0005D194F88300401E84F8830004E094F88200401E84F88200A96830468847AA
:20E2100061680889C98A05F053FDA4F8800094F8FB0308F0B1F805466068C18A090A08D369
:20E23000C07E06F07BF8606890F91C0009F031FE6068E97B012903D002290DD1052005E056
:20E25000007E401080F0010000F00100FBF7C6FBF8BDA96830468847F8BDC04608020020DB
:20E2700064180020F0B5324E044696F8EA02ADF13C0D022807D0012805D005281CBFE82013
:20E2900086F8E9024CD196F8300300284DD1002109A8182286F8E9120AF0ABF8CDF828D002
:20E2B00009A8214600F08CFF96F8FE0296F82813814222DDD6F8005370B10746BDF80A0054
:20E2D0006989884204D12846694608F077FAA0B97F1E05F12405F1D196F8FE12D6F8007361
:20E2F0008800242200EB41106946C01909F002FC96F8FE02401C86F8FE0296F8AA0328B109
:20E310009DF8340010B996F8280328B909A8FFF7D9FE96F8280340B196F8FE12884204D15C
:20E330002A202070204604F0B7FA0FB0F0BDC046080200202DE9FE4F8046314EDFF8BC9081
:20E3500096F83C03924609EB4804583425880191B0B1D6F8541399B109EB8807386F00F003
:20E37000FF0088478346D6F85413386F00F47F008847584487B21FB12088C019001D85B25E
:20E3900096F8E00301280CD19AF8080048B148449AF80970047919F807004019401D85B24A
:20E3B00000E00024281980B208F038FD96F800A0071C19D000212A460AF01BF8002687F82C
:20E3D000008008EB090178197E704A7D786007F1840001993C8109F08DFB5046394605F034
:20E3F0000BF93046BDE8FE8F8DF8008068461A2102F01CFC1A20BDE8FE8FC0463C000000BB
:20E41000080200202DE9F84F2E4C012683461D4690468946C4F87C670320C4F880670AAFD5
:20E43000C4F88407D4F88C0710F0030FFAD1387A58B14FF0805ADAF8B001016A2720884771
:20E45000DAF8B0010169272088470220C4F8FC063868C4F80804304609F063FFD4F80804B8
:20E470000008F8D2D4F88C07800F28BF301C26D22868C4F83C056868C4F84005A868C4F877
:20E490004405E8681049C4F848053879002814BF081D081CC4F84C05C4F850850020C4F802
:20E4B0005405C4F8580509490E60C4F800B0C4F80880C1F80064C4F82090C4F82880BDE8D8
:20E4D000F88FC04604400240280000200000484203B42DE9F047304C4FF0000908AF84F84C
:20E4F00001903968ADF1100D02A80160B988818002A803C89A46164608F094FAA046051C94
:20E5100014D04C4686B128466946012207F0E4FD1AF804009DF80010884205D1641C6D1CC2
:20E53000E4B2ADB2A642EEDCA6422ED0B8F80200F61C4FF6FC7440F6F875344000198542CE
:20E550000ADA09F073FDFCF7F1FCB8F8020000198542B8BF012019DB396802A8BE8801606E
:20E5700002AD868095E803002246534601F0B6FD98F80100B8F80210002818BF814604D1C3
:20E5900064180834A0B2A8F80200484604B0BDE8F04702B07047C0466C1D00202DE9FE4F26
:20E5B000304C94F8B901002850D000260121354694F8B92101FA05F0104203D16D1C032D49
:20E5D000F6D343E094F8B9211020A840104218BF0E1C09F0E6FE94F8B9211121A9408A4343
:20E5F00084F8B92109F0C4FFE8B209F07BFB68B3877A5FB390F9098019490768012E456803
:20E6100051F828B0019710D0017A02290DD100F1100191E8000600274FF0805317EA0A0701
:20E6300003EA090108BF002901D103F0ADF9012E05D0CDF800B000224FF0006303E0002236
:20E650004FF00073009201984146A84794F8B90120B104F1E800002109F0B9FEBDE8FE8F60
:20E6700094300440C0240020F0B506460F4600251446ADF1240D8B200DF10E010095FAF7AC
:20E69000FFFA8A2001A9FAF7FBFA707A00282ED1387AA0B9BDF80E104FF6FE70884205DCEA
:20E6B000BDF80E10884220D101A90DE020489DF80E700488BDF80E008DF812700CE002283E
:20E6D00007D0032811D1394604A809F04EFE09240BE038888DF812008DF81040211200124D
:20E6F0008DF8111005248DF81300284611E002280CBF05240924012818BF311C04D189202E
:20E7100007A9FAF7BDFA07A9224604A809F0F2F9B07A0DEB0401C8736A4604A8214603F0D1
:20E73000C5FC002814BF281C009809B0F0BDC046D60500202DE9FC4707460E1C14BF4FF0E8
:20E7500000084FF0E808002F4FD0B8F1000F4ED17868401E78603F210170BD6D002D0CBF44
:20E77000802000207968DFF88C900224083E491E7960DFF884A008703889A7F85440801C46
:20E79000388116F8080FFF282CD02A2828D1706830B3D9F854138847054678689AF800207E
:20E7B000401B7860716831B9D9F858C33A460023E04750B10CE0D9F858C3786871688DF886
:20E7D00000206B463A46E04710B9EB20BDE8FC873889B7F85430401938815819A7F854004B
:20E7F000641ECED17868386501E04FF0E8084046BDE8FC8708020020461A00202DE9F04FAE
:20E8100009AF3C893E887D689A46904689468346ADF1440DB44201DAAA4501D309F096FD63
:20E83000B8F1000F45D0254810F80870B8F1040FA4EB0704A4B2AEBF361B254400242049AE
:20E85000082308A8F61BB6B211F801295B1E00F8012BF9D1ADF818604FEA196100F8011BD6
:20E870008DF80080CDF804B0CDF808A00395ADF81A40ADF81C700CAA04924FEA194300F8FC
:20E89000013B08AE05964FEA192100F8011B00F8019B80F80080684602F050FC50B947B1DB
:20E8B0002D1938460CA911F8012B401E05F8012BF9D1002011B0BDE8F08FC04640000000FE
:20E8D000FB0500202DE9F041054609F03DFA297E2B48090902D2297D012900D0401CDFF873
:20E8F000A8800778464670688047264C04F178010B68002B08BF0D600CD07F1E0026FFB234
:20E9100002E07F1E1346FFB253F80C2C22B92FB143F80C5C012601E0002FF2D1D8F808109B
:20E9300088472EB3A16928468847E88AC0081AD2D8F80400804794F88310491C84F883107C
:20E95000D8F80810884794F83C0310B1D4F8500330B9E88A400A10D2FFF71CFCBDE8F0819A
:20E970008047BDE8F081002128468847BDE8F081F1206870284602F027FCBDE8F081C046AE
:20E990002C1D002008020020641800202DE9B841804608F0FBF8C01DC51098F823000028EB
:20E9B0004AD198F87E4008F0F1F8A04244DD264A5368E1100846C91891F8701004F00704A7
:20E9D0002141CFB207E0401CC0B2C118C40091F8707088F87E4047B9691E8142F3DC516879
:20E9F000002088F87E00487029E098F97E10C0000830884226DD401A79080BD298F87E106E
:20EA1000401E4FEA670701F1010188F87E10F3D1BDE8B88198F87E000C49087098F87E0054
:20EA300088F8810098F87E00401C88F87E000320FAF7D4FFBDE8B881002088F87E00072053
:20EA500005F08CF9BDE8B88108020020471A0020F8B5234E0027E82086F85C70012186F86C
:20EA70005D7008F0D3FE5220012108F0B7FE1D4D482205F1840406F16400214601F01AFC94
:20EA90001948C5F88800403C74611848C5F890001748C5F8B4001748C5F8A8001648C5F813
:20EAB0008C001648184CC5F8940015481749C5F89C00144847F23052C5F8A40004F198008C
:20EAD00005F0B2FE3946A061522008F087FE10494EF6602204F1BC0005F0A6FEE061F8BDB3
:20EAF000B8170020EC1600203DBD000049590100912201005DF00000296301000DFF0000BE
:20EB1000890E0100051C010010150020F9760100057301002DE9FE4F2E482C4C002700F194
:20EB3000800102264FF0000BADF104098046BA46009100F18401019159F8045F2B68B3B31B
:20EB50002868806908F0C2FE296828310A6802430A602968203191E80C0010F00A0F4BEAB4
:20EB7000030340EA020281E80C0006D1F8B1286847F48047C8F8880019E028688169236884
:20EB900021F0020123EA0100114B20602868C16954F8082C22EA010044F8080C296803F14B
:20EBB000080008F0A5F947F00207C5F800A0761EC2D127B108F1B400394609F008FC00F0F2
:20EBD000C1FEFDF76DFCBDE8FE8FC0461410044030250020C02400202DE9F04FDFF89CA088
:20EBF00001270446DFF898808AF8007098F80000ADF1140D012802D03846F6F749FE204650
:20EC100005F07EFEDFF87C90D9F804008047002483461E4D1C4E286A7480416E02A8884784
:20EC30008DF80C700294286A194AD0F850C002238DE81800174B1068314602AAE047D9F8B9
:20EC50000810E880002809D4134A92F90000EE60401C1070584688473C460AE0504604702A
:20EC70005846884740460078012802D02046F6F70FFE204605B0BDE8F08FC046401D0020FC
:20EC9000491D0020641800202416002050190020141B002005450100461D002010F47C1FA3
:20ECB0007CB524D110F00F0F24D006460024012505EA0600AE436D00401E13D0401E0FD0A5
:20ECD000801E0BD0001F0FD142F20500694605F0C5FB9DF8000038B1093404E0241D02E04D
:20ECF000E41D00E0641DA4B2002EE1D133E010F00F0F01D000207CBD064602244FF48035A7
:20ED100005EA0600AE436D00B0F5803018D0B0F5803013D0B0F500300ED0B0F5802009D04A
:20ED3000B0F5002004D0B0F580100FD1072008E0062006E0052004E0042002E0022000E0E9
:20ED5000012000F0E1F90019801C84B2002ED7D1022CD8BF002420467CBD70472DE9FF475C
:20ED70002A4C89468246211D0888401C088028490822684608F0BEFE208B4FF6FF7880B12F
:20ED900065690746002628465146082208F034F830B17F1E05F1080506F10106F3D100E0AC
:20EDB000B0464FF6FF75454504D1207A401C20722E4627E0404602A901F05AFE0646B54275
:20EDD000F6D09DF80800012807D0A16D700000EB86004018A0F8049005E0616D06EB461053
:20EDF0004018A0F81F9060696946082200EBC80008F080FE074D68688047618B491E618377
:20EE1000A968884730460090BDE8FF8760100020A00400006418002030B50546ADF12C0DFA
:20EE300008F0B0FF002818BFFC2051D168462946112208F05FFEAC7C697D8DF81240687C70
:20EE50008DF81510EB7C8DF811002A7D8DF81330AC7D8DF81420002104B101212C7E8DF883
:20EE7000161095F825208DF81840E87D8DF8252095F824308DF81700EC8C8DF8243005F1BA
:20EE900019010B220DF11900ADF8264008F032FE687C002448B9812007F050FE0A9080B117
:20EEB000FF21812209F0A5FA0DE09DF815000A9448B1810001EB401188B207F03FFE0A90F3
:20EED00008B91A2403E00720694603F01BFD20460BB030BD2DE9B043044609F062FA8146E2
:20EEF0002748221892F8EF10491ECFB2002F82F8EF703FD1254901EB84014A880C789046C5
:20EF100034F07F0718D1E1090FD24FF0805000F5DC75D0F8B8018169104688472868416B62
:20EF3000404688470228F9D11EE000EB8800D0F804110020884717E04FF08055D5F8B801AA
:20EF5000016A10468847D5F8B801816A40468847D5F8B801016B404688470A490120086028
:20EF7000094908688008FCD304F03F00132801DAFFF7B0FF484609F0FBFA0020BDE8B08306
:20EF9000FC1300202820086028200840D4090000F8B526482B4C0668201D05682448076890
:20EFB0000FB909F0D3F9304608F0D8FEF860304608F02AFB3882A84706461E48A1680278A7
:20EFD000832A30D11C4DEF782FB386210170082008F060F91A4A194F688B1B4B02F12801EF
:20EFF000401C0F601978688306F0BCFA042806D040F6485090FBF1F000F2A32105E040F601
:20F01000485090FBF1F000F6B8311046203008F04FFBA16807E085220270304688470020A7
:20F0300002F0F6FBF8BD30468847F8BD681900200C0200204F2E0020301C0020814601008E
:20F05000701B002064180020D01C002030B505462B4C2878ADF11C0DEB2829D040B3E9282F
:20F0700006D0E12844D14FF4FA7007F00DF93FE004F15E010878401C087094F85A0003280A
:20F0900018BF042803D14FF4FA7007F0FDF894F85E00032809D094F85A00022828D104F104
:20F0B0000A00102108F08FFD22E006F033F81FE094F85A00022818D10DF10E00694605F0B6
:20F0D00023FE5220002108F089FB606928B102681AB10DF10E0069469047042003F084FEEE
:20F0F00004F10A00102108F06EFD002084F85E0004488830016809B12846884707B030BD6B
:20F11000B8170020B817002010B5401EADF1380D28D0401E09D0801E4FD0401E43D0401E40
:20F130003FD0401E3BD0002048E001A800F0F6FD04460CA942F2090005F090F99DF83000F4
:20F15000002808BF002203D0022007F019FA024601209DF83010009001AB204605F03BFC83
:20F170000A3028E001A800F0D9FD04460CA942F2080005F073F99DF83000002808BF00225C
:20F1900003D0012007F0FCF9024600209DF83010009001AB204605F01EFC001D0BE0202049
:20F1B0000CE002200AE042F2130004A905F056F904A809F020F980B200E004200EB010BD90
:20F1D000F8B505460E460520287096F849006968E870F06B4861686806F1280108F0F0FD3D
:20F1F000B6F842006968488196F84600696848746868002404761F4869680078C8736868EB
:20F2100006F11C01193009F0ADF8307C69688873726812F8010B6968888112F8013B69688A
:20F23000888940EA0320888117786968F8110874204617F0070118BF012001EB41010918B6
:20F250008918491C11F8010B287200F00702E960401000F0380000EB420040187268318916
:20F2700068615318834239BF2C72211C801A091A2974F8BD0206002038B504F095FC02F017
:20F29000FFFB2348007820B1244808380168012088472348234D007820B9281D224B046861
:20F2B000187808B109F052F8A047A9681F4A194D1378022B20D10123174C13706378022B30
:20F2D00012BF032B832313708847617831F0010008D0042906D0052907D10020207108F0A2
:20F2F000B5FE01E000F0AAFE6178022918BF032903D103F045FD00E0884795F83C0328B16E
:20F31000D5F8500310B1102008F088FE38BDC0464405002008020020301C002068190020B3
:20F330004B2E0020641800204D2E00204F2E0020F8B5064609F035F8264D0746711991F85E
:20F35000EF00421C002881F8EF203ED1224C04EB8604267806F03F00132801DAFFF7E8FFE4
:20F37000648836F07F0018D1F0090FD24FF0805000F5DC75D0F8B8014169204688472868E4
:20F39000416B204688470128F9D11EE005EB8405D5F804110120884717E04FF08055D5F868
:20F3B000B801C16920468847D5F8B801416A20468847D5F8B801C16A204688470749012068
:20F3D0000860074908688008FCD3384609F0D0F80020F8BDFC130020D409000028200860CE
:20F3F000282008402DE9F84315468946064608F0D8FF284C8046207D8327B9F1070F2DD891
:20F41000DFE809F03F3835322012042EC0B9206FB0B9296804F1B40008F0DBFF296804F1D7
:20F43000E80008F0D6FF2EE050B9206F40B92968192008F0BEFF29681A2008F0BAFF22E06B
:20F45000002720E0286828B1012807D1802006F043FC18E0802008F091F814E0032712E00D
:20F47000287884F8B8010EE0286820610BE02888708208E00120F568707405F16000F0602B
:20F4900001E028683060404609F072F83846BDE8F883C046C024002030B50025ADF11C0DF9
:20F4B0000DF11A00ADF81A5008F020FD254CBDF81A10B4F84000884238D194F85B000328DF
:20F4D00012D004280ED0022811D10DF10E00694605F01AFC606928B102681AB10DF10E007B
:20F4F00069469047042000E0032003F07DFC206E06F0CAFE5220294608F070F908F07AFBE8
:20F51000044608F077FB00EB042408F073FB4FF47A7200EB0420B0FBF2F15143401A0A30BA
:20F5300006F0CAFE284606F0DFFE09E0032008F065FC052003F058FC5220294608F04EF9CB
:20F5500007B030BDB8170020F8B50F4601460024381C08BF0124002302B90123DFF890C032
:20F57000F8B1066BEEB1CF6ADFB100690C69844208D0DCF81C410CF58E75844214BFEC685B
:20F59000AC6800E00024B8086FF05047A0EB9600001B874225DDB0F1704F01DB002820DD25
:20F5B00001240AB3D76AFFB10E6BEEB110690969884208D0DCF81C210CF58E71824214BF1B
:20F5D000C868886800E00020C0EB97006FF05041A0EB9600814204DDB0F1704F03DB00289E
:20F5F00001DC0020F8BD01231C40E0B2F8BDC046C0240020F8B5274C607830F0010705D083
:20F61000042803D0032818BF052840D104222249224D27790A702D1F95F8CC23791CC9B2A9
:20F6300021718A422FDB03282DD004F0BDFA6078042807D195F83C0320B1D5F8881309B1E4
:20F6500002208847A07895F8D913421C9142C4BF401CC1B2A1706E683189706801F00CFF20
:20F6700070680088000904D395F83C0308B106F003FC6078052803D1207908F0E7FCF8BDBE
:20F6900000F0DCFCF8BDE12002F0C2F8F8BD08F05DFEF8BD301C00204F2E00200C0200203C
:20F6B00090B5044600214022ADF1440D684602F0E3FAA0788DF80000E0788DF801009DF8AC
:20F6D000000000BB616811B101A805F061FB217A01F007028DF82820E0689DF82870C1F34F
:20F6F00002118DF8301027B19DF828100B9000EB41009DF8307007B10D90207C8DF83800D3
:20F7100067690F9719E0616811B101A805F040FB677A8DF82970A37A8DF82A30207A8DF8EC
:20F730002800E27A8DF82B20217B8DF82C10677B8DF82D70E389ADF82E3003480068016978
:20F750006846884711B090BD201D0020F0B5012904460546ADF1140D04D0022941D142F249
:20F77000030001E042F20200694604F077FE04B16D1C07F00BFAC01DC010C0B2002830D0C6
:20F7900000230646ADF1010C1F4618461CF801EF00224EFA02F101F00101884211D028B99C
:20F7B0007F1CBFB25CB102EBC30103E03CB102EBC301491E05F8011B091205F8011B80F0CA
:20F7D0000100521C082AE4DB761E03F10103DDD130B12CB1D800401E05F8010B00122870D8
:20F7F0000FB9002005E004B12770012000EB870080B205B0F0BD70472DE9F843002A8946B8
:20F81000074604D4B2F5004FB8BF95B201DB47F6FF75002F08BF002034D03888002808BFA9
:20F83000002403D02A4601F08BF884B2AC4228D0388830B1291B484613A205F087FA00190A
:20F8500084B2B868E8B17E688EB1304608F0CCFAA5EB0408401D1FFA88F1884207D83346A3
:20F870004146484609A205F071FA001984B2291B122906D3BB68484606A205F067FA0019E9
:20F8900084B22046BDE8F8833A2000C0222573222C2000C06C696E652025643A2000704738
:20F8B0002DE9F047254C01258246984691460E46C4F87C570320C4F8805708AFC4F8840740
:20F8D000D4F88C0710F0030FFAD1387858B14FF08057D7F8B001016A27208847D7F8B0018C
:20F8F0000169272088470220C4F8FC06C4F80894284608F016FDD4F808040008F8D2D4F851
:20F910008C07800F28BF281C15D2B8F1010F14BF08200C20C4F84C051021C4F85015002044
:20F93000C4F85405064A1560C4F800A0A160C2F800542662A162BDE8F087C046044002403F
:20F95000000048422DE9F047DFF894A0DFF89480002501244FF002091126E8B208F0C2F9B2
:20F97000071C38D0B87A012835D197F90900AAF10401113004FA00F0C2430A604A6810430F
:20F99000486097F9090004FA00F0C0B207F0F6FD07F11000002106F061FE0146812909D183
:20F9B000B86918B1002106F059FE0146812908BF87F80A9081290ED0A8F1180000F2B91218
:20F9D00097F90910137806FA01F1E83019431170002108F0FCFC6D1C032DBED3BDE8F08785
:20F9F0000C100440D8240020FEB54FF0805647688468D6F8D001C168206888472168214807
:20FA10008A6B1040886340F2F27120681E4D416494F82000295C94F82100401980790843FE
:20FA300021684863684608F0AAFCD6F8D001397F05EB810146680B6ABA69797F206805EBB7
:20FA5000810189691943BB7F05EB83052B6B0B430199B0472168C86A40F01000C8622168F1
:20FA7000086B40F001000863A07D0027FF2802D0E07DFF2800D11FB1086B40F44040086373
:20FA9000FEBDC0460DF8FFFF680A0000F8B5274C06460E220D4604F1340000F00BFC0220EF
:20FAB00084F824006888A08308F0A4F8074608F0A1F800EB072708F09DF8E26A00EB07200D
:20FAD000B0FBF2F15143401A0A3006F0F5FB30462946FCF7E1FB207801280BD0687B48B946
:20FAF000288869882A1D03F017FE011C02D00BA008F023FCE56807F08DFA854203D807F0F1
:20FB100089FA451B03E007F085FA401B451E6420E560B5FBF0F0A4F87800F8BD4175746827
:20FB3000204572726F723A20307800C0EC16002070B5264C0120002684F85C01244D6670A9
:20FB5000ADF1180D84F85F61281D006884F8616180470246A06F68B1417E8B0806D341F018
:20FB700001014176017E01F0FD01017650F80C0C0028F1D1A96810468847102008F04EFAE7
:20FB9000082008F04BFA94F86001D8B9E0258DF8015009208DF80000B4F8CE338DF80F6048
:20FBB00094F8EB23ADF8023094F8FB138DF8042094F8FA538DF8061068468DF80550FEF790
:20FBD00081FA01E084F8606106B070BD08020020641800202DE9F041DFF8948006460C4603
:20FBF00036F07F0014D1002E3DD1224D686880471E49096831F81620144321F81640A9681B
:20FC1000884741461431086807F064FABDE8F081042007F003F9071C25D04FF6FF703880C3
:20FC30007C8008F0DFFA41468C78A7F10C05FF2802D0C96A09184C78FF2C06D1384608F02A
:20FC50003AF907F01DFCBDE8F081304607F03EFD01463A46FF20A872204605F0A1FF10B1D7
:20FC7000384608F028F9BDE8F081C046402E0020401B0020641800202DE9F04108F091FB51
:20FC9000254D214E804605F1E000007848B93446A168022088470746102006F021F96FB33B
:20FCB0001AE008F04BFAC0091AD218480068C4681748342101220023A04788B103F0C8F887
:20FCD00034460020A16885F8E000022088470746102006F005F98FB1A168032088470DE08A
:20FCF0000C4800683221B1FBF0F101B901213035284608F048FB284608F047FB404608F048
:20FD100037FCBDE8F081C046800B0000A401001000A00C403C2E0020FC130020F0B50446B0
:20FD3000E820ADF1140D04A904F09AFE9DF81000694607F0EFF900280CBF00981D480DF192
:20FD500011016060E82004F08BFE9DF81100694607F0E0F958B90199C8200322B1FBF0F0D3
:20FD7000401EB0FBF2F15143401AC0B200E00020207206F00BFF0021676860810723217009
:20FD90000D4A61705568BD420CD1157A267AB54208D15589854205D110782070577867705A
:20FDB000084604E05B1E02F10C02EBD1012005B0F0BDC04638C40D00041100202DE9F043BB
:20FDD000254C0746243C606AADF11C0D00283ED0002F3CD0387A002839D004F0C9FE5FEA0C
:20FDF000000834D0062000260323A1468DF808003546ADF80A30B5F5FA7F28DAD9F824008D
:20FE1000ADF80C5004AB02AA0469009392E803000A230022A047B0B9387A9DF81810814228
:20FE300010D1022804D1BDF810103A88914207D0032807D1384604A9082206F0DDFF08B9A6
:20FE5000284606E0761CB04505F10105D3DC4FF0FF3007B0BDE8F08334150020F0B5204859
:20FE70000127F84201D004F01FFB204D204F214EBD4206D203CD0478A4003459401CA0474F
:20FE9000F6E71D48002800D08047164D164FBD4202D210CDA047FAE7F0BD03251BE0416898
:20FEB00008300A1C2A400BD11A1C2A40AB4305D0046804300C600431043BF9D1131C05D0DD
:20FED000047801300C700131013BF9D1021C2A4001D0A84304300368002BE0D17047C04635
:20FEF000FFFFFFFF0000000000000000B0950100109601006C95010055C5011070B505466C
:20FF1000244C287800283FD1A07801283CD0281DFFF754FFB0F1FF3F36D1298AC81333D037
:20FF300001F00F010F292FD12046B0F840104FF6FF728A4203D0EA898A4205D102E0E9895C
:20FF5000A0F840100121C170A97C80F84210AE88A0F84460298A01F00F020F2A05D080F8BA
:20FF70005820C1F3031180F8591090F858100F290AD1012181700848064608F027F801285E
:20FF900002D1304608F029FA7434216809B12846884770BDB8170020CC15002003B4264883
:20FFB0002DE9F041008806AF1646ADF1080D001F84B2082C39DB3D78201F6946082280B202
:20FFD000804606F089F8BDF80000C10B19D300F0FF00854215D17888BDF80210884210D159
:10FFF000B888BDF8041088420BD1BDF80600002E69
:020000040001F9
:2000000018BF40461AD1C0F30E00241A241FA0B214E0BDF8061008466FF30E0048B9084638
:200020000830844202DA07F091FF06E0641A083C00E0241FA4B2082CC6DA002002B0BDE8F3
:20004000F04102B07047C0466E1D00202DE9D8410020224C8DF8000008F018F9A278DFF819
:200060008080012191404FF6FF725218024098F83C03228128B3D8F8742312B342F21A0064
:2000800069469047144827790678A6B19FB99DF8006086B1D8F8980368B180471149124A84
:2000A0000978127830B1278908314A43B0FBF2F17818208127799DF80010208907FB01002E
:2000C0002081607818B9FCF7B7FFBDE8D881FCF7DFFCBDE8D881C046472E0020301C00205C
:2000E00008020020451A0020D01C002003B426482DE9F041058806AF1446ADF1080D9846B2
:200100004FF6FF70ADF800000222ADF802006946ADF8040044F40040ADF80600281986B2C7
:20012000304602F00BFABDF80600022269466FF3DF30ADF80600304602F000FAA110284627
:20014000CAB2414602F0FAF9387840F44040ADF800007888ADF80200B88802226946ADF84F
:200160000400304602F0EAF9BDF80000022269466FF3DF30ADF80000304602F0DFF902B0A0
:20018000BDE8F04102B070476E1D00201CB5204C04F5DC7006F09AFB04F5CE7006F096FBAA
:2001A00004F5EA7006F092FB0021882204F5BA7008F027F907F030FD06F0F0FC84F89A0146
:2001C000144984F89B011448086001200DF1010184F8F30142F2040004F048F942F20500AF
:2001E000694604F043F90D489DF80110C4F8A80164204143C4F8A0110949C4F8C4119DF8D3
:2002000000104843C4F8BC010648C4F8E0011CBD601000206019002089600100FD400100B5
:2002200079CC00000983010010B5244C08BB04F16C021178002060F30301117094F8341040
:2002400060F3030184F83410206394F8381041F0080184F8381094F8381060F30411F420E2
:2002600084F8381004F1390104F002FC44F6206019E004F13801087840F00800087094F8FC
:20028000380020F0100084F8380004F00BFE0A2280B24FF4FA6390FBF2F1514344F6206299
:2002A000401A03FB0020064A206492F83C1319B1D2F89C1301B1884710BDC0461416002038
:2002C00008020020002A4AD05FEA000C8B071CD1830722D1102A08D370B4103A78C978C063
:2002E000103AFBD270BC103238D0042A2CD3082A05D30C2A24BF08C908C008C908C008C91E
:2003000008C092072AD0920F22E00B780370491C401C521E22D08B07F7D1C30714D1830733
:20032000D8D0121F12D308C903801B0C4380001D121FF8D20AE008C903701B0A43701B0A7E
:2003400083701B0AC370001D121FF4D2121D05D00B780370491C401C521EF9D160467047EC
:20036000D0B5244C04F178010F68002F3FD0002215280AD13B7D0126022B08D0032B06D043
:20038000052B04D0042B02D000E03B7D0026984200D016B17B7E5B0905D23A4657F80C7C9E
:2003A000002FE5D123E00846394605F05BF9F88A6760000A03D397F91C0007F072FD387D4F
:2003C000022818BF052802D1012006F06BFF6068407E30F07F0005D194F88300401E84F8B7
:2003E000830004E094F88200401E84F882003846D0BDC04608020020F8B5044642F20900BD
:200400000DF1020104F032F89DF8020050B19DF80200022833D1A08894F8271002F01EF86D
:20042000054606E042F20D00694604F01FF89DF80050154E301D0768802D01DD07F08EFF7D
:20044000B847124B0E490F4A1F780D701FB91778B1684FB904E01778B16837F07F0703D1E7
:20046000884701F0D7FA00E088470020A4F87C5094F82170607017B1102007F0D7FDF8BD4F
:200480000C1B00204F2E0020641800204405002003B42DE9F04307AF97F800807C88BD8865
:2004A000ADF1140DB8F1FF0F0FD14FF6FF70A0420BD1A84209D104F041FB07F093FC194899
:2004C0000421801C0180002027E000264BF6FF790FE06946082205F007FEBDF800006946AE
:2004E000022209EA0000ADF80000384602F026F83E468DF80880ADF80A4002A8ADF80C5087
:2005000003C80122FFF752FD071C03D1002EDAD10A2002E0BE42DCD1022005B0BDE8F04370
:2005200002B070476C1D00202DE9F843234D884606464FF0FF3105F12800814607F0A8FCDF
:2005400000200CE0FF2909D02A688A4204D305EB8101D1F898700FB1002627E0401CB8F124
:20056000000F03D018F82010FE29EBD10024346074600127B46011E0FF280ED005EB800048
:200580000B787268C0F8986007FA03F0104370600A680949304605F073FB641CB8F1000F62
:2005A00004D008EB84010878FE28E5D1484607F00EFF3046BDE8F883007FC767E8120020A4
:2005C0002DE9F84F81460020C9F80000684603F0C7FADFF88080DFF878A000264FF0FF3555
:2005E0004FF0190B34460746E0B207F083FBC0B1837AB3B1017A0126022916D04246516804
:2006000040694B8A92F8BA21C968C9180BFB021106F016F8DAF80010B0FBF1F0854288BF4C
:20062000051C641C032CDFD300E000251FB1012E04D0012F05D0012E04D005E00098854214
:2006400000D9009DC9F800503E43F0B2BDE8F88F3C2E0020C0240020B0B5456884682349CC
:20066000607DA27DADF1180D40F000400090207D0027FF2A41EA000001904FF0020002D0FF
:20068000E27DFF2A00D13FB1E37DA07D1943039140F0004002900420FE214DF8201005F1F4
:2006A00054006946FFF740FF2866002808BF381C1AD0617D0F2205F0ADFF286E217D102231
:2006C00005F0A8FFA17D3846FF2902D0E27DFF2A00D140B1286E112205F09CFF286EE17D51
:2006E000122205F097FF012006B0B0BD0000C0A02DE9F843054607F070FE6C68AE6807465F
:20070000780818D307F055FEDFF87480814698F8000028B1022005F0CDFA40460021017033
:20072000484607F02DFF606B216BE368091A2163626B28469847B8081FD307F03AFE114F64
:200740008046387820B1022005F0B4FA00203870404607F015FF3168886B20F0200088638D
:200760003168086B20F480700863606A216A091A21622369626A28469847BDE8F883C04638
:20078000442E0020452E002030B5044660684078ADF1440DC0091FD31F4DB4F84200B5F8D4
:2007A000CE13884218D1A878A0B995F8D80398B104F1280006F07AF970B9012000901C34CB
:2007C0000194B5F8CE3305F2BE3203210620F7F7BDF91FE006F012FF0BA80021182207F0F6
:2007E00010FE02A821460C900BA8FEF7F1FC2C208DF82C000BA802F057F808485038007868
:2008000010B19DF83C0028B105208DF82C000BA8FDF760FC11B030BD080200200206002094
:2008200038B5054695F83000032839D195F83A00032835D105F128044A202146F9F768FA51
:200840008A202146F6F7C0FA6C686178207800EB0120ADF8000069465020F9F759FAA41CC8
:200860006178207800EB0120ADF8000069464B20F9F74EFA8B206946F6F7A6FAA41CE1205C
:200880002146F9F745FA641C6178207800EB0120ADF8000069465320F9F73AFA002000E0DA
:2008A000E82004492A24087028462C7001F0FCFF38BDC046F10400202DE9F8432020EFF3A4
:2008C000118780F31188214CA068012107F048FE4FF001094FF0000865692168A4F81C9071
:2008E0006A1A2168A4F81E80461B401A904227D387F3118840462D18361A4846294607F008
:200900002BFEB042F7D92021EFF3118781F31188E18B012903D14046294607F01DFEB0F112
:20092000FF3F06D0A169801B814238BF081C291801E0A069411907F00BFEA4F820902560CA
:20094000A4F81C8087F31188BDE8F883780100207FB503461F480D4601881F48008814468A
:2009600014A6984205DB32462146284604F0F6F91EE0994206DB184606F004FD0028F2D0DA
:200980004268F1E715480088002808BF0CA2EBD00095002C48BF47F6FF74114E0020114947
:2009A000ADF804406A46346802901846A047029800907FBD7B6D6F64756C652325647D009B
:2009C0007B6D6F64756C652D726F70653A25787D00C046C0D60B00000A0C00008E14000080
:2009E000680C0000256801008B4208BF824204D90B1C021C002100207047002B08BF002A67
:200A00000BD10B1C021C00210020002B08BF002A1CBFC943C04302F016BCF0B51C46154648
:200A20000B46024600200021B4FA84F6202E04BFB5FA85F62036B3FA83F7202F04BFB2FA3E
:200A400082F72037F61BB6F1200727BF05FA07F400257F42B4403EBF25FA07F73C43B5409F
:200A6000A34208BFAA4201D3521BA341404149416D0845EAC4756408761EF1D5F0BD7047A7
:200A8000F8B50A46034621492148B1F84E70858891F809C08C6D8646ED18ADB25FB100201E
:200AA000A41FA41DE67816B1A688B54208D07F1E00F10100F5D10CF10100C0B2487206E02B
:200AC0004FF6FF7484421CBF002111701CD101201070B1F84C70BEF804604C6D4A7AF01889
:200AE00083B267B10020213C2134A67F1EB1B4F81F50AB4208D07F1E00F10100F4D1521C41
:200B0000D0B248724FF6FF70F8BDC046601000202C1D00202DE9F04180461F4800680D4602
:200B2000416927208847012404FA05F61B4DC5F80064C5F87C470327C5F88077184804602C
:200B4000C5F88477D5F80404012818BFC5F80444C5F8FC6313480460C5F800801023AB60AD
:200B6000204607F0E6FBD5F88C076FF39D000028F6D0D5F88C17204611F0404F09D1C5F8ED
:200B800084770021C5F8FC16D5F80024164218BF081CBDE8F081C046B001001004400240C3
:200BA00000E04842000048422DE9F84F224C00264FF001094FF0020A3746A51E15F8020F5E
:200BC00003280ED002282AD16878022827D0304607F057FB8046384607F0E8FA85F801A0EC
:200BE00010E0304607F04DFB80466878012805D0384607F0DBFA85F8019003E0484607F0EC
:200C0000D5FA6F70009007F0D4FB8346009A60685FFA88F104F028FE584607F0B1FC761CE5
:200C2000022ECBDB05F0F2FE18B104F1200007F0DAFBBDE8F88FC046901A002090B50C46BC
:200C4000214A0178575CADF11C0D0B2F8DF8007034D0002F35D00C2F04D0112F28D107F090
:200C600032F925E01A2C21D090F89D100190C7688DF80210038A0297C28AADF80C305109D4
:200C800004D21249827E0978891A00E000218DF80E10877F8DF8107090F91F308DF81130B2
:200CA000826A0592417F8DF80F1001E0002001908DF801406846FDF70DFA02E04470FCF7C3
:200CC000F5FF07B090BDC0465D000000E4050020F0B5234C0646206C0025ADF1240D294661
:200CE00072684369E06B8DF81C5098470746B7F1FF3F2FD03078042804DA032002218DF8A4
:200D0000000002E002218DF800109DF81C708DF80270337F8DF803307269019201208DF8A3
:200D20000100F7688DF81410B368029732690393778BE06BADF81670338B276C04926946B7
:200D40003A6AADF8183090470746206C8269E06B07A99047002F14BFE420281C09B0F0BDE5
:200D6000080200202DE9F04307AF16463C897D683A889C468046002EADF1440D204608BF90
:200D8000002034D01B4B13F806E0042E03DAA0EB0E0045197046FC68121A08AB082792B266
:200DA000E41D14F801997F1E03F8019BF9D10C0E03F8014BADF81A00ADF81CE08DF80060E8
:200DC000CDF80480CDF808C00395ADF818200F0C03F8017B0CAC0494080A03F8010B03F8D2
:200DE000011B08A9059168461E70FFF771FF11B0BDE8F083400000002DE9FE4F0190214878
:200E000000F170063768994692460D460024804600E03F6897B3BD42FBD1D7F800B0019824
:200E2000394607F0CBF818B397F8370006F10803B9F1000F009340F0040087F837000ED0D2
:200E400097F8370040F0080087F83700286998F85031C8F8440143F0010088F850013046BC
:200E6000394605F02FFF0098394606F049F8641CBAF1000F18BF5FEA0B07CED12046BDE86C
:200E8000FE8FC046C024002070B50646204D307800BB7178E8782C46012910D0022909D0B1
:200EA00003292FD100204021207104F10A0006F092FE27E028B1022006F0A8FF22E00128A5
:200EC00006D05220002106F091FC41F2883013E02021EAE75220002106F088FC7078032816
:200EE00002D13178EA2905D001280BD100202C46E870EAE72C46074894F85C1084F85D102C
:200F000005F0FAF97C35296809B13046884770BDB8170020E09304002DE9F8438146EFF31B
:200F20001188202080F311881E4D1A4C184F012605F11C000660A4F114000660F86A016A19
:200F400014208847D9F81000810C14BF000C04202060386802682321002090470E480F4FA4
:200F60000660386800280CBF311C03210C4807680FB141F00401183C206820F4E02040EA34
:200F8000014020602E6088F31188BDE8F883C046840100101820094080022443440C000079
:200FA000480C000000002443F0B51F4D04461022ADF12C0D05F171016846FFF783F9002664
:200FC00004940920ADF8146005F10D018DF8170001248DF816400A6806A802604A684260C1
:200FE000097A017211496A4618200EF0F9F8104F182089226B1D39460EF0F2F87120314691
:2010000006F094FF1820812209AB3946ADF824400EF0E6F8D520294606F088FF5D2021468F
:2010200006F0E4FB0BB0F0BD2008000055980000C96D000070B506467468B568206E06F03A
:20104000B1F929681C488A6B10408863304600F0D7F9304601F030FD2968C86A20F0100014
:20106000C862296815480A6B104008636868FDF739FF04F17C0007F09AF904F1980007F0AD
:20108000A8F9A07818B904F1CC0007F09EF9607818B904F1E80007F098F904F5827007F087
:2010A00074F907F086F90021217007F069FA04F1680006F077F870BD0DF8FFFFFEFCFFFF57
:2010C00038B50C4644220546002100F0DDFD04F12801284606F062FC04F1320105F10A002D
:2010E00006F05CFCE06B6861B4F840002883B4F842006883B4F84400A88394F84600A87712
:2011000094F84700E87794F9480085F8200094F8490085F82100B4F850006884E06C6862BA
:20112000A07B85F8280094F8520085F82900606D0B2204F11C01E86205F13000FFF7C2F83F
:201140002089A5F840006068E86338BDF0B5214C0646206C0025ADF1240D2946726843692E
:20116000E06B8DF81C5098470746B7F1FF3F2AD0317828460429B8BF0120377F8DF803709D
:201180008DF80000F268029273690193B168039137698DF8025001200497728B8DF8010009
:2011A0000223ADF81620318B8DF81430276CE06B3A6AADF81810694690470746206C826911
:2011C000E06B07A99047002F14BFE420281C09B0F0BDC0460802002098B50446217D0129FE
:2011E00005D0152903D0252918BF352917D1207E000914D219484E30007858B160781B2896
:2012000006D1012006F04EF84FF4806006F006FF0020607061782046FFF710FD98BD207E57
:20122000C20918D2012918BF152901D100090BD267781B2F06D00A48002F0CBF1A30283015
:20124000405C02E0232000E03120207002480078214602F0D9F998BD08020020E405002097
:201260005D000000F8B500680E4617464FF0FF310446483006F00CFE4FF0FF35092E08D098
:20128000217A0120B040084212D108433546207211E0237A0721012000FA01F2134202D032
:2012A000491EF9D504E0227A88400D4610432072B5F1FF3F15D0A7B1062004F0BDFF294613
:2012C0003846FFF727FC0746062004F0F3FC47B1217A0120A8404FF0FF3580F0FF0008405B
:2012E000207204F1480007F072F82846F8BD7CB515460E46044600E024182046694604F04C
:201300005FFE00282DD014F8021F8E42F4D1491E04F101041FD0491E12D0491E08D0491E4A
:2013200018BF622027D102281BD12078287021E0032816D114F8010B28702078687019E0EA
:2013400007280ED161782078042240EA01202880A11C281D0CE0052803D1207806282870A8
:2013600001DD67207CBD281D002103220160611C06F0C8FB00207CBD70B51E4DAC68064664
:2013800006F088FA4FF47A71001B4843030C05F0D9FA2969401A48BF404240F6B831F61888
:2013A000B14210D306280EDAE9688C420BD8286848B1114A091B51438A0C02EB1141884204
:2013C00088BF011C08E00D49486840080ED208687D2100F0FF004143C82905D3B1F57A6FBA
:2013E00088BF4FF47A6103E0C82101E04FF4FA61084670BDFC2D002040420F00AC3F0050AD
:201400002DE9F04106467568B46806F0D2FFA96A39B921688969090903D207F0B1F8BDE8CD
:20142000F0810027AF6207F0ABF8A17D3846FF2902D0E17DFF2900D118B12846214600F0EE
:2014400001FE2168886B20F0200088632168086B20F48070086306F0ACFF0A4C8046207836
:2014600018B1022004F026FC2770404607F088F8686A296A091A29622B696A6A3046984707
:20148000BDE8F081452E0020C8B50F46082F0BDA002F3CD001787F1E91FAA1F14FEA11619C
:2014A00000F8011BF6D1C8BD414201F003017F1A4618BBB2864203F0030200EB010709D95B
:2014C000361A0178761E91FAA1F14FEA116100F8011BF6D123F003017F1887420AD9391A5F
:2014E000C91C8E100168761E91FAA1F109BA40F8041BF7D1BF18874209D93F1A01787F1E7C
:2015000091FAA1F14FEA116100F8011BF6D1C8BD2DE9F8431C481F4D0778686880478146A5
:201520001A4883680026344680469C4212D013F8020C874208D134B163B138464FF4004182
:20154000FEF750FB13E01C4604B91E4653F80C3C002BECD15FB9686880470D49096831F8BB
:2015600017206FF3DF3221F81720A96888472CB108F108002146324604F074F8A9684846D5
:2015800088472046BDE8F88308020020401B0020402E002064180020F8B5044606F009FF32
:2015A0001D4D064605F5A8710878A04305F58E7408702068002808BF002706D020689C30C3
:2015C00006F0BCFC002700B10127606838B19C3006F0B4FC0024384318BF0124274695F8A5
:2015E0005001A0B9012F12D0D5F8440178B1016A89080CD3C469304606F0C2FFD5F84401AD
:2016000002210022A0470020C5F84401F8BD304606F0B6FFF8BDC046C0240020F8B50546EF
:20162000012003F0C5FF1D4C04F5EE7000F078F804F5F67000F074F869684A78087800EBF9
:201640000220ADF800008F7804F5EE766FB953206946F8F75DFB05F128014A20F8F758FB03
:2016600005F128018A20F5F7AFFB06F1200005F11C010B2206F046FABDF80010384604F047
:2016800081FB94F80702800803D36878002106F0B5F9002084F80702F8BDC04608020020AC
:2016A0002DE9F8431D4C1B48D4F8807006F066FC1949054608680E6800F02000284006F4F4
:2016C000602616D0AFB107F1200191E800030346C4F8887000202037190040EA080041EABF
:2016E000090187E8030004F1B4004FF4005106F076FE16EA05000AD094F8B91141EA5040D7
:2017000084F8B901002104F1E80006F068FEBDE8F883C04620000E000C100440C024002081
:2017200070B504461D480078012802D00120F4F7B7F8194D281D00688047134906462046BF
:201740000B46283105F079FE20B903F12C01204605F073FE986BA04212D10C4C94F9000000
:2017600010F1020F0AD00B48094B006894F90010826B186890476FF00100207002F074FA3D
:20178000A9683046884770BD080200203D1D0020141B00207019002064180020491D002008
:2017A0001D491E482DE9F041352751F8048B51F804EB51F804CB51F8046B51F8045B40F8FA
:2017C000048B51F8044B40F804EB51F8043B40F804CB51F8042B40F8046B40F8045B40F83E
:2017E000044B40F8043B7F1E40F8042BDDD151F8045B51F8044B40F8045B51F8043B40F8DA
:20180000044B51F8042B40F8043B40F8042B09680160BDE8F081C0464089010000C000218A
:20182000F8B507461A48002505701A481A4E057096F83C03E0B1D6F880037468C0B1207DDA
:20184000352809D160682189FFF71EFE60680088000901D304F018FBD6F8801338468847EB
:201860000E48007801280AD02846F4F719F806E002F0A2F900F00CF93846F8F7CFFB7068B6
:2018800010B1007D352801D006F0E8F8F8BDC046472E00204F2E002008020020491D002069
:2018A000F8B51D4C02466068002834D0104606F0E8FC0546084606F079FC064604292ADA25
:2018C00050000229015504EB000212BF03290020507006F06EFD07466068E9B2324603F0ED
:2018E000C3FF384606F04CFE05F090F850B904F12000044606F072FB01280CD1204606F0BE
:2019000074FDF8BD04F12000044606F067FB10B9204606F068FDF8BD901A00202DE9F04398
:201920001C4E044600271D468946A2EB0408ADF1140DC6F8B071012006F0FBFC3068C00FEE
:20194000F9D3306A0090706A0190B06A0290F06A039044B128462346694611F8012B5B1E64
:2019600000F8012BF9D10320C6F838026CB108EB09016D1E491E11F8010F15F8012F90422A
:2019800018BF042002D1641EF5D1384605B0BDE8F083C04650450240F8B5074606F009FD13
:2019A00004467FB3B87A68B397F9092005F02AFC012303FA02F1CDB248B1144E113203FA5C
:2019C00002F0326882433260C34346F8043C00200246BA723A723A6007F110067A60034695
:2019E00086E80C000A4AB86102F5DC7003781943017092F8BA0110B1401E82F8BA0128466E
:201A000004F072F9204606F0BBFDF8BD0C100440C024002038B518481849007818B90846F5
:201A2000007828B906E00846007830F07F0001D006F094FC14490C4660688047104D2146A9
:201A4000124CEA78083C23789A4206D10D4A89681278D20802D288470AE08968884705F046
:201A600011FC2078FDF7C0F8012804BF2078E87005F0F4FF012038BD440500204F2E002035
:201A8000441A00204C2E002064180020141B00202DE9FC411B4D243D68688047164C804668
:201AA000E1682069814221D014490F78F7B9144AA968177837F07F0719D1E06040468847E2
:201AC000114EE068203E0190306A416DA068884701990090CA0FB2EBD07F0AD1306A826DFE
:201AE000A0689047832804D006F038FCA96840468847BDE8FC81C0460C1B00204D2E0020EE
:201B00004F2E002088180020701900201D4938B5283991F82C3301EBE30595F8ED42012270
:201B200003F0070302FA03F383F0FF03234085F8ED3291F8EA3201F53A70032B18D091F85E
:201B40003033012B10D0022B08D0B1F826138A409102A1EB821101F570710EE0B1F82623FC
:201B60009101A1EB820108E0B1F826138A4001E091F8DD239102A1EB82111C3005F0A0FD36
:201B800038BDC04630020020DFF870C098B5FF209CF85F119CF883708CF85C01012914D00B
:201BA0009CF8B5039CF8D413884223D014480024047005F067FB01F0C7FC0F4800780128AA
:201BC00018D02046F3F76CFE98BD00218CF85F1187B19CF8EB138DF803009CF8FA738DF821
:201BE00000109CF8FB138DF8017068468DF8021006F059FB98BDC046491D002008020020A3
:201C00004C2E002098B504462078E0282CD106F09BFC19490F7908610846817801290AD0CB
:201C20004FB990F85A10012905D190F85C0001281AD001200CE0114AB2F86E10491CA2F824
:201C40006E1047B97F1CF9B2017100238370022006F0DCF808E0002004F01EFB032006F01E
:201C6000D5F8052001F0C8F80248016809B12046884798BD3C180020B8170020EC16002045
:201C8000002213460A46194671B510F0030F0BD0002A82BF00F8011BB2F1010210F0030FD0
:201CA000F6D1002A08BF71BD11F0FF0141EA0121042A18D341EA0141082A0FD30E46102AC8
:201CC00008D30C460D46B2F10F0312F00F0272C0103BFCD812F0080F18BF42C012F0040F64
:201CE00018BF40F8041B12F0020F18BF20F8021B12F0010F18BF017071BD704738B51B4D03
:201D000095F8B5030F2829D095F85C11FF2925D095F85E0170B102290CD103F085FE144C4C
:201D2000D5F8541195F8AC23401A2178083101FB120411E003F078FED5F85841B5F88030BA
:201D400095F8D423241A05EB4205B5F82401E41A241A01F0C9FB241A002C01D5002038BD72
:201D60004FF6FF70A042C8BFA0B238BD08020020451A0020F8B5194E194D0120002414EA99
:201D8000030730704FF0020000EA020008BF00280CD14FF0E04004EA0201184008BF002908
:201DA00004D11149088C401C088403E095F90000401E287005F05AFC05F050FE09480470BE
:201DC00095F9000028B195F90000002804DC06F0C5FA2046F3F764FD3470F8BD491D0020C1
:201DE000461D00203F1D0020301C002070B517481749007818B90846007828B906E0084670
:201E0000007830F07F0001D006F0A8FA114C60688047124E104DF1782A78914207D1104A89
:201E2000A1681278D20803D28847012070BDA168884705F027FA2878FCF7D6FE012804BF02
:201E40002878F07005F00AFE70BDC046440500204F2E0020641800200C1B0020441A0020EB
:201E60004C2E002038B51C4C002084F8610194F8B55394F83802401CC0B2042884F838026B
:201E800024D0202003F094FB94F8F7230F2A0AD094F8620194F8B513814204DD154684F815
:201EA000B50304F0A1FA04EB4501B1F8245194F8B53394F838124FF4707204F502709A40D4
:201EC000491C01FB152104F08DFF38BD03F074FFFDF736FE38BDC0460802002030B51948FD
:201EE000174DA8641848ADF13C0DF7F78FF803F0D9F8284605F02EFD05F118044FF4E130FE
:201F000029462060002003F0EDF810493C22082308600021684606F013FBE8344FF461708D
:201F200000230B4908906A4607940120069005F1540006F001FB06F0FBFA0FB030BDC046B7
:201F4000D40700206F830100A00900005C0C0020593200002DE9F84380461948077817B910
:201F6000184D287810B90120BDE8F883164E243E70688047814668880124B8F1000F0ED17A
:201F8000214603464FF6FF72B9404A40104068807BB170B9002004F083FE044609E018B932
:201FA000204604F07DFE68882146B940084380B26880B168484688472046BDE8F883C04695
:201FC00008020020EC1D00208818002000B500212022ADF1240D6846FFF756FE1848B0F807
:201FE0004010ADF8181090F842108DF80B10B0F84400ADF80E0002218DF8161009208DF82F
:202000000C0001218DF80D108DF81F1000208DF808008DF81B006A468DF81A0006498DF8CC
:202020001D0018200DF0DCF80449B1F85400401CA1F8540009B000BD5B820100EC16002071
:20204000B817002038B50C4621680546886B20F020008863286E217D012202F0A5FB286EF1
:20206000217D012203F000FC286E217D002204F0D1FA286EA17D002204F0CCFAA8780128C2
:2020800006D005F1CC004FF0FF3105F001FF03E0216888690009FCD2286E217D102204F0B6
:2020A000B9FAA17D0020FF2902D0E27DFF2A00D118B1286E112204F0ADFA38BD2DE9F84F5D
:2020C0008346894617467120114604F027FC81206946F6F7DDFD4FF0F308002507E0B8F106
:2020E000000F23D038686D1CADB22C303860BDF80000A8421ADD3868066890F804A000246E
:2021000002E0641C0A36A4B2A245E8DD737A002B0CBF052009208145F3D14A4630465946BB
:2021200005F0D0F80128ECD14FF000084046BDE8F88F70472DE9F8431A4C05460E46201DB9
:2021400001681648007820B9002028603080BDE8F8838847DFF84880D8F804725FFA80F969
:2021600008F5DC7005F0A2FFD8F880214FF47A73410001EBC001B1FBF3F129605018B8F8C0
:20218000781128608742318003D8C01B2860491C3180A16848468847BDE8F883F8110020B1
:2021A000601000206418002038B5054601201A4C68712879B0B90DF0E4FB2178002904BFF0
:2021C0006FF00704051C15D0491EC9B2217039B90DF001FC606804F07FF90020687118E00B
:2021E000054613E00DF0CDFB05462078FF2805D16FF0060428460DF0EEFB0BE0401CC0B286
:202200000128207002D1606804F07DF928460DF0E2FB0024204638BD741D002070B5054618
:2022200006F0C7F8194C06464FF0FF30E06105F19C0006F0B4F8B4F98C00B4F98E10884207
:202240000ED1207D02280BD094F8500140B1304606F096F90720FFF79FF906F0AAF806469B
:20226000B4F98C00B4F98E1088421CBF012085F8C00006D105F1780006F091F8082003F0F8
:2022800033FD304606F07CF970BDC046C024002070B505461A4C2878ADF1200DE9281DD0B7
:2022A00030BB002694F85A0084F85E6002281FD10DF10E00694602F02FFD5220314605F01C
:2022C00095FA2046406928B102681AB10DF10E0069469047042000F08FFD09E094F85E004D
:2022E000401C84F85E00C0B2032801D102F01AFF9434216809B12846884708B070BDC046FB
:20230000B8170020154998B50F7817BB18490A784968930000FB0314114B9700B3FBF7F108
:20232000814214D313480068C06B8047211AA1F54871090806D30B4A011B891A090828BFBE
:2023400000F5487408482146F9F726FF98BD06F005F806490120087098BDC0464A1D0020EE
:20236000FFF6C2FF00093D00B1C500004E2E0020D01C002070190020154998B50F781FBB8E
:202380001449154B0A789200B3FBF2F3834219D34968144F00FB021407F120000068C06B58
:2023A0008047211AA1F54871090806D30B4A011B891A090828BF00F548740B482146F9F77B
:2023C000EBFE98BD05F0CAFF05490120087098BD4A1D0020D01C0020FFF6C2FF00093D0036
:2023E0004E2E00205019002001E000007CB542F2050001A902F03AF842F20100694602F0C9
:2024000035F89DF8040030B3134C0098D4F8806108B39DF80410B14209D8B04201D805F077
:20242000C2FF00980021012584F8941104E001259DF8040084F89451801B642104F5DC766C
:202440004143C4F8BC11304604F040FA304601F02DFE84F898517CBD6010002030B50446DC
:202460000D4642F20900ADF12C0D09A901F0FEFF9DF8240008B342F20B000DF10E0101F0A4
:20248000F5FF00230094BDF80E00029300040190684602F0A7FC044604A942F2030001F042
:2024A000E5FF04F07BFB024604A9B4FBF5F06843241AE0B201F0B2FF06E042F20D0003A955
:2024C00001F0D4FF9DF80C000BB030BD2DE9F04107461748174C0C38067860688047804682
:2024E0001549A268087886281CD1104D05F11E021088401C10808720087005F06FFEA168D8
:2025000040468847082004F05BFCA879B04207D127B90020FFF784F9BDE8F0811B20F9E764
:20252000E920F7E740469047BDE8F081301C0020882D0020641800204F2E00202DE9FC476E
:2025400016460C46054604F02DFD164F814678688047804603F0FCFB8246B2002146484672
:2025600005F071FE504605F03BF802E02D1D241DADB23046411ECEB278B1284669460422AC
:2025800003F0B2FD68462146042204F03DFC0028ECD00549012048700870B9684046884738
:2025A000BDE8FC87641800206C1D0020002B08BF002A0FD10B1C021C002908BF002807BF8F
:2025C0000020002100204FF00041C4BFC043C94300F039BE10B55C0894EA610404D55FF06D
:2025E000000E40426EEB010113F0004F04D05FF0000E52426EEB0303FEF7F6F9241C04D57D
:202600005FF0000E52426EEB0303640004D55FF0000E40426EEB010110BD70472DE9F8431E
:202620000024002B16460F468046254606D5002FC3F1000302D57F42761E2D2599463846CD
:20264000494602F0AFFD0CA0405CB7FBF9F7002F04F1010408F8010DF1D1A64205DD30214F
:20266000301B401E08F8011DFBD10DB108F8015D4046BDE8F883C046303132333435363763
:20268000383961626364656600007047C8B50146184AC87AC8B9B2F84E70906D4FB3801FCE
:2026A000801DC67826B1B1F81F2083889A4202D07F1EF5D1C8BD8A7FC270CA880280B1F827
:2026C0001F208280097B8170C8BDB2F84C70506D7FB121382130867F4EB1B1F81F20B0F82E
:2026E0001F309A4203D1212205F00CFAC8BD7F1EF0D1C8BD6010002098B5164C94F8E10089
:20270000002710B91448007860B105F052FE94F8E310002906BF012184F8E310012705F084
:202720002FFF0FB1002098BD022003F085FD0E20FCF706FE094A106848B909494020C860D4
:2027400008600127D761002084F8E20098BD012098BDC046FC130020950B000004800C40C3
:202760002C500C40F8B50E46044605F022FE0546F0B205F0BFFA8026071C20D0B87AF0B10A
:20278000124814300078022806D03846FFF704F900F0EAFD812612E097F909100A4E4FF4FE
:2027A000A060002200EB012000F47F4046EA0001204603F0B3FA06463846FFF7EDF82846EE
:2027C00005F0DEFE3046F8BD01000804C0240020001F06B480B280B5082802AFADF1080D18
:2027E00026DBB0F5805F23DA00F18851091F0B686A46136049685160BDF80010CA0B10D3F0
:202800003A7801F0FF018A420BD17988BDF80220914206D1B988BDF80420914208BF012016
:2028200007D0BDF80610401A083880B20828D8DA002002B0BDE8804002B070471FB501468D
:2028400004208DF8000048788DF80100B1F89A000DF10203ADF80C009031184604F092FFEE
:2028600004F024F9C0B14FF6FF7453200DF10E01ADF80E40F7F74CFA0A4890F8B513A0F83D
:20288000C8430F2908D00F2180F8B51304F062FA03F092FA05F012F96846FBF71BFC009097
:2028A0001FBDC04608020020194AF8B5044692F8560002EB8000D0F8AC30207800F07F00BA
:2028C00041005D182070C918497802EB8106D6F8AC7027B182F85610207803EB400529788E
:2028E0000B1102EB8302D2F8647137B90C280EDA20461821FEF7A2F9F8BD01F00F0157F86B
:2029000021700FB905F02AFD20463C46A047F8BD080200202DE9F843DFF85C90044609EB42
:20292000440000F15805B0F85800884604F07EFA074612480678B7B12A883846002105F0F8
:2029400060FD00253C70494664187D70627D381D414605F0D7F83046394600F055FE40B9A1
:202960002846BDE8F8838DF8004068461A21FEF765F91A20BDE8F8833C0000000802002008
:202980002DE9F843174C04F1780007688046632037B300261D25397D35291CD14046394606
:2029A000324602F05FFE787E30F07F0005D194F88300401E84F8830004E094F88200401E29
:2029C00084F882007D7057F80C9C3846FEF704FC4F46002002E03E4657F80C7C002FDAD1D6
:2029E000BDE8F8830802002098B5184B04461B1D18680004070C25D003F0A4FF124991F954
:202A00000720824205DD10F1800FB8BF6FF07F00C871BC422CBF01273F1B8C88BC4210D866
:202A20000A68D3F8D40F801A801C1F2888BF1F203F1B4008C7404FF6FF70E719B84238BF25
:202A4000071C8F8098BDC046302E002030100940164880B507683FB315498B6803EA53005D
:202A6000C00E21D2134A106880081DD2486880081AD21068096810F0050F4FEA114101F0AC
:202A8000F00101F5E0710AD1B9420DD2190F38BF40F00100D90E38BF40F0040003E0B94209
:202AA00002D920F00500106080BDC04628500940AC3F0050000009402DE9F04106467568BE
:202AC000B46805F076FC21680746886B20F4FA60886305F06EFC114C8046207820B1022044
:202AE00003F0E8F800202070404605F049FDA86B20B9384605F044FDBDE8F0810020A863B1
:202B0000696B286B401A2863384605F039FDEB68296B6A6B30469847BDE8F081442E002007
:202B20001648174908B54FF46C72FDF7CBFB4FF00451002081F89003012081F87903022047
:202B400081F87503032081F87703042081F8AE03052081F8AB03062081F88103072081F811
:202B60004D03082081F86D03092081F870030A2081F838030348C1F8C00308BD1C04002134
:202B8000908501004D060021F8B5844640F6FF741CF8013B002210E0481B401E10F8015B04
:202BA0007F1E01F8015BF9D103E01CF8010B01F8010B521C5B08082AEADA5808F5D21CF84F
:202BC000010B1CF8015B05F00F07FF1CC5F30315122F45EA001508D11CF8016B300A24BF88
:202BE0001CF8010B60F3DF16BF19AC42D4D1F8BD10B5042003F0E2FC022821D003281FD05E
:202C000001281AD011480068C0F38150032805D002280CBF41F28832322201E04FF47A7216
:202C20000B490C4C09684C342046B2FBF1F105F0B2FB204605F0B1FB10BD02F07DFC10BD54
:202C400002F07AFC022003F035F810BDB43F00503C2E00200414002098B504460F46E92003
:202C6000694601F005FF9DF80000134938B90846072200F1080105230A70082205E008465E
:202C8000052300F108010B7018224272881C0222002F02704FF00007CF7003D0027842F03C
:202CA000100202700C71054AD167A2F870300321FEF7EAFB98BDC046701B00201416002004
:202CC0002DE9F041174E70688047144D144C2F78B1682A78012A0BD04FF0010885F800803B
:202CE00088472078012804D04046F2F7D9FD00E08847F8F791FB804670688047B168B8F1DA
:202D0000000F08BF2F7088472078012802D00020F2F7C6FD4046BDE8F081C0463E1D0020F3
:202D2000491D00206418002010B5044600212822ADF1280D6846FEF7A7FF1349112268469E
:202D4000FDF7C0FAFF228DF8182005208DF812008DF8114000218DF815108DF816100922B4
:202D60008DF8132001208DF817008DF814000B220DF11900FEF788FF044918206A460CF054
:202D80002FFA0AB010BDC0463708000029EE0000154880B50078022822D0052805D00128D6
:202DA0001FD9C11E01291ED81BE004F00FFE48B10F490E4A097812688900B2FBF1F1401A0A
:202DC00048BF00200B494F7847B191F8B5130F2904D018B91C20FEF723FD80BD052000E0F8
:202DE0000220F2F7EDFB80BD311C002054160020D01C002008020020B0B5184C054694F8D6
:202E00005A00A8420FD084F85B00052D84F85A5002D1002003F058FA606920B1C16811B1A3
:202E200094F85A008847042D18BF032D10D1276905F08AFB0749C01BB0FBF1F10648B0F80C
:202E40007A208A4204D21FB1A0F87A1000202061B0BDC046A0860100EC160020B8170020F8
:202E600038B5012003F0AAFB012820D0114DD5F82401C4681048342101220023A047002815
:202E800008BF002014D0286803F0ACFD04F002FD0B4A0A4D93681168D060C01AA1EB910100
:202EA00005FB00F3180C884228BF011C1160012038BDC0468000001000A00C4040420F0093
:202EC000FC2D00200146174880B500688A0CC0F38367C0F38F2022D241F3072100290BD578
:202EE0004A420021400805D17F0806BF0127381C4FF6FF70521EF5D1002910DD4FF6FF7289
:202F0000400040F00100824207D2780040F001070F2F92BF01200F27101C491EF0D140EA8F
:202F2000074080BD50130050174AF8B50D46146FD2F88010064605F041F8002750B1134621
:202F4000D3F88010284604F0DFFE3A4608B1D3F8807012E0012210E03046214605F02EF8E6
:202F600050B12846214604F0CFFE002208B107B92746012818BF171C2468002CECD102B157
:202F80002F463846F8BDC046C0240020012898B525D1012003F012FB012820D004F092FC57
:202FA000124C012104F1D800017005F0CFF8800917D20D4800683222B2FBF0F707B90F466B
:202FC000083C04F1300005F0EAF904F13000394605F0E1F904F1300005F0DFF901E002F078
:202FE00035FE002098BDC0463C2E00200414002010B50446012002F0DBFA208900280CBFCE
:20300000EB2000201249607091F80702C20824BF20F0040081F80702820809D2400813D3F2
:203020002B202070EB2363702046FFF73DFC0BE091F8070200F0FD0081F80702217C6078DE
:20304000C1F3001104F0DAFC204602F0CFFE10BD0802002030B5174C054605F12801ADF175
:20306000140D04F2BE3003F0B1FB08B3EF2309208DF801306B688DF800005A781978181D10
:2030800001EB0221ADF802102A890178082A8DF8041014BF94F8FA03C07805F11C018DF847
:2030A00005000DF1070005F065F96846FBF712F805B030BD0802002010B504460320ADF16D
:2030C000180D04F128018DF8020000208DF8030001A805F052F96068007804F11C018DF8BE
:2030E0000C000DF10D0005F045F904F1280003F0DDFC58B14FF6FF7453206946ADF80040D5
:20310000F6F706FE044920460A3108800DF10200FAF7E0FF06B010BDC605002038B5124CBF
:203120004FF470000025E0601148A56000686560C06B80470D49C0F1FF3008600D49C868D6
:20314000657008B90C48C8600C480570012001F0E9FE30B90F2003F047F9E068FFF7D2F848
:2031600038BD05F0FBF838BDD01C00200830044070190020401B0020354601004E2E0020B9
:2031800070B5164604460D1C08BF052426D034F07F0001D004F07CF9002C18BF032407D176
:2031A00055F80C0C18B915F8020CFF2804D00524284604F088FE11E0012E094805F8024CF6
:2031C00003D0294602F0AEFE02E0294604F08AF820464FF40041FCF705FD0024204670BDB2
:2031E000481B002030B50446606800252062ADF1140DA5657820A4F84C0094F82C00256523
:203200000F2807D004F12C0120460122F6F744FE08B116E0284694F83C10FF2901D1A16DC9
:2032200021B104F13C012046FBF78CFA48B92B4601208DF80C30032101AA00902046F0F7AC
:2032400003FE05B030BD704710B5024602F092F9134904280AD0084600784FF4C854842857
:2032600006DB8628B8BF4FF4C86401E04FF41644052A0BD00846007803F086F80949C07B8D
:203280000988022814BF04F57A740C4404F57A644FF47A6004F5FA64B4FBF0F010BDC046BC
:2032A00003060020561200202DE9FC41144C154F06468846700809D320684568002101225F
:2032C0000B461FFA88F000903846A847B00809D3206845680021022201231FFA88F00090BC
:2032E0003846A847F00809D320681FFA88F600210C220223446800963846A047BDE8FC8131
:20330000A401001000A00C403EB5401E4FF000040AD0401E04D0401E1DD1F6F731FC1AE00C
:20332000FFF7EAF9044616E0684604F087FF20460C4D019401226B468DF8000007490290BD
:2033400005F1780000F08AFE054A2C21234605F19C0001F087FF20463EBDC0468537010055
:20336000A94F0000FC13002038B5164C207D022823D0012824D0042822D005F01AF8054690
:203380006846FDF71DF980B1009949B904F1900005F005F804F1B400042105F020F808E06F
:2033A00004F1900004F0F6FB03E004F1900004F0F6FF284605F0E4F838BD192004F0FDFFF5
:2033C00038BDC046C024002010B504F0F2FF1549A0390978022918D005F0D2F804F044FC86
:2033E0000D4A002304F0A6FB0C4C4FF090531B1820684FF07A044FEA000244EB010400213C
:203400005B1844EB0204241C03E005490C6805F0B7F8204610BDC04600093D00F82D0020B7
:203420000430044074250020F0B505461548243000680E46ADF12C0DA0B1076997B18DB1E0
:2034400086B106208DF808000124ADF80A400022ADF80C2004AB009302AB93E803001A23D1
:20346000B84708B100200AE004A928460C22FCF729FF07A930460E22FCF724FF20460BB099
:20348000F0BDC046101500200246F8B5084611464D68203821D0401E1CD0401E18BF6FF0BE
:2034A00001001ED18C6804F084FF0E4E07463068016920688847B0F1FF3FF8D100246C6413
:2034C000286C401EA864EC643846AC6305F058F82046F8BD0021084601E00121002085F8A2
:2034E0002D10F8BDD001001070B5134D114968780C880830444312480068104EC06B8047D5
:203500007168401A31788900B0FBF1F10D4802783C209040B1FBF0F242436878891A00F137
:203520000803B1FBF3F25A43891A401A0019083070BDC046381C0020441A0020D01C0020D3
:2035400070190020DC05002070B5154D286808B104F038FE134C60688047103D296A0A6887
:203560000026167109682962A1688847094A0A49107810B90846007858B1167008460670BA
:20358000FBF782FE05480078012802D03046F2F787F970BD4B2E00204D2E0020491D002033
:2035A000882D00206418002038B5164C04F53A7005461C30FEF7B4F803F0A0FA042003F0CC
:2035C000FFFB94F8EA02032802D194F8E902A0B105F14501E120F6F79BFB05F14601E720AF
:2035E000F6F796FB94F8FB0394F82F13884204D005F14701E820F6F78BFB2846FAF76AFDD8
:2036000038BDC0460802002070B502460D4632F07F0004D110460022FFF7B2FD70BD04F011
:20362000E9FD104908398C78A5F10C06FF2802D0C96A09184C78FF2C02D103F029FF0DE047
:20364000104604F04BF801462A46FF20B072204602F0AEFA20B1284604F035FC012070BD33
:20366000002070BD481B0020F8B50646B08815460F46FDF76DF90446002D02D4281B0A287D
:2036800006DB3368291B38460CA201F067FB2418B08901280FD1002D06D4B06804F0ACFBB3
:2036A000291B401D884206DCB368291B384604A201F054FB24182046F8BDC046257000C048
:2036C000282725732729000038B5044642F208000DF1020100F0CAFE9DF8020040B19DF86A
:2036E000020002281ED1204601F0F8FF054606E042F20C00694600F0B9FE9DF8005094F829
:20370000200068B9284600F011FE0020A4F87C5094F8223020702BB1102004F087FC38BD8D
:203720000120207038BDFEE700B5ADF1240DADF80000ADF80210116801A801605168416041
:20374000002002460D490690887D8DF80C200D318DF80D000B680DF10E0003604B68436057
:20376000097A017218208DF81C2005498DF81D206A460BF035FDC0B209B000BD200800005D
:20378000B53A00001348144A14490078801E0A2807D8DFE800F019140F06140F06140F06B2
:2037A00007C0FEE710688008FCD250688008FCD2F6F7E6B908688008FCD3F6F7E1B9086837
:2037C0008008FCD2F6F7DCB910688008FCD3F6F7D7B9C046E014002034600C4038600C40E7
:2037E00038B54FF0FF3004F079F8134C0F490546241FA06981420ED10D4904F13800002274
:2038000004F0DDFD0220207502F04AF818B9FCF7A1F8F8F74DFE0748284205D004F1B40021
:203820004FF0005104F0DBFD38BDC0465D45000025EB000002000040C42400202DE9F041EE
:203840000446A76E1E461546884607B1B84704F1600003C805400E4008BF002D1AD04146AD
:203860002046802201F02CFE04F1700181E8600050B100F1200106C900F12003B243A9431F
:2038800083E80600A16E81600020A06604F1400004F09DFDBDE8F08110B50446012001F0A7
:2038A00087FE1248FDF73CFF208900280CBFEB2000200F49607091F80702C20824BF00F0DC
:2038C000FB0081F8070280080BD391F8070200F0FD0081F80702217C6078C1F3001104F0D6
:2038E0008DF8204602F082FA10BDC046E403002008020020154909681F280ADC1F2819D03F
:203900000D380FD00A380FD0001F0FD0C01E0FD01AE0253810D0001F10D0401E10D0801E95
:2039200010D011E0086870474868704788687047C868704708697047486970478869704762
:20394000C8697047086A704700207047F001002070B5124C6068F8B1124D68688047064638
:2039600094F883200E4861680078904206DCA96830468847F120F6F751FB70BD04F1780093
:2039800003F0B0FC002394F88300A9686360401C84F883003046884770BDC0460802002085
:2039A0002C1D002064180020F8B5134C60680D468047124A8446A168B2F84C70506DB7B15A
:2039C000002421382130867F6EB1B0F81F20954209D1002282774FF6FF72A0F81F2060460F
:2039E00088472046F8BD7F1E04F10104EAD1604688474FF6FF70F8BD641800206010002081
:203A0000F8B50746C81D01F00705C610002F4FF0010000FA05F0A0F1010C14BF00290020DC
:203A200019D00020BEB17F1E33460246941B17F8011FB4F1FF3F08D10DB10CEA010104E07C
:203A400001F1FF04401C2140C0B20029F8D15B1E02F10102EAD1F8BD70B5F0F7BBFB124D50
:203A600068688047064603F0FDFB104C94F9EA0304F017FA02F07EFE04F082F903F0E2FFEC
:203A800003F0D4FFA9683046884794F8EB0300F04DFC04F2D1315220F6F73AF904F098FB46
:203AA00008B9FFF73BFB70BD641800200802002038B50C4620B141680122A240114201D143
:203AC000022038BD914341600E480025031900EB8401C1F8985003F144010978FF291ABFF7
:203AE000806850F8211044F020410548FAF704F820464FF0FF3103F011FD284638BDC04657
:203B0000007FC767E8120020144BB0B511F1800F43EA0202C2F3150208BF071C19D090F930
:203B2000004000277F2C0FD00546D5F801406FF39F54A34208D095F90040A14204DB15F98B
:203B4000054F7F1C7F2CF0D137B107EB87077F1F3F18D7F80100B0BD1046B0BDFFFF3F0070
:203B6000134AB0B5054602F170000768DFB1F868007B012400F00F00022818BF002014D1D1
:203B80003969F8684B8AC9688068C91892F8BA31192202FB031102F053FD06490968286009
:203BA000B0FBF1F001E00020044628602046B0BDC02400203C2E00202DE990410F4C60683B
:203BC000804780460E48007898B90E490F78012037F07F0707D10C490F7827B90B490F781E
:203BE00037F07F0703D080F00100C0B208B103F049FBA16840468847BDE8908164180020C2
:203C00004C2E00204B2E00204D2E00204F2E00202DE9F041054600202860114800780E46DA
:203C2000012802D00120F1F73BFE0E4C606880473768804630463FB16A687968914203DC2E
:203C400038463F68002FF8D1056030682F60854201D100F009F8A16840468847BDE8F081BD
:203C6000491D002064180020B0B5144C00252846A26A216BA56390420CD05268914209DD09
:203C800001F0D2FE0146A06A42689142C8BF4160A063216BE76A37B118B142687B689A4273
:203CA00001DD3846A06328B14068814202DD01F0BBFCB0BD03F0F6FCA563B0BD08020020E9
:203CC00038B504460D46E920694600F0D1FE01F051FC04280FD004F10D00690880B224BF12
:203CE00004F1260080B2122CCCBF05210221401880B2C0000DE06001690800F5967080B22F
:203D000024BF00F21E2080B2122CCCBF28210C21401880B238BD38B50468456820680028EA
:203D200008BF4FF0FF301FD004F043FB2168002954BF491E0021216004F022FC206890B97C
:203D400004F12C0004F033FB04F1480004F03DFB04F1640004F039FB6868FBF7C3F804F1C4
:203D6000180003F01FFA002038BD704738B5134C054694F8201094F8230081421DDD94F808
:203D80002110A94219DD636A3BB1294604F5BA72984794F8230094F8211084F8220001FBDF
:203DA0000051E06901EB81010918087884F82300D1F8011004F5BA70884738BD601000206A
:203DC000B0B5134C6068628808B325880021AA42C8BF01210B46AA42C6BFA91A01F58061F3
:203DE000A91A8FB297B1012B04D0121902F108013A4609E01119C2F58062083104F037FAC6
:203E0000606804F108012A4604F031FA6580B0BD580C0020134910B5044691F80702ADF1DC
:203E2000180D40F0020081F80702012003F03AFA607890B9211D02A803F0A4FC03F0D2FD03
:203E400001460120009004F110030193E38902AA0520F3F77BFE607010B1002103F0CEFDBE
:203E600006B010BD0802002010B5134C94F8610194F8381240B9606860B9012084F86101D4
:203E8000202004F0C3F805E0481CC0B2042884F838020BD094F8B5234FF4707104F50670C4
:203EA000914001F2636103F00BFC10BD202001F07FFBFBF745FE10BD0802002010B5134CB8
:203EC000012094F8B51384F861010F2918D06070202004F09BF80C4894F8B51394F838323A
:203EE000C4F8200204EB4101B1F8242104F50670591C5143490001F2A32102F073FF10BD1C
:203F000001F05AFF10BDC046651E010008020020C8B5071C23D079684878C61121D03A8917
:203F2000F96400204B78C3F3C3030F2B08D00B78C018C918801C891C80B28242F2DC01E091
:203F4000801C80B2824208DB79683E8909187960311A3981A7F85000C8BD0020FAE704F0DC
:203F6000FDF9C8BD10B5044600211C22ADF1200D6846FDF789FE60788DF80000A0788DF86A
:203F80000100E0788DF8020020791122611D8DF8030001A8FCF796F9A07D8DF8150008B1D4
:203FA000A06906900348006881696846884708B010BDC046201D0020F8B504460D460846C8
:203FC0001122002104F01DFA94F800C0BCF1000F1AD0641C00214FF0010EE078A37843EA01
:203FE0000023207809E0C610AF5D00F00702401C0EFA02F2C0B23A43AA558342F3DA491C05
:20400000241DC9B28C45E8DCF8BD80B502465378107840EA0320C7130F7007BFC0F3062382
:2040200000F0FF00C0F3C323C0F30A004B70802848800DDA02280BDB012B0CD0022B0AD00A
:20404000042B08D0052B06D0062B04D0072B02D00022104600E0921C4A6080BDF0B515465D
:204060000E4604461F1CADF1240D08BF00230DD0684600212422082304F056FA3B78ADF8F5
:204080001030B86806907A6805926B46204631462A4604F045FA0348034F0168204609B05B
:2040A0003960F0BD540C00003C2E00202DE9B841114C0546201D00688047804602F0D2FF24
:2040C0006F7E0146002F08BF686806D068682A69AF68401A8018C01968602961E96805F132
:2040E000140201F07FFD012768686F76A168A86040468847BDE8B88164180020114810B562
:204100000078E8B1104C233C94F82A1264204843C4F8A00104F5CE70FFF7C8FFB4F8760188
:2041200094F82A22D4F87C11401C80B28918A4F8760100B900210020C4F87C11FFF716FEBF
:2041400010BDC046D90500208310002038B504460F491048143009880068A14213DD0E4D89
:204160006868804703466946722002F0D7FB0099A00000EB041009180091A9681846884732
:204180000098001D38BD641AA1B200EBC10038BD301D00206010002064180020F0B5124D66
:2041A00000260C460746ADF1140DC5F8B061012004F0BFF82868C00FF9D3286A0090686AC2
:2041C0000190A86A0290E86A03903FB13846694611F8012B401E04F8012BF9D1032005B04B
:2041E000C5F838023046F0BD5045024010B5114C62685168496839B110B102F0F5F9626823
:2042000050684068804762685168886808B9C86870B103F051FD5168886810B180476068B8
:204220004168C86800B180470348503802F09EFB10BDC046C024002051000706084608B58F
:2042400000F0005100F00400084315D0012002F0B5F90B49012809D008460849096832227E
:204260007830B2FBF1F103F095FC08BD054A08460260054803F09AFE08BDC0463C2E002092
:20428000D82400205D450000E82D0020042838B51ED1114CB43C04F19000054603F04EFEC7
:2042A000B0B1284604F075F80A4909684843B0F5967F0DD2284604F072F8052001F0BCFF49
:2042C0002046012180F821100421B43004F087F8002038BD3C2E00207425002010B50446CA
:2042E000012001F065F92078212804BFEB2060700D4991F80702C20824BF20F0040081F8AD
:204300000702800805D22B2020702046FEF7CCFA10BD91F8070200F0FD0081F80702607893
:20432000002103F06BFB10BD08020020F8B5104C0646201D0568802E01DD04F00FF8A84797
:204340000C4D0D49094A2F780E701FB91778A1682FB907E01778A16837F07F0702D0884711
:204360000120F8BD8847FDF741FDF8BD4F2E002064180020440500200C1B00200F48F8B5C4
:204380000568104800680E4CC06B80476168401A21788900B0FBF1F0A8420BD20A4E7068DC
:2043A00080470746A5602846FDF7E6FFB16838468847F8BD03F0D2FFF8BDC04638020020A9
:2043C000D01C0020701900206418002070B540680C46054600F5827003F0E1FF0D486A7F2A
:2043E0000168287F8018AA69C01D80B244430A4805F582766043B0FBF2F008186330B0FB9A
:20440000F1F1491C304603F0C6FF304603F0C5FF70BDC0463C2E002040420F002DE9F8435B
:2044200000249146884606462546274613E018F8011B082281F0010000F001002418E4B211
:20444000601EB04206D06D1C521E4FEA6101EDB2F0D100E00127A94502DC1FB903F0A3FFE1
:20446000002FE4D02846BDE8F8837047F8B50E4603F000F805464FF6FF70A84208BF6820F0
:2044800013D00C4C606880470849094A0746680000EBC5004018017889184278304603F0B4
:2044A00031FBA168384688470020F8BD2C0500005C12002064180020F8B506460F4D104F96
:2044C0007388002417E0A20002EBC402921951689068D26852B9AF420BD00A7855F82220F3
:2044E0000346491C08461946904701E0FBF7EAFE7388641CA4B2A342E5DCF8BD6C950100A1
:2045000078950100104898B501210170022111400E4A4FF0E0471F4008BF002903D092F976
:204520000010491E1170044692F9000028B192F90000002804DC03F011FF0020F1F7B0F98E
:204540000020207098BDC046491D0020461D002001461CB50D480E4C0078022814BF207873
:2045600000200C4B1A6ADB691B69126E53F8200090470090084A00996FF39F518A421ABF44
:204580000E3420604FF0FF301CBDC046330600200E1B002050190020FFFF3F0070B501205E
:2045A0000E4E0F4D30702878022814D10024022114EA030001EA020108BF002901D103F009
:2045C000CDFE084991F90000401E08702C7003F069FA347070BD03F0C1FE70BD491D002037
:2045E0004A1D0020461D002038B5EB2003F0E4F80E48002404700B480078862802D120464A
:2046000000F03EF8084D68688047094910390A6A13681C7112680A62A968884703F088F838
:2046200038BDC0464F2E0020641800204D2E0020882D002038B50F4C606880470E49002583
:204640004A784D70A168930806D2D2080FD388472846F1F725F938BD8847084800780128AB
:2046600002D00120F1F71CF960688047A168884738BDC04664180020D01C0020491D0020BA
:2046800038B50F49104C888B401C88836068804705460C480178862903D0A1682846884790
:2046A00038BD8721017003F099FDA16828468847082002F085FBE920FDF7B2F838BDC046E1
:2046C000301C00204F2E0020641800203EB5054615F8060C03281DD12B681869009058695A
:2046E0000190986902906C6859689A681868DB68A0472968086015F8080C01F08DFE044675
:20470000012002F093FB011C04D0422008702046FEF77AFF3EBDFEE72DE9F0411746884607
:20472000064603F069FB0D4C0546002128222046FDF7AAFA31462A462046FBF7C3FD404644
:204740003A46611900F09CF8204603F042F802A003F03FF8BDE8F0810D0A00C0A02D0020A2
:2047600000B500211A22ADF11C0D6846FDF78CFA02200B4A8DF81400B2F84410ADF80C1069
:20478000B2F840108DF818000020ADF8161005498DF8190018206A460AF022FD07B000BD36
:2047A000B81700206582010038B50D460E49144664390A68AA4205D301EB8501D1F898107B
:2047C000884201D0022038BD03F0F3FD074B103B1A68AC400121A9408A4314431C6003F09B
:2047E000CFFE002038BDC0464C130020E02002401049D0B50F68ADF1180DC7B17E69B6B132
:20480000A8B1062102268DF8001000248168ADF80260438804914268ADF804409DE80300CC
:2048200003927C69ADF808300C2202ABA04706B0D0BDC0463415002070B50E46144605468F
:20484000082300212422ADF1280D684603F06CFE002006900590ADF81000084800684FF4ED
:204860007A716B46B1FBF0F080B2314604FB00F2284603F055FE28460AB070BD540C00000D
:20488000FEB50746052400266B4697FBF2F05043381AC5B20A2DACBF37203020401997FB14
:2048A000F2F51870AFB22FB1641E03F1010306F10106EAD1761C13F80109761E01F8010BD5
:2048C000F9D100200870FEBD70B5104D95F8B503B5F8DA430F280FD0D5F8586101F0A4F801
:2048E0000019864208D895F8B5134FF4707088402418A41B04F5707405F5EE752846FCF721
:204900000FFF2146284602F0DBFE70BD0802002010B504460E48007801F036FD426801687E
:2049200004FB02124FF47A71B2FBF1F3094AD3834368006804FB0300B0FBF1F39BB201FB0F
:20494000130040037D21B0FBF1F0108410BDC046030600201416002098B5014648688968C8
:2049600009688969C1F3C0070C490A6827B99830022103F034FD98BD4FF4FA71B1FBF2F30F
:20498000012B8CBFB1FBF2F1012100F58274204603F001FD204603F000FD98BD3C2E002078
:2049A0001FB5144600900A79487940EA02208A7942EA0022C87940EA022001900A784878F8
:2049C00040EA02208A7842EA0022C87840EA02200290684600F006FAB0FBF4F16143401AF1
:2049E000C0B200901FBDF8B5051C0E4606AF04D0012D0CBF0624002400E002240EB9A41C5A
:204A0000A4B2012A06D0022A0ED15889C01D04EBE00408E03878002814BF022101210020AB
:204A2000FAF79CFE2418A4B22046F8BD0F4800B50068ADF1240D69467030F4F73FFE10B9BB
:204A40009DF80B0008B900200DE0684602F0B9F89DF808104FF47A73B0FBF1F24A43801A05
:204A6000091A03FB01F009B000BDC0460C020020F8B502F0C4FC0D460746FF2F08BFF42072
:204A800011D0094C60688047084A0646B800084B115C80184278C918284603F033F8A16873
